:020000040800F2
:1000000000500020253C00086522000867220008F7
:10001000692200086B2200086D2200080000000021
:100020000000000000000000000000006F22000837
:1000300071220008000000007322000875220008E9
:100040006D3C00086D3C00086D3C00086D3C0008EC
:100050006D3C00086D3C00086D3C00086D3C0008DC
:100060006D3C00086D3C00086D3C00086D3C0008CC
:100070006D3C00086D3C00086D3C00086D3C0008BC
:100080006D3C00086D3C00086D3C00086D3C0008AC
:100090006D3C00086D3C00086D3C00086D3C00089C
:1000A0006D3C00086D3C00086D3C00086D3C00088C
:1000B0006D3C00086D3C00086D3C00086D3C00087C
:1000C0006D3C00086D3C00086D3C00086D3C00086C
:1000D0006D3C00086D3C00086D3C00086D3C00085C
:1000E0006D3C00086D3C00086D3C000800000000FD
:1000F0000000000000000000000000000000000000
:0C01000000000000000000005FF808F1A3
:10011000044B05481B1A062B02D9044B03B11847A0
:10012000704700BF7700002074000020000000002E
:1001300005490648091A891001EBD171491002D00E
:10014000034B03B11847704774000020740000206F
:100150000000000010B5064C237843B9FFF7D8FF24
:10016000044B13B10448AFF300800123237010BD8A
:100170007400002000000000703C000808B5084B27
:100180001BB108490848AFF300800848036813B959
:10019000BDE80840CCE7064B002BF9D09847F7E7BD
:1001A0000000000078000020703C0008740000206F
:1001B0000000000070B50F4E0F4D761BB61018BF33
:1001C000002405D0013455F8043B9847A642F9D1E4
:1001D0000A4E0B4D03F04CFD761BB61018BF0024E1
:1001E00006D0013455F8043B9847A642F9D170BDBA
:1001F00070BD00BF503D0008503D0008543D000850
:10020000503D000870B4860746D0541E002A41D0E5
:10021000CAB2034602E014F1FF343BD303F8012BCA
:100220009D07F8D1032C2ED9CDB245EA05250F2C18
:1002300045EA054519D9264603F11002103E0F2E56
:1002400042F8105C42F80C5C42F8085C42F8045C2E
:1002500002F11002F2D8A4F1100222F00F0204F011
:100260000F041032032C13440DD91E462246043AC3
:10027000032A46F8045BFAD8221F22F00302043254
:10028000134404F003042CB1C9B21C4403F8011B4D
:100290009C42FBD170BC704714460346C2E700BFC6
:1002A0000CB40B46F0B56FF000454FF402774FF6F3
:1002B000FF769DB022AC54F8042B0293069302A95A
:1002C00023460194ADF8147004950795ADF81660B7
:1002D00000F03CF90022029B1A701DB0BDE8F0400E
:1002E00002B070470EB40146F0B56FF000454FF410
:1002F00002774FF6FF769CB021AC54F8042B0B4BE1
:1003000002910691186802A923460194ADF8147071
:1003100004950795ADF8166000F018F90022029BCD
:100320001A701CB0BDE8F04003B070470000002018
:1003300020F0030110F00300C0F1000051F8043B6D
:1003400000F1040C4FEACC0C6FF000021CBF22FA43
:100350000CF213434FF0010C4CEA0C2C4CEA0C4C01
:10036000A3EB0C0222EA030212EACC1204BF51F8FA
:10037000043B0430F4D0C2F1000102EA0102B2FAF7
:1003800082F2C2F11F0200EBD20070472DE9F04764
:100390008E680C469E421D46174628D8804688899E
:1003A00010F4906F32D04E692368096906EB460657
:1003B000A3EB010906EBD6766B1C76104B44B342D7
:1003C000324684BF1E463246430522D5114640467A
:1003D00000F02EFD824680B34A46216900F006FCFB
:1003E000A38923F4906343F08003A38116E01E46A3
:1003F00008682A46394600F06FFCA2682368961BFD
:100400002B44A66023600020BDE8F08708683546CD
:10041000EFE7404600F06AFD824650B1A6EB0903C3
:100420000AEB09006661C4F810A02060A3602E46A4
:10043000DFE72169404600F0B3FC0C23C8F8003028
:10044000A3894FF0FF3043F04003A381BDE8F0875C
:100450002DE9F04F936883B09046002B70D0824610
:100460000C4617688D68086842E0A38913F4906F02
:100470002ED06569216905EB4505A0EB010B05EB65
:10048000D5750BF101006D103044A8422A4684BF97
:1004900005462A465B0538D51146504600F0C8FC93
:1004A00000283CD05A462169019000F09FFBA289A8
:1004B000019B22F4906242F08002A281A5EB0B0224
:1004C00003EB0B006561B346354623612060A260F3
:1004D0005A46494600F000FCD8F80830A268206867
:1004E000551B58449E1BA5602060C8F808603EB3A9
:1004F0007E683B460837002EFAD0AE42D3F8009013
:10050000AB46B2D23546B346E2E7504600F0EEFCC9
:1005100003460028D2D12169504600F041FC0C234B
:1005200000224FF0FF30CAF80030A38943F04003A7
:10053000A381C8F80820C8F8042003B0BDE8F08FF4
:100540000020C8F8040003B0BDE8F08F2DE9F04F9B
:100550000F4689899DB00C0691460393804603D5CA
:100560003B69002B00F0FC803023002020218DF817
:100570002A3099F800300125814C09908DF8291016
:10058000002B00F09180252BCA4603D119E0252BC2
:1005900000F093801AF8013F002BF8D1BAEB090B59
:1005A00000F082804A465B4639464046FFF7EEFE41
:1005B000013079D0099B9AF800205B440993002A06
:1005C00072D000234FF0FF320AF1010A049307931F
:1005D00006938DF853301A93059205E0049B001B97
:1005E00005FA00F0184304909AF8001005222046FE
:1005F00000F0B6FAD1460AF1010A0028EED1049BB8
:10060000D80644BF20228DF85320190748BF2B225B
:1006100099F8001048BF8DF853202A2971D0A1F114
:100620003002092A0BD8079B19F8011F03EB83033B
:1006300002EB4303A1F13002092AF5D907932E29D1
:1006400046D0DFF84CA10322504600F089FA48B1A9
:100650004022049BA0EB0A0002FA00F0034309F1D8
:100660000109049399F800300622194645488DF88F
:10067000283009F1010900F073FA00284DD0424BEF
:10068000FBB103AB00933A46404B04A94046AFF39D
:1006900000800646721C07D0099B3344099399F8E1
:1006A0000030002B7FF46FAFBB895B064CBF4FF06F
:1006B000FF3009981DB0BDE8F08FBAEB090B80D070
:1006C00070E7039B073323F0070308330393E3E743
:1006D00099F8011009F101002A2928D00023A1F17D
:1006E0003002092A05938146ABD819F8011F03EBA4
:1006F000830302EB4303A1F13002092AF5D90593E4
:100700009FE7039A116804320029039222DB0791C4
:1007100099F8011009F1010991E703AB00933A46FA
:100720001A4B04A9404600F0CDF80646B2E7039BF9
:1007300009F102001A680433002A0393B8BF4FF08E
:10074000FF330592AEBF99F8021099F80210059395
:10075000814676E7494243F0020307910493D7E7C5
:10076000402100F065FB3860386110B140237B61A7
:10077000FAE60C234FF0FF30C8F800309AE700BFCC
:10078000143D0008203D0008000000008D03000813
:100790001C3D00082DE9F0470C460969A568914603
:1007A0008D42B8BF0D46156094F8431006461F46AB
:1007B000DDF8208011B16A1CC9F800202368990671
:1007C0005DD5D9F800200232C9F80020236813F063
:1007D000060F19461DD1E1688A1A002AD8BF1946AA
:1007E00017DD002504F1190A05E0E368D9F80020B7
:1007F0009B1AAB420CDD0123524639463046C047B6
:10080000013005F10105F0D14FF0FF30BDE8F08770
:10081000216894F84330003318BF01238A060AD5B3
:100820003021E21882F8431094F845105A1C2244F3
:1008300082F84310023304F1430239463046C04780
:100840000130E1D0236803F00603042B29D0A3680C
:1008500022699342C8BF4FF0000930DD9B1A9944CA
:1008600000251A3401E04D4529D00123224639469E
:100870003046C047013005F10105F4D1C4E713F05B
:10088000060F08D1E168D9F800208A1A002AD8BFDB
:100890001946A6DCBDE794F84330003318BF0123A6
:1008A000C9E7D9F80010E068A3682269A0EB010944
:1008B000934229EAE979D1DCB9F1000FD0D10020C7
:1008C000BDE8F0872DE9F0430C46097E85B06E291E
:1008D00006461746984604F1430C0C9855D00FD89D
:1008E000632900F0198100F2D48000295CD05829D6
:1008F00040F0E68084F845102268DFF85CE213E0FF
:10090000732900F0FB8000F289806F2900F0E280FB
:10091000702940F0D580226842F0200222607823BE
:10092000DFF838E284F845300368150603F1040166
:1009300000F1FD8055064BBF1B881B6801600160FC
:10094000D00744BF42F020022260002B40F0938089
:100950001021226822F020022260002284F8432025
:1009600060680028A060C0F28B80226822F0040238
:100970002260002B66D1002840F08480654608295B
:100980006ED0ACEB0503236111E023681A0600F179
:10099000D18013F0400F0368626903F10401016024
:1009A0001B6814BF1A801A60002365462361CDF8C6
:1009B00000803B4603AA21463046FFF7EBFE01309C
:1009C00021D02A46236939463046C04701301AD023
:1009D0002368E06813F0020F039B19D0C21A002AA3
:1009E00016DD002504F1190904E0E068039BC21A32
:1009F000AA420DDD01234A4639463046C047013040
:100A000005F10105F1D14FF0FF3005B0BDE8F083ED
:100A10009842B8BF184605B0BDE8F083752959D093
:100A200078294DD122687AE72D2061685B42002940
:100A300084F84300A16020DB0A2122F00402DFF8E1
:100A400018E122606546B3FBF1F201FB12331EF898
:100A50000300134605F8010D002AF4D1082990D1AE
:100A60002368D9078DD5626823699A4289DC3023CF
:100A7000013D2B7085E710216FE70A21DFF8D8E0F0
:100A8000002BDFD19EF8003004F1420584F842309B
:100A900075E7642901D0692912D122680368150617
:100AA00003F1040152D455064BBFB3F900301B6863
:100AB00001600160002BB7DB0A21DFF89CE04FE703
:100AC000012384F84210236104F14205002384F8D5
:100AD00043306CE723681A0633D413F0400F0368E1
:100AE00003F1040215BF1B881B68026002606F29B6
:100AF00014BF0A210821DFF860E02EE7036862686E
:100B0000191D01601D680021284600F029F800B376
:100B1000401B60602061D9E70122036804F14205AF
:100B2000191D1B68016084F842302261CEE7016024
:100B30001B6805E703686269191D01601B681A607C
:100B400032E703681A1D02601B68D0E701601B686A
:100B5000B0E76068DEE700BF283D00083C3D0008C4
:100B6000830770B4CDB23DD0541E0AB30378AB42B4
:100B70001FD0431C05E014F1FF3419D30278AA42B8
:100B800017D013F0030F184603F10103F3D1032C20
:100B900011D84CB30378AB420BD00444431C02E0A1
:100BA0000278AA4205D09C42184603F10103F7D10E
:100BB000002070BC7047090289B2294341EA014113
:100BC000036806464B40A3F1013222EA030313F007
:100BD000803F00F1040003D1043C032CF0D8D8E797
:100BE0003046D7E71446D2E72046E2E7844641EA9A
:100BF000000313F0030349D1403A23D30B68036089
:100C00004B6843608B688360CB68C3600B6903618A
:100C10004B6943618B698361CB69C3610B6A036272
:100C20004B6A43628B6A8362CB6AC3620B6B03635A
:100C30004B6B43638B6B8363CB6BC363403040313F
:100C4000403ADBD230320BD30B6803604B68436011
:100C50008B688360CB68C36010301031103AF3D2D8
:100C60000C3205D351F8043B40F8043B043AF9D266
:100C7000043208D0D2071CBF11F8013B00F8013B39
:100C800001D30B8803806046704700BF082A13D346
:100C90008B07B1D010F00303AED0C3F10403D21A16
:100CA000DB071CBF11F8013B00F8013BA4D331F86E
:100CB000023B20F8023B9FE7043AD9D3013A11F8EE
:100CC000013B00F8013BF9D20B7803704B7843707D
:100CD0008B788370604670478842F0B50DD98B18C9
:100CE00098420AD28418002A51D0224613F8014DA6
:100CF000994202F8014DF9D1F0BD0F2A48D941EAD5
:100D000000039B0746D1154600F1100401F11003C2
:100D100053F8106C103D44F8106C53F80C6C0F2D08
:100D200044F80C6C53F8086C04F1100444F8186C87
:100D300053F8046C03F1100344F8146CE8D8A2F1E2
:100D4000100323F00F0302F00F0E1033BEF1030F58
:100D50001944034421D90E4674461D1F56F8047BDE
:100D6000043C032C45F8047FF8D8AEF1040424F0C9
:100D7000030404342144234402F0030262B1013B22
:100D80000A4411F8014B8A4203F8014FF9D1F0BD32
:100D90000346F3E70346F2E7F0BD7246EEE700BF15
:100DA00091B151F8043C0439002BB8BFC9181F4B4E
:100DB0001A68FAB18A4230B40AD908680C18A242FB
:100DC00026D04A60196030BC70478B4203D81A465F
:100DD0005368002BF9D1146815198D420DD006D82F
:100DE00008680C189C4219D04B605160EBE70C234B
:100DF0000360E8E74A601960704709680C441119FC
:100E000099421460DFD10ACB0C4414605360DAE7D6
:100E100014685268204481E80500D3E71C685B68C9
:100E2000204481E809005160CDE700BF9000002018
:100E300070B5CC1C24F0030408340C2C38BF0C24EF
:100E4000002C06463BDBA14239D8274D296851B119
:100E50000B681B1B04D436E013681B1B1AD5114604
:100E60004A68002AF8D16968002937D021463046FF
:100E700000F064F8431C22D0C51C25F00305A842ED
:100E800005D0291A304600F059F8013017D02A460B
:100E90002C6004E00B2B0DD913601A44146002F18E
:100EA0000B0020F00700131DC31A02D05942D15085
:100EB00070BD70BD8A420ED053684B60EFE70C23C3
:100EC0000020336070BD0B2B03D80A464B682B60A3
:100ED000E5E70A46E0E70B460A46F8E7304600F049
:100EE0002DF86860C2E700BF90000020F8B51446F6
:100EF000F9B1C2B106460D4600F032F8844201D87D
:100F00002846F8BD21463046FFF792FF074670B1EC
:100F100022462946FFF76AFE29463D463046FFF73E
:100F20003FFF2846F8BDFFF73BFF2546E8E70546AB
:100F3000E6E71146BDE8F840FFF77ABF38B5002371
:100F4000064C05460846236000F064F8431C00D0B8
:100F500038BD2368002BFBD02B6038BDB4020020C5
:100F600051F8040C0028A0F10400BCBF0B58C018B5
:100F7000704700BFF8B5C1F30A56A6F2FF35132D2E
:100F80000A460B46044611DC002D2EDB8E46204916
:100F900029410A4225D04FF4002300262B417344F7
:100FA00023EA0103194634462046F8BD332D05DDFA
:100FB000B5F5806F1FD011462046F8BD4FF0FF31C8
:100FC000A6F2134621FA06F63042F4D00121C5F10B
:100FD000330201FA02F2121828BF5B1822EA060651
:100FE000E0E70028D7D11146E6E7013501F00043DC
:100FF00007D00026D6E702460B4600F01FF804464D
:10100000D2E743F07F5343F440130026CAE700BF02
:10101000FFFF0F00044A05491368002B08BF0B4669
:10102000184410601846704798000020B80200204D
:1010300081F0004102E000BF83F0004330B54FEA89
:1010400041044FEA430594EA050F08BF90EA020FF6
:101050001FBF54EA000C55EA020C7FEA645C7FEA89
:10106000655C00F0E2804FEA5454D4EB5555B8BFAC
:101070006D420CDD2C4480EA020281EA030382EA1D
:10108000000083EA010180EA020281EA0303362DAF
:1010900088BF30BD11F0004F4FEA01314FF4801C82
:1010A0004CEA113102D0404261EB410113F0004F94
:1010B0004FEA03334CEA133302D0524263EB43034B
:1010C00094EA050F00F0A780A4F10104D5F1200EE9
:1010D0000DDB02FA0EFC22FA05F2801841F1000144
:1010E00003FA0EF2801843FA05F359410EE0A5F118
:1010F00020050EF1200E012A03FA0EFC28BF4CF049
:10110000020C43FA05F3C01851EBE37101F00045FE
:1011100007D54FF0000EDCF1000C7EEB00006EEB0B
:101120000101B1F5801F1BD3B1F5001F0CD3490895
:101130005FEA30004FEA3C0C04F101044FEA4452EC
:1011400012F5800F80F09A80BCF1004F08BF5FEA73
:10115000500C50F1000041EB045141EA050130BD53
:101160005FEA4C0C404141EB010111F4801FA4F1F6
:101170000104E9D191F0000F04BF01460020B1FA4B
:1011800081F308BF2033A3F10B03B3F120020CDA83
:101190000C3208DD02F1140CC2F10C0201FA0CF061
:1011A00021FA02F10CE002F11402D8BFC2F1200CC6
:1011B00001FA02F120FA0CFCDCBF41EA0C0190407C
:1011C000E41AA2BF01EB0451294330BD6FEA0404C5
:1011D0001F3C1CDA0C340EDC04F11404C4F12002B0
:1011E00020FA04F001FA02F340EA030021FA04F3C2
:1011F00045EA030130BDC4F10C04C4F1200220FA19
:1012000002F001FA04F340EA0300294630BD21FA56
:1012100004F0294630BD94F0000F83F4801306BF1C
:1012200081F480110134013D4EE77FEA645C18BF10
:101230007FEA655C29D094EA050F08BF90EA020FA7
:1012400005D054EA000C04BF1946104630BD91EA9F
:10125000030F1EBF0021002030BD5FEA545C05D1A2
:101260004000494128BF41F0004130BD14F58004E1
:101270003CBF01F5801130BD01F0004545F0FE4155
:1012800041F470014FF0000030BD7FEA645C1ABF8A
:10129000194610467FEA655C1CBF0B46024650EAC1
:1012A000013406BF52EA033591EA030F41F40021ED
:1012B00030BD00BF90F0000F04BF0021704730B573
:1012C0004FF4806404F132044FF000054FF0000148
:1012D00050E700BF90F0000F04BF0021704730B509
:1012E0004FF4806404F1320410F0004548BF4042DE
:1012F0004FF000013EE700BF42004FEAE2014FEA33
:1013000031014FEA02701FBF12F07F4393F07F4F0D
:1013100081F06051704792F0000F14BF93F07F4F3F
:10132000704730B54FF4607401F0004521F0004182
:1013300020E700BF50EA010208BF704730B54FF008
:1013400000050AE050EA010208BF704730B511F00D
:10135000004502D5404261EB41014FF4806404F145
:1013600032045FEA915C3FF4DCAE4FF003025FEAC7
:10137000DC0C18BF03325FEADC0C18BF033202EB4F
:10138000DC02C2F1200300FA03FC20FA02F001FAA9
:1013900003FE40EA0E0021FA02F11444C1E600BF48
:1013A00070B54FF0FF0C4CF4E06C1CEA11541DBFFB
:1013B0001CEA135594EA0C0F95EA0C0F00F0DEF8C6
:1013C0002C4481EA030621EA4C5123EA4C5350EAAB
:1013D000013518BF52EA033541F4801143F48013FC
:1013E00038D0A0FB02CE4FF00005E1FB02E506F08D
:1013F0000042E0FB03E54FF00006E1FB03569CF0E2
:10140000000F18BF4EF0010EA4F1FF04B6F5007FE7
:1014100064F5407404D25FEA4E0E6D4146EB060659
:1014200042EAC62141EA55514FEAC52040EA5E50E2
:101430004FEACE2EB4F1FD0C88BFBCF5E06F1ED88C
:10144000BEF1004F08BF5FEA500E50F1000041EBC3
:10145000045170BD06F0004646EA010140EA020070
:1014600081EA0301B4EB5C04C2BFD4EB0C0541EA92
:10147000045170BD41F480114FF0000E013C00F3A7
:10148000AB8014F1360FDEBF002001F0004170BDCB
:10149000C4F10004203C35DA0C341BDC04F11404E4
:1014A000C4F1200500FA05F320FA04F001FA05F270
:1014B00040EA020001F0004221F0004110EBD3703D
:1014C00021FA04F642EB06015EEA430E08BF20EA69
:1014D000D37070BDC4F10C04C4F1200500FA04F30C
:1014E00020FA05F001FA04F240EA020001F000419E
:1014F00010EBD37041F100015EEA430E08BF20EA11
:10150000D37070BDC4F1200500FA05F24EEA020E58
:1015100020FA04F301FA05F243EA020321FA04F087
:1015200001F0004121FA04F220EA020000EBD3703E
:101530005EEA430E08BF20EAD37070BD94F0000F3E
:101540000FD101F00046400041EB010111F4801F72
:1015500008BF013CF7D041EA060195F0000F18BF23
:10156000704703F00046520043EB030313F4801F5F
:1015700008BF013DF7D043EA0603704794EA0C0F19
:101580000CEA135518BF95EA0C0F0CD050EA41062F
:1015900018BF52EA4306D1D181EA030101F00041AC
:1015A0004FF0000070BD50EA410606BF10461946D4
:1015B00052EA430619D094EA0C0F02D150EA0136E0
:1015C00013D195EA0C0F05D152EA03361CBF104621
:1015D00019460AD181EA030101F0004141F0FE41C0
:1015E00041F470014FF0000070BD41F0FE4141F444
:1015F000780170BD70B54FF0FF0C4CF4E06C1CEA44
:1016000011541DBF1CEA135594EA0C0F95EA0C0FF8
:1016100000F0A7F8A4EB050481EA030E52EA0335B3
:101620004FEA013100F088804FEA03334FF08055D4
:1016300045EA131343EA12634FEA022245EA111501
:1016400045EA10654FEA00260EF000419D4208BFB2
:10165000964244F1FD0404F5407402D25B084FEA5F
:101660003202B61A65EB03055B084FEA32024FF40B
:1016700080104FF4002CB6EB020E75EB030E22BF68
:10168000B61A754640EA0C005B084FEA3202B6EB28
:10169000020E75EB030E22BFB61A754640EA5C00D7
:1016A0005B084FEA3202B6EB020E75EB030E22BF67
:1016B000B61A754640EA9C005B084FEA3202B6EB68
:1016C000020E75EB030E22BFB61A754640EADC0027
:1016D00055EA060E18D04FEA051545EA16754FEA89
:1016E00006164FEAC30343EA52734FEAC2025FEAA7
:1016F0001C1CC0D111F4801F0BD141EA00014FF036
:1017000000004FF0004CB6E711F4801F04BF014306
:101710000020B4F1FD0C88BFBCF5E06F3FF6AFAE22
:10172000B5EB030C04BFB6EB020C5FEA500C50F1B2
:10173000000041EB045170BD0EF0004E4EEA113135
:1017400014EB5C04C2BFD4EB0C0541EA045170BD3C
:1017500041F480114FF0000E013C90E645EA060E80
:101760008DE60CEA135594EA0C0F08BF95EA0C0FAE
:101770003FF43BAF94EA0C0F0AD150EA01347FF4F6
:1017800034AF95EA0C0F7FF425AF104619462CE7CD
:1017900095EA0C0F06D152EA03353FF4FDAE104630
:1017A000194622E750EA410618BF52EA43067FF481
:1017B000C5AE50EA41047FF40DAF52EA43057FF411
:1017C000EBAE12E74A0011D212F5001211D20DD57C
:1017D0006FF47873B3EB62520ED44FEAC12343F037
:1017E000004343EA505323FA02F070474FF00000E1
:1017F000704750EA013002D14FF0FF3070474FF090
:10180000000070474FEA4102B2F1E04324BFB3F554
:10181000001CDCF1FE5C0DD901F0004C4FEAC00267
:101820004CEA5070B2F1004F40EB830008BF20F04B
:101830000100704711F0804F21D113F13872BCBF05
:1018400001F00040704741F480114FEA5252C2F15A
:101850001802C2F1200C10FA0CF320FA02F018BFA3
:1018600040F001004FEAC1234FEAD32303FA0CFCF6
:1018700040EA0C0023FA02F34FEA4303CCE77FEA85
:10188000625307D150EA01331EBF4FF0FE4040F4CF
:101890004000704701F0004040F0FE4040F400007E
:1018A000704700BF80F0004002E000BF81F00041BF
:1018B00042001FBF5FEA410392EA030F7FEA226CF6
:1018C0007FEA236C6AD04FEA1262D2EB1363C1BF86
:1018D000D218414048404140B8BF5B42192B88BFF5
:1018E000704710F0004F40F4000020F07F4018BF18
:1018F000404211F0004F41F4000121F07F4118BF38
:10190000494292EA030F3FD0A2F1010241FA03FCDF
:1019100010EB0C00C3F1200301FA03F100F00043C7
:1019200002D5494260EB4000B0F5000F13D3B0F18F
:10193000807F06D340084FEA310102F10102FE2AFE
:1019400051D2B1F1004F40EBC25008BF20F001006E
:1019500040EA03007047490040EB000010F4000F1C
:10196000A2F10102EDD1B0FA80FCACF1080CB2EBAF
:101970000C0200FA0CF0AABF00EBC250524218430E
:10198000BCBFD0401843704792F0000F81F40001B3
:1019900006BF80F400000132013BB5E74FEA410386
:1019A0007FEA226C18BF7FEA236C21D092EA030FF2
:1019B00004D092F0000F08BF0846704790EA010F6C
:1019C0001CBF0020704712F07F4F04D1400028BF99
:1019D00040F00040704712F100723CBF00F500007B
:1019E000704700F0004343F0FE4040F400007047B1
:1019F0007FEA226216BF08467FEA2363014642025D
:101A000006BF5FEA412390EA010F40F4800070476F
:101A10004FF0000304E000BF10F0004348BF404215
:101A20005FEA000C08BF704743F0964301464FF051
:101A300000001CE050EA010208BF70474FF00003AD
:101A40000AE000BF50EA010208BF704711F00043EE
:101A500002D5404261EB41015FEA010C02BF8446BE
:101A60000146002043F0B64308BFA3F18053A3F51D
:101A70000003BCFA8CF2083AA3EBC25310DB01FA64
:101A800002FC634400FA02FCC2F12002BCF1004FE8
:101A900020FA02F243EB020008BF20F00100704779
:101AA00002F1200201FA02FCC2F1200250EA4C00CD
:101AB00021FA02F243EB020008BF20EADC70704713
:101AC0004FF0FF0C1CEAD0521EBF1CEAD15392EA21
:101AD0000C0F93EA0C0F6FD01A4480EA010C4002FD
:101AE00018BF5FEA41211ED04FF0006343EA501057
:101AF00043EA5111A0FB01310CF00040B1F5000F99
:101B00003EBF490041EAD3715B0040EA010062F147
:101B10007F02FD2A1DD8B3F1004F40EBC25008BF31
:101B200020F00100704790F0000F0CF0004C08BF4F
:101B300049024CEA502040EA51207F3AC2BFD2F11C
:101B4000FF0340EAC250704740F400004FF000032A
:101B5000013A5DDC12F1190FDCBF00F00040704764
:101B6000C2F10002410021FA02F1C2F1200200FAA2
:101B700002FC5FEA310040F1000053EA4C0308BF69
:101B800020EADC70704792F0000F00F0004C02BFBA
:101B9000400010F4000F013AF9D040EA0C0093F035
:101BA000000F01F0004C02BF490011F4000F013B8F
:101BB000F9D041EA0C018FE70CEAD15392EA0C0FFD
:101BC00018BF93EA0C0F0AD030F0004C18BF31F068
:101BD000004CD8D180EA010000F00040704790F03E
:101BE000000F17BF90F0004F084691F0000F91F0E2
:101BF000004F14D092EA0C0F01D142020FD193EAA8
:101C00000C0F03D14B0218BF084608D180EA01002F
:101C100000F0004040F0FE4040F40000704740F00B
:101C2000FE4040F4400070474FF0FF0C1CEAD052D9
:101C30001EBF1CEAD15392EA0C0F93EA0C0F69D035
:101C4000A2EB030280EA010C49024FEA402037D0A0
:101C50004FF0805343EA111143EA10130CF0004097
:101C60008B4238BF5B0042F17D024FF4000C8B4287
:101C700024BF5B1A40EA0C00B3EB510F24BFA3EB67
:101C8000510340EA5C00B3EB910F24BFA3EB910337
:101C900040EA9C00B3EBD10F24BFA3EBD10340EA91
:101CA000DC001B0118BF5FEA1C1CE0D1FD2A3FF6D7
:101CB00050AF8B4240EBC25008BF20F0010070478C
:101CC0000CF0004C4CEA50207F32C2BFD2F1FF032F
:101CD00040EAC250704740F400004FF00003013A60
:101CE00037E792F0000F00F0004C02BF400010F404
:101CF000000F013AF9D040EA0C0093F0000F01F018
:101D0000004C02BF490011F4000F013BF9D041EA39
:101D10000C0195E70CEAD15392EA0C0F08D142026C
:101D20007FF47DAF93EA0C0F7FF470AF084676E73F
:101D300093EA0C0F04D14B023FF44CAF08466EE718
:101D400030F0004C18BF31F0004CCAD130F00042E6
:101D50007FF45CAF31F000437FF43CAF5FE700BF3E
:101D60004FF0FF3C06E000BF4FF0010C02E000BF67
:101D70004FF0010C4DF804CD4FEA40024FEA410309
:101D80007FEA226C18BF7FEA236C11D001B052EABF
:101D9000530C18BF90EA010F58BFB2EB030088BF85
:101DA000C81738BF6FEAE17018BF40F001007047F4
:101DB0007FEA226C02D15FEA402C05D17FEA236CD6
:101DC000E4D15FEA412CE1D05DF8040B704700BF1D
:101DD000844608466146FFE70FB5FFF7C9FF0028B4
:101DE00048BF10F1000F0FBD4DF808EDFFF7F4FFED
:101DF0000CBF012000205DF808FB00BF4DF808ED86
:101E0000FFF7EAFF34BF012000205DF808FB00BFA8
:101E10004DF808EDFFF7E0FF94BF012000205DF8CA
:101E200008FB00BF4DF808EDFFF7D2FF94BF01207B
:101E300000205DF808FB00BF4DF808EDFFF7C8FF74
:101E400034BF012000205DF808FB00BF30B589B029
:101E5000002404940594069407941C4B9A6942F05C
:101E600010029A619A6902F010020092009A9A692F
:101E700042F020029A619A6902F020020192019ACE
:101E80009A6942F004029A619A6902F0040202928D
:101E9000029A9A6942F008029A619B6903F008036A
:101EA0000393039B0A4D22460321284601F092FB2F
:101EB000032304930123059306940223079304A9A3
:101EC000284601F08FFA09B030BD00BF0010024073
:101ED000000C014070B584B0002501950295039572
:101EE0000B4C0C4B2360A560257325754FF46023C4
:101EF000E361656001262661204600F0E1FC019562
:101F00000296039501A9204600F062FB04B070BD63
:101F1000A80100200024014008B50E480E4B0360C4
:101F20004FF4827343604FF4004383600023C36027
:101F300002220261012242614FF400728261082292
:101F4000C2610362436283620A23C36201F0FDFB44
:101F500008BD00BF180200200030014008B5084845
:101F6000084B03604FF4E123436000238360C360A8
:101F700003610C2242618361C36101F08DFD08BDE4
:101F8000D80100200038014008B50848084B03601C
:101F90004FF49653436000238360C36003610C22B7
:101FA00042618361C36101F077FD08BD70020020CA
:101FB0000044004030B595B0282200210DEB02000E
:101FC000FEF720F9002405940694079408940994D8
:101FD000019402940394049401220A924FF48033F2
:101FE0000B930E920225119512934FF4E013139365
:101FF0000AA800F0D7FD0F230593069507944FF428
:10200000806308930994294605A801F009F8019511
:102010004FF40043039301A801F0DCF815B030BD84
:1020200070B50646104C80252A4600212046FEF752
:10203000E9F84023237066700C4E002201213046DF
:1020400001F0C8FA4FF0FF3302222146084801F0A0
:10205000BAFB01221146304601F0BCFA2A460021A3
:102060002046FEF7CFF870BD1C010020000C014097
:102070001802002070B582B0ADF80600BDF8063039
:102080009BB2B3F5805F03D340F6FF73ADF8063023
:10209000144C80252A4600212046FEF7B3F8BDF8EF
:1020A0000630C3F3032343F070032370BDF80630FA
:1020B00063700D4E00220221304601F08BFA4FF082
:1020C000FF3302222146094801F07DFB0122022153
:1020D000304601F07FFA2A4600212046FEF792F8AA
:1020E00002B070BD1C010020000C0140180200204D
:1020F00070B582B000F008FDFFF75CFFFFF7A6FEA9
:10210000FFF7E8FEFFF708FFFFF728FFFFF73CFFA8
:10211000474800F05DFC6BE0464A1378013BDBB2B8
:102120001370444B1B7863B1424B1B78DBB2424ABD
:10213000D05CFFF771FC01462046FFF77DFE0028CA
:10214000EAD03C4C2078FFF76BFF2378DBB23A4DA6
:102150003A4A1668E85CFFF75FFC3146FFF7B0FCCF
:1021600006462378DBB2E85C0138FFF755FC0146F0
:102170003046FFF759FD3249FFF7A2FC3149FFF71E
:1021800053FDFFF7B9F8FEF7F5FEFFF71BFB80B232
:10219000FFF770FF264800F0F7FA4FF0FF312448B0
:1021A00000F05AF90028F8D1214800F00DFA80B269
:1021B000254C208000F0C6FC23889BB2234C009362
:1021C0000346234A23492046FEF78CF82046FEF7B3
:1021D000AFF84FF0FF3382B221461F4801F08BFC6D
:1021E000802200212046FEF70DF8052000F0B0FC0B
:1021F0001A4B1B78002BCDD0194B18680F4B196860
:10220000FFF754FBFFF778F802460B4606A1D1E929
:102210000001FFF7EFF9FFF7F5FA04460722054B37
:102220001A707EE7AFF300806666666666660A40EF
:10223000A8010020A0010020BC3C00089C01002057
:1022400000F07F4533335340A20100209C00002062
:10225000B03C0008C43C0008D8010020A4010020C4
:10226000640000207047FEE7FEE7FEE7FEE77047E8
:102270007047704708B500F059FC08BD82B00E4B9E
:102280009A6942F001029A619A6902F00102009291
:10229000009ADA6942F08052DA61DB6903F0805318
:1022A0000193019B054A536823F0E06343F00073F8
:1022B000536002B0704700BF0010024000000140B0
:1022C00000B587B00023029303930493059302683B
:1022D000114B9A4202D007B05DF804FB03F56C4342
:1022E0009A6942F400729A619A6902F4007200924B
:1022F000009A9A6942F004029A619B6903F0040310
:102300000193019B012302930323039302A9034832
:1023100001F068F8DFE700BF002401400008014039
:1023200000B587B0002302930393049305930268DA
:10233000124B9A4202D007B05DF804FB03F56043EC
:102340009A6942F480529A619A6902F4805200922A
:10235000009A9A6942F004029A619B6903F00403AF
:102360000193019BA023029302230393032305936C
:1023700002A9034801F036F8DDE700BF0030014054
:102380000008014010B588B000230493059306931C
:10239000079303682C4A934204D02C4A93422BD0D3
:1023A00008B010BD2A4B9A6942F480429A619A693A
:1023B00002F480420092009A9A6942F004029A6103
:1023C0009B6903F004030193019B4FF40073049392
:1023D00002230593032307931E4C04A9204601F012
:1023E00001F84FF48063049300230593069304A936
:1023F000204600F0F7FFD3E7154BDA6942F40032CC
:10240000DA61DA6902F400320292029A9A6942F0C1
:1024100004029A619B6903F004030393039B042362
:10242000049302230593032307930A4C04A920462F
:1024300000F0D8FF0823049300230593069304A912
:10244000204600F0CFFFABE70038014000440040D9
:102450000010024000080140F0B583B005460C466C
:102460000023019300F06EFB2B689A6812F4807FC2
:1024700023D106465A6812F4807F03D1DB6A13F435
:10248000700F24D04B4B1F68022000F02DFFB7FBCC
:10249000F0F72B681969484A11422FD1D96802F127
:1024A0005C4211422AD11969444A114239D1DA6891
:1024B000434B1A4237D029203AE0AB6A43F020035D
:1024C000AB62002385F82430012003B0F0BD2B68F7
:1024D0001B6813F0020F48D1B4F1FF3FF7D024B1CD
:1024E00000F030FB801B8442F1D2AB6A43F004035E
:1024F000AB62002385F824300320E6E719692F4AF0
:10250000114204D1D96802F16E4211420DD019690D
:102510002C4A0A405AB9DA682A4B13405BB1FC20B6
:1025200006E0292004E0142002E0542000E0FC2012
:1025300007FB00F704E05420FAE7019B0133019305
:10254000019B9F4211D9B4F1FF3FF6D024B100F0B6
:10255000F9FA801B8442F0D2AB6A43F00403AB6209
:10256000002385F824300320AFE72B686FF01202B8
:102570001A60AB6A43F40073AB622B689B6803F488
:102580006023B3F5602F01D000209EE72B7B6BB951
:10259000AB6A23F48073AB62AB6A13F4805F07D13C
:1025A000AB6A43F00103AB6200208EE700208CE7AA
:1025B00000208AE7700000202449922492244912C6
:1025C00092244900499224000368D86C70470000A7
:1025D00030B482B00023019390F82430012B00F036
:1025E0008B800246012380F824304B68062B29D8C3
:1025F0000568686B03EB8303053B1F249C4020EABE
:1026000004000C6804FA03F303436B630B68092BA3
:1026100038D91568E86803EB43031E3B07249C4048
:1026200020EA04008C6804FA03F30343EB600B68B0
:10263000103B012B34D90020002382F8243002B053
:1026400030BC70470C2B0ED80568286B03EB830356
:10265000233B1F249C4020EA04000C6804FA03F387
:1026600003432B63D2E70568E86A03EB8303413B2E
:102670001F249C4020EA04000C6804FA03F303437F
:10268000EB62C3E71568286903EB430307249C400A
:1026900020EA04008C6804FA03F303432B61C6E7C5
:1026A00013681648834205D0936A43F0200393626F
:1026B0000120C1E7986810F4000F1BD1986840F41E
:1026C000000098600B68102B01D00020B4E70C4B81
:1026D0001B680C49A1FB03139B0C03EB83035900FC
:1026E000019102E0019B013B0193019B002BF9D179
:1026F0000020A1E700209FE70220A0E7002401407E
:102700007000002083DE1B4330B583B000230193AB
:1027100003689A6812F0010F2ED19A6842F0010204
:102720009A60174B1B68174AA2FB03239B0C01936B
:1027300002E0019B013B0193019B002BF9D1044670
:1027400000F000FA054623689B6813F0010F11D1D1
:1027500000F0F8F9401B0228F5D9A36A43F01003F2
:10276000A362E36A43F00103E362002384F82430A8
:10277000012002E0002000E0002003B030BD00BFD7
:102780007000002083DE1B4390F82430012B02D11F
:1027900002231846704710B50446012380F8243000
:1027A000FFF7B2FF034600285BD1A26A22F4407211
:1027B00022F0010242F48072A26222682B498A420E
:1027C00027D0A16A21F48011A162516811F4806FB1
:1027D00005D0A16A21F4405141F48051A162A16A5F
:1027E00011F4805F2BD0E16A21F00601E162002143
:1027F00084F824106FF0020111602268916801F4DE
:102800006021B1F5602F1DD0916841F48011916075
:102810002AE0A1F58061496811F4702FD1D0A16A36
:1028200041F48011A1621249496811F4806FD6D039
:10283000A16A21F4405141F48051A162CFE7002107
:10284000E162D4E709498A4204D0916841F4A001C9
:10285000916009E0A1F58061496811F4702FD3D12E
:10286000F3E7002284F82420184610BD0028014018
:102870000024014038B503689A6812F0010F01D1B5
:10288000002038BD04469A6822F001029A6000F0E8
:1028900059F9054623689B6813F0010F0ED000F02C
:1028A00051F9401B0228F5D9A36A43F01003A36233
:1028B000E36A43F00103E362012038BD002038BD24
:1028C00000287FD038B50446836A002B4AD02046C2
:1028D000FFF7D0FFA36A13F010036DD100286BD16E
:1028E000A26A22F4885222F0020242F00202A2629C
:1028F0006268E1690A43257B42EA4502A168B1F5B5
:10290000807F38D0012933D0217D012936D0256838
:10291000696821F469410B436B6021688D682A4B1B
:102920002B4013438B60A368B3F5807F37D0012B16
:1029300035D000232568E96A21F470010B43EB626E
:1029400023689968214B0B409A422CD0A36A23F04C
:10295000120343F01003A362E36A43F00103E3624E
:10296000012038BDC36280F82430FFF7A9FCAEE730
:102970004FF48073C8E74FF48073C5E735B9A16998
:10298000013943EA413343F40063C0E7A16A41F0EF
:102990002001A162E16A41F00101E162B7E7236928
:1029A000013B1B05C6E70023E362A36A23F0030390
:1029B00043F00103A36238BDA36A43F01003A3628E
:1029C000012038BD01207047FDF7E1FFFE0E1FFF1B
:1029D00070B582B00023019390F82430012B03D10D
:1029E0000225284602B070BD0446012380F8243039
:1029F000FFF740FF054618B1002384F82430F0E7C4
:102A0000A36A23F4885323F0020343F00203A36272
:102A1000294B1E68022000F067FCB6FBF0F0400076
:102A2000019002E0019B013B0193019B002BF9D136
:102A30002046FFF769FE2268936843F0080393601D
:102A400000F080F8064623689A6812F0080F0FD04D
:102A500000F078F8801B0A28F5D9A36A23F0120346
:102A600043F01003A362002384F824300125B8E763
:102A70009A6842F004029A6000F064F806462368FF
:102A80009B6813F0040F0FD000F05CF8801B0A283D
:102A9000F5D9A36A23F0120343F01003A3620023C5
:102AA00084F8243001259CE7A36A23F0030343F054
:102AB0000103A362A0E700BF7000002010B5044628
:102AC0000E4B18784FF47A73B3FBF0F30C4A10688E
:102AD000B0FBF3F000F0C8FD68B90F2C01D901205C
:102AE00010BD002221464FF0FF3000F08BFD054B5A
:102AF0001C60002010BD012010BD00BF6800002038
:102B0000700000206C00002008B5074A136843F0ED
:102B100010031360032000F063FD0020FFF7CEFFD9
:102B2000FFF7ACFB002008BD00200240034A1168FB
:102B3000034B1B780B441360704700BFB0020020AA
:102B400068000020014B1868704700BFB0020020E9
:102B500038B50446FFF7F6FF0546B4F1FF3F02D053
:102B6000044B1B781C44FFF7EDFF401B8442FAD84E
:102B700038BD00BF6800002082B0084B1B68084ABF
:102B8000A2FB03235B0A00FB03F0019000BF019B43
:102B90005A1E0192002BF9D102B07047700000203C
:102BA000D34D6210002800F0F58170B582B0044664
:102BB000036813F0010F3DD0AB4B5B6803F00C03CF
:102BC000042B2ED0A84B5B6803F00C03082B23D0FA
:102BD0006368B3F5803F51D0002B55D103F180439A
:102BE00003F504331A6822F480321A601A6822F45A
:102BF00080221A606368002B60D0FFF7A3FF0546B0
:102C0000994B1B6813F4003F14D1FFF79BFF401B47
:102C10006428F5D90320C2E1934B5B6813F4803F2D
:102C2000D6D0914B1B6813F4003F03D06368002B90
:102C300000F0B281236813F0020F65D08A4B5B6805
:102C400013F00C0F4ED0884B5B6803F00C03082B7D
:102C500043D02369002B79D00122844B1A60FFF7FF
:102C600071FF0546804B1B6813F0020F65D1FFF71B
:102C700069FF401B0228F5D9032090E17A4A1368C6
:102C800043F480331360B5E7B3F5A02F09D0764B3A
:102C90001A6822F480321A601A6822F480221A60BC
:102CA000A8E703F18043A3F53C331A6842F480227D
:102CB0001A601A6842F480321A609BE7FFF742FFFD
:102CC0000546694B1B6813F4003FB3D0FFF73AFF8A
:102CD000401B6428F5D9032061E1634B5B6813F462
:102CE000803FB6D1604B1B6813F0020F04D02369FC
:102CF000012B01D0012052E15B4A136823F0F80355
:102D0000616943EAC1031360236813F0080F32D0EE
:102D1000A369002B6ED00122554B1A60FFF712FFFA
:102D20000546514B5B6A13F0020F21D1FFF70AFFF2
:102D3000401B0228F5D9032031E14B4A136823F0E8
:102D4000F803616943EAC1031360DDE70022474BE2
:102D50001A60FFF7F7FE0546434B1B6813F0020F9E
:102D6000D2D0FFF7EFFE401B0228F5D9032016E171
:102D70000120FFF701FF236813F0040F00F0988093
:102D8000394BDB6913F0805F46D1374BDA6942F08B
:102D90008052DA61DB6903F080530193019B0125C6
:102DA000344B1B6813F4807F38D0E368012B49D083
:102DB000002B4DD103F1804303F504331A6A22F04E
:102DC00001021A621A6A22F004021A62E368002BF6
:102DD0005CD0FFF7B7FE0646234B1B6A13F0020FC9
:102DE00065D1FFF7AFFE801B41F288339842F3D9DB
:102DF0000320D4E000221E4B1A60FFF7A3FE054615
:102E0000194B5B6A13F0020FB5D0FFF79BFE401B16
:102E10000228F5D90320C2E00025C1E7154A13684E
:102E200043F480731360FFF78DFE0646114B1B6859
:102E300013F4807FB9D1FFF785FE801B6428F5D994
:102E40000320ACE0084A136A43F001031362BDE7B4
:102E5000052B11D0044B1A6A22F001021A621A6A79
:102E600022F004021A62B1E7001002400000424260
:102E700080044242007000404C4B1A6A42F0040247
:102E80001A621A6A42F001021A629FE7FFF75AFEBD
:102E90000646464B1B6A13F0020F08D0FFF752FE9E
:102EA000801B41F288339842F3D9032077E0E5B9DB
:102EB000E369002B72D03D4A526802F00C02082AE6
:102EC00056D0022B17D00022394B1A60FFF73AFE7A
:102ED0000446364B1B6813F0007F47D0FFF732FEE5
:102EE000001B0228F5D9032059E0304AD36923F0AA
:102EF0008053D361DCE700222D4B1A60FFF722FEDE
:102F000005462A4B1B6813F0007F06D0FFF71AFE18
:102F1000401B0228F5D9032041E0236AB3F5803F26
:102F20001AD022494B6823F47413226A606A024360
:102F300013434B6001221E4B1A60FFF703FE044649
:102F40001A4B1B6813F0007F0ED1FFF7FBFD001B2F
:102F50000228F5D9032022E0144A536823F40033F1
:102F6000A1680B435360DCE7002018E0002016E066
:102F7000012B16D00D4B5B6803F48031226A91421D
:102F800001D001200BE003F47013626A93420AD06F
:102F9000012004E001207047012000E0002002B081
:102FA00070BD0120FBE70020F9E700BF00100240E0
:102FB0006000424210B586B0154C94E80F000DF148
:102FC000180E0EE90F00238AADF80430114B5B6830
:102FD00003F00C02082A18D1C3F38342724412F89A
:102FE000102C13F4803F03D10B4800FB02F00DE0DE
:102FF000084B5B68C3F34043734413F8143C074821
:1030000000FB02F0B0FBF3F000E0044806B010BD96
:10301000883C00080010024000093D0000127A00C0
:10302000002800F0A38070B50446524B1B6803F0E3
:1030300007038B420CD24F4A136823F007030B435C
:103040001360136803F00703994201D0012070BD9B
:10305000236813F0020F17D013F0040F04D0464A70
:10306000536843F4E0635360236813F0080F04D0FF
:10307000414A536843F4605353603F4A536823F016
:10308000F003A068034353600D46236813F0010F5B
:1030900031D06368012B20D0022B25D0364A12682C
:1030A00012F0020F64D034494A6822F0030213433D
:1030B0004B60FFF747FD06462F4B5B6803F00C03A0
:1030C0006268B3EB820F16D0FFF73CFD801B41F224
:1030D00088339842F0D9032070BD274A126812F451
:1030E000003FE0D1012070BD234A126812F0007F3A
:1030F000D9D1012070BD1F4B1B6803F007039D420F
:103100000CD21C4A136823F007032B431360136887
:1031100003F007039D4201D0012070BD236813F026
:10312000040F06D0144A536823F4E063E1680B43AC
:103130005360236813F0080F07D00F4A536823F435
:103140006053216943EAC1035360FFF733FF0A4B21
:103150005B68C3F30313094AD35CD840084B18607B
:10316000084B1868FFF7AAFC002070BD01207047CB
:10317000012070BD0020024000100240F83C000811
:10318000700000206C000020014B1868704700BFE1
:103190007000002008B5FFF7F7FF044B5B68C3F32E
:1031A0000223034AD35CD84008BD00BF0010024090
:1031B000083D000808B5FFF7E7FF044B5B68C3F361
:1031C000C223034AD35CD84008BD00BF00100240B0
:1031D000083D000870B582B00446036813F0010F83
:1031E00034D03E4BDB6913F0805F48D13B4BDA694A
:1031F00042F08052DA61DB6903F080530193019B56
:103200000125374B1B6813F4807F3AD0334B1B6A80
:1032100013F4407311D0626802F4407293420CD0F0
:103220002E4A136A23F440702E4901260E600026B0
:103230000E60106213F0010F37D1284A136A23F48D
:10324000407361680B431362002D3FD1236813F074
:10325000020F06D0214A536823F44043A1680B4370
:103260005360236813F0100F35D01C4A536823F4C1
:103270008003E1680B435360002002B070BD00255D
:10328000BFE7174A136843F480731360FFF75AFCD3
:103290000646134B1B6813F4807FB7D1FFF752FC2F
:1032A000801B6428F5D90320E7E7FFF74BFC0646AF
:1032B0000A4B1B6A13F0020FBFD1FFF743FC801BC0
:1032C00041F288339842F3D90320D6E7D36923F03B
:1032D0008053D361BAE70020CFE700BF001002405F
:1032E000007000404004424230B587B00546384C7B
:1032F00094E80F000DF1180E0EE90F00238AADF8C7
:103300000430022D53D0102D03D0012D2BD00020DE
:1033100057E0304B5A681B6813F0807F53D0C2F3DC
:10332000834306A90B4413F8100C12F4803F16D007
:10333000284B5B68C3F340430B4413F8142C264B13
:10334000B3FBF2F303FB00F0224B5B6813F4800F36
:1033500037D14000214BA3FB0030400831E0204B27
:1033600003FB00F0F0E71B4B1B6A40F202321A40ED
:10337000B2F5817F29D003F44073B3F5007F04D008
:10338000B3F5407F09D000201BE0124A526A12F0C8
:10339000020FF5D049F6404013E00E4B1B6813F4C2
:1033A000003F02D04FF224400BE0002009E0FFF77D
:1033B00001FF084B5B68C3F3813301335B00B0FB53
:1033C000F3F007B030BD0020FBE74FF40040F8E712
:1033D0009C3C00080010024000127A00ABAAAAAA86
:1033E00000093D00F0B583B00026344671E0002DA1
:1033F00000F0A280012D00D1CE68FF2B00F2B0803A
:103400008646FF2B00F2AF80A500DEF800200F27D4
:10341000AF4022EA070206FA05F52A43CEF800205B
:103420004A6812F0805F53D0644A956945F00105FF
:103430009561926902F001020192019AA508AF1C00
:103440005F4A52F8272004F00307BF004FF00F0E29
:103450000EFA07FE22EA0E02DFF874E1704500F072
:1034600089800EF5806E704500F087800EF5806EC5
:10347000704500F085800EF5806E704577D04FF076
:10348000040E0EFA07F73A4302354D4F47F8252050
:103490004A6812F4803F76D04A4D2A681A432A605F
:1034A0004A6812F4003F74D0464D6A681A436A6055
:1034B0004A6812F4801F72D0424DAA681A43AA606B
:1034C0004A6812F4001F70D03E4DEA681343EB6067
:1034D00001340B6833FA04F26DD00122A24013408C
:1034E0009A42F5D14D68122D30D00BD8022D2AD03A
:1034F0007FF67DAF032D2FD0112D7FF47EAFCE68E8
:1035000004367AE7304FBD4216D00CD92F4FBD425A
:1035100012D007F58037BD420ED0A7F58017BD4207
:103520007FF46BAF08E0A7F58017BD4204D007F524
:103530008037BD427FF461AF8D687DB1012D08D029
:103540004261082659E7CE68083656E7CE680C3641
:1035500053E70261082650E700264EE704264CE7B1
:1035600000F1040E4DE7A4F10805AD004DE74FF062
:10357000030E86E74FF0000E83E74FF0010E80E761
:103580004FF0020E7DE70F4D2A6822EA03022A60FF
:1035900086E70C4D6A6822EA03026A6088E7094DF3
:1035A000AA6822EA0302AA608AE7064DEA6822EACC
:1035B0000303EB608CE703B0F0BD00BF00100240D6
:1035C0000000014000040140000021100000311003
:1035D0000008014012B90904016170470161704798
:1035E000074AD36823F4E0631B041B0C000200F4B9
:1035F000E060184340F0BF6040F40030D060704796
:1036000000ED00E030B4164BDB68C3F30223C3F1D6
:103610000704042C28BF04241D1D062D17D9033BC5
:10362000012505FA04F4013C2140994005FA03F311
:10363000013B1340194300280BDB0901C9B200F11B
:10364000604000F5614080F8001330BC70470023F3
:10365000E6E700F00F000901C9B2024B1954F4E784
:1036600000ED00E014ED00E00138B0F1807F0AD2F7
:10367000064B5860F021064A82F82310002098601B
:1036800007221A6070470120704700BF10E000E079
:1036900000ED00E0F8B505460F4616461C462B68BF
:1036A0009B6837EA03030CBF01230023B34237D0E2
:1036B000B4F1FF3FF3D0FFF745FA069BC01A8442EE
:1036C00001D9002CEBD12A68536823F0E003536042
:1036D0006B68B3F5827F0BD0AB6AB3F5005F14D093
:1036E000012385F85130002385F850300320F8BDC0
:1036F000AB68B3F5004F02D0B3F5806FECD12A6808
:10370000136823F040031360E6E72A68136823F484
:10371000005313602A68136843F400531360DFE713
:103720000020F8BD10B582B0044600920B4600227E
:103730008021FFF7AFFF034620B1636D43F0200304
:1037400063650323184602B010BD002839D010B5B8
:1037500004460023836290F85130002B2CD00223C2
:1037600084F851302268136823F040031360226804
:103770006368A1680B43E1680B4321690B436169EE
:103780000B43A16901F400710B43E1690B43216A0A
:103790000B43A16A0B4313602268638B03F004039D
:1037A00053602268D36923F40063D361002060650D
:1037B000012384F8513010BD80F85030FEF7B0FD81
:1037C000CDE7012070472DE9F04182B090F85040DC
:1037D000012C03D1022002B0BDE8F0811D4617463E
:1037E00088460446012380F85030FFF7ABF90646BF
:1037F00094F85130DBB2012B07D00220012384F86A
:103800005130002384F85030E5E7B8F1000F00F0A4
:103810009C80002F00F09B80032384F8513000230C
:103820006365C4F83080A786E786A363A387E38730
:1038300063642364A368B3F5004F1DD023681A683E
:1038400012F0400F03D11A6842F040021A60E36898
:10385000B3F5006F16D063680BB1012F4CD123680C
:10386000226B12781A73236B01332363E38E9BB2AE
:10387000013B9BB2E3863FE02268136843F4804338
:103880001360DBE763680BB1012F16D12368226B4D
:103890001288DA60236B02332363E38E9BB2013B11
:1038A0009BB2E38609E0FFF74DF9801BA84202D3E3
:1038B000B5F1FF3F4DD1002D4DD0E38E9BB2002BD3
:1038C0002ED023689A6812F0020FECD0226B128877
:1038D000DA60236B02332363E38E9BB2013B9BB21E
:1038E000E386EAE7FFF72EF9801B854202D8B5F19F
:1038F000FF3F32D1002D32D0E28E92B282B12368E6
:103900009A6812F0020FEDD0226B12781A73236BB3
:1039100001332363E28E92B2013A92B2E286EBE780
:10392000324629462046FFF7FDFE08B12023636595
:10393000A36833B901932368DA6801929B68019305
:10394000019B636D6BB9002058E7012056E7012009
:1039500054E7032052E7032050E703204EE70320FB
:103960004CE701204AE7000038B5044602681369B5
:1039700023F44053C1680B43136183680269134306
:10398000426913430168CA6822F4B05222F00C0263
:103990001343CB600268536923F4407381690B437E
:1039A00053610268214B9A421FD0FFF7F3FB216855
:1039B00000EB800000EB800063689B00B0FBF3F03D
:1039C0001B4DA5FB00325409642202FB14021301B3
:1039D0003233A5FB03235B0903F0F00202EB041270
:1039E00003F00F0313448B6038BDFFF7E3FB21683E
:1039F00000EB800000EB800063689B00B0FBF3F0FD
:103A00000B4DA5FB00325409642202FB1402130182
:103A10003233A5FB03235B0903F0F00202EB04122F
:103A200003F00F0313448B6038BD00BF0038014022
:103A30001F85EB512DE9F04105460F461646984685
:103A4000069C2B681B6837EA03030CBF0123002385
:103A5000B3421ED1B4F1FF3FF3D02CB1FFF772F89F
:103A6000A0EB08008442ECD22A68D36823F4D07318
:103A7000D3602A68536923F001035361202385F83A
:103A8000393085F83A30002385F838300320BDE816
:103A9000F0810020BDE8F08158B310B5044690F8DD
:103AA00039300BB3242384F839302268D36823F4E7
:103AB0000053D3602046FFF757FF2268136923F4B1
:103AC000904313612268536923F02A0353612268EB
:103AD000D36843F40053D3600020E063202384F8CC
:103AE000393084F83A3010BD80F83830FEF74AFC9F
:103AF000D8E7012070472DE9F04182B01E4690F8CA
:103B00003930DBB2202B04D00223184602B0BDE8C6
:103B1000F08104460D469046002955D0002A55D024
:103B200090F83830012B01D10223EEE7012380F811
:103B300038300023C363212380F83930FFF702F8BF
:103B40000746A4F82480A4F8268010E000963B469F
:103B5000002280212046FFF76DFF002838D122681F
:103B60002B88C3F3080353602369CBB90235E38C78
:103B70009BB2BBB1E38C9BB2013B9BB2E384A368D5
:103B8000B3F5805FE2D000963B46002280212046BC
:103B9000FFF750FFF0B923682A785A600135E6E74D
:103BA0000135E4E700963B46002240212046FFF71E
:103BB00041FF034608B10323A7E7202284F83920F8
:103BC000002284F83820A0E701239EE701239CE728
:103BD00003239AE7032398E70F4B1A6842F0010288
:103BE0001A6059680D4A0A405A601A6822F08472B5
:103BF00022F480321A601A6822F480221A605A680D
:103C000022F4FE025A604FF41F029A604FF00062E5
:103C1000034B9A60704700BF001002400000FFF89D
:103C200000ED00E0002103E00B4B5B5843500431F2
:103C30000A480B4B42189A42F6D30A4A02E0002384
:103C400042F8043B084B9A42F9D3FFF7C5FFFCF753
:103C5000B1FAFEF74DFA7047583D00080000002009
:103C60007400002074000020B8020020FEE700006D
:103C7000F8B500BFF8BC08BC9E467047F8B500BF59
:083C8000F8BC08BC9E46704729
:103C880002030405060708090A0B0C0D0E0F101095
:103C98000102000002030405060708090A0B0C0DBF
:103CA8000E0F1010010200004C6967687453656EAE
:103CB800736F720001020405080A10207B2022633A
:103CC80068616E6E656C22203A20222573222C20B2
:103CD8002274696D6522203A2025642C20227661A1
:103CE8006C756522203A202564207D0A0D000000AD
:103CF8000000000000000000010203040607080994
:103D0800000000000102030443000000232D302BB3
:103D180020000000686C4C00656667454647000057
:103D280030313233343536373839414243444546E9
:103D380000000000303132333435363738396162AB
:083D48006364656600000000E1
:043D50007D010008E9
:043D5400550100080D
:103D58000400002000000000000000000000000037
:103D6800000000000000000000000000000000004B
:103D780000000000103D00080000000000000000E6
:103D8800000000000000000000000000000000002B
:103D9800000000000000000000000000000000001B
:103DA800000000000000000000000000000000000B
:103DB80000000000333353400100000010000000F1
:043DC8000024F400DF
:0400000508003C258E
:00000001FF
