:020000040800F2
:1000000000500020C92F00082D1400082F140008EC
:1000100031140008331400083514000800000000F3
:10002000000000000000000000000000371400087D
:1000300039140008000000003B1400083D140008BB
:10004000113000081130000811300008113000088C
:10005000113000081130000811300008113000087C
:10006000113000081130000811300008113000086C
:10007000113000081130000811300008113000085C
:10008000113000081130000811300008113000084C
:10009000113000081130000811300008113000083C
:1000A000113000081130000811300008113000082C
:1000B000113000081130000811300008113000081C
:1000C000113000081130000811300008113000080C
:1000D00011300008113000081130000811300008FC
:1000E0001130000811300008113000080000000035
:1000F0000000000000000000000000000000000000
:0C01000000000000000000005FF808F1A3
:1001100010B5054C237833B9044B13B10448AFF341
:1001200000800123237010BD740000200000000037
:100130006839000808B5034B1BB103490348AFF306
:10014000008008BD00000000780000206839000829
:10015000034613F8012B002AFBD1181A0138704707
:1001600081F0004102E000BF83F0004330B54FEA68
:1001700041044FEA430594EA050F08BF90EA020FD5
:100180001FBF54EA000C55EA020C7FEA645C7FEA68
:10019000655C00F0E2804FEA5454D4EB5555B8BF8B
:1001A0006D420CDD2C4480EA020281EA030382EAFC
:1001B000000083EA010180EA020281EA0303362D8E
:1001C00088BF30BD11F0004F4FEA01314FF4801C61
:1001D0004CEA113102D0404261EB410113F0004F73
:1001E0004FEA03334CEA133302D0524263EB43032A
:1001F00094EA050F00F0A780A4F10104D5F1200EC8
:100200000DDB02FA0EFC22FA05F2801841F1000122
:1002100003FA0EF2801843FA05F359410EE0A5F1F6
:1002200020050EF1200E012A03FA0EFC28BF4CF027
:10023000020C43FA05F3C01851EBE37101F00045DD
:1002400007D54FF0000EDCF1000C7EEB00006EEBEA
:100250000101B1F5801F1BD3B1F5001F0CD3490874
:100260005FEA30004FEA3C0C04F101044FEA4452CB
:1002700012F5800F80F09A80BCF1004F08BF5FEA52
:10028000500C50F1000041EB045141EA050130BD32
:100290005FEA4C0C404141EB010111F4801FA4F1D5
:1002A0000104E9D191F0000F04BF01460020B1FA2A
:1002B00081F308BF2033A3F10B03B3F120020CDA62
:1002C0000C3208DD02F1140CC2F10C0201FA0CF040
:1002D00021FA02F10CE002F11402D8BFC2F1200CA5
:1002E00001FA02F120FA0CFCDCBF41EA0C0190405B
:1002F000E41AA2BF01EB0451294330BD6FEA0404A4
:100300001F3C1CDA0C340EDC04F11404C4F120028E
:1003100020FA04F001FA02F340EA030021FA04F3A0
:1003200045EA030130BDC4F10C04C4F1200220FAF7
:1003300002F001FA04F340EA0300294630BD21FA35
:1003400004F0294630BD94F0000F83F4801306BFFB
:1003500081F480110134013D4EE77FEA645C18BFEF
:100360007FEA655C29D094EA050F08BF90EA020F86
:1003700005D054EA000C04BF1946104630BD91EA7E
:10038000030F1EBF0021002030BD5FEA545C05D181
:100390004000494128BF41F0004130BD14F58004C0
:1003A0003CBF01F5801130BD01F0004545F0FE4134
:1003B00041F470014FF0000030BD7FEA645C1ABF69
:1003C000194610467FEA655C1CBF0B46024650EAA0
:1003D000013406BF52EA033591EA030F41F40021CC
:1003E00030BD00BF90F0000F04BF0021704730B552
:1003F0004FF4806404F132044FF000054FF0000127
:1004000050E700BF90F0000F04BF0021704730B5E7
:100410004FF4806404F1320410F0004548BF4042BC
:100420004FF000013EE700BF42004FEAE2014FEA11
:1004300031014FEA02701FBF12F07F4393F07F4FEC
:1004400081F06051704732F07F4208BF704793F0EF
:100450007F4F04BF41F40021704730B54FF4607402
:1004600001F0004521F000411CE700BF50EA010205
:1004700008BF704730B54FF000050AE050EA0102AE
:1004800008BF704730B511F0004502D5404261EB1E
:1004900041014FF4806404F132045FEA915C3FF45F
:1004A000D8AE4FF003025FEADC0C18BF03325FEAFC
:1004B000DC0C18BF033202EBDC02C2F1200300FAAD
:1004C00003FC20FA02F001FA03FE40EA0E0021FAD2
:1004D00002F11444BDE600BF70B54FF0FF0C4CF4C0
:1004E000E06C1CEA11541DBF1CEA135594EA0C0F72
:1004F00095EA0C0F00F0DEF82C4481EA030621EAAD
:100500004C5123EA4C5350EA013518BF52EA0335E7
:1005100041F4801143F4801338D0A0FB02CE4FF099
:100520000005E1FB02E506F00042E0FB03E54FF0C9
:100530000006E1FB03569CF0000F18BF4EF0010EC1
:10054000A4F1FF04B6F5007F64F5407404D25FEABD
:100550004E0E6D4146EB060642EAC62141EA555170
:100560004FEAC52040EA5E504FEACE2EB4F1FD0CB2
:1005700088BFBCF5E06F1ED8BEF1004F08BF5FEA30
:10058000500E50F1000041EB045170BD06F00046E2
:1005900046EA010140EA020081EA0301B4EB5C048F
:1005A000C2BFD4EB0C0541EA045170BD41F4801187
:1005B0004FF0000E013C00F3AB8014F1360FDEBFAC
:1005C000002001F0004170BDC4F10004203C35DA88
:1005D0000C341BDC04F11404C4F1200500FA05F30B
:1005E00020FA04F001FA05F240EA020001F00042AC
:1005F00021F0004110EBD37021FA04F642EB060122
:100600005EEA430E08BF20EAD37070BDC4F10C044B
:10061000C4F1200500FA04F320FA05F001FA04F20F
:1006200040EA020001F0004110EBD37041F10001FB
:100630005EEA430E08BF20EAD37070BDC4F1200506
:1006400000FA05F24EEA020E20FA04F301FA05F26E
:1006500043EA020321FA04F001F0004121FA04F216
:1006600020EA020000EBD3705EEA430E08BF20EAE6
:10067000D37070BD94F0000F0FD101F00046400020
:1006800041EB010111F4801F08BF013CF7D041EAA2
:10069000060195F0000F18BF704703F000465200A6
:1006A00043EB030313F4801F08BF013DF7D043EA77
:1006B0000603704794EA0C0F0CEA135518BF95EA2D
:1006C0000C0F0CD050EA410618BF52EA4306D1D1B4
:1006D00081EA030101F000414FF0000070BD50EAD3
:1006E000410606BF1046194652EA430619D094EA5D
:1006F0000C0F02D150EA013613D195EA0C0F05D147
:1007000052EA03361CBF104619460AD181EA03019A
:1007100001F0004141F0FE4141F470014FF0000052
:1007200070BD41F0FE4141F4780170BD70B54FF0ED
:10073000FF0C4CF4E06C1CEA11541DBF1CEA13556D
:1007400094EA0C0F95EA0C0F00F0A7F8A4EB05044F
:1007500081EA030E52EA03354FEA013100F0888046
:100760004FEA03334FF0805545EA131343EA12630F
:100770004FEA022245EA111545EA10654FEA0026C4
:100780000EF000419D4208BF964244F1FD0404F57D
:10079000407402D25B084FEA3202B61A65EB0305D9
:1007A0005B084FEA32024FF480104FF4002CB6EB96
:1007B000020E75EB030E22BFB61A754640EA0C0016
:1007C0005B084FEA3202B6EB020E75EB030E22BF56
:1007D000B61A754640EA5C005B084FEA3202B6EB97
:1007E000020E75EB030E22BFB61A754640EA9C0056
:1007F0005B084FEA3202B6EB020E75EB030E22BF26
:10080000B61A754640EADC0055EA060E18D04FEAE3
:10081000051545EA16754FEA06164FEAC30343EA83
:1008200052734FEAC2025FEA1C1CC0D111F4801F50
:100830000BD141EA00014FF000004FF0004CB6E749
:1008400011F4801F04BF01430020B4F1FD0C88BFE8
:10085000BCF5E06F3FF6AFAEB5EB030C04BFB6EBF3
:10086000020C5FEA500C50F1000041EB045170BDE6
:100870000EF0004E4EEA113114EB5C04C2BFD4EB13
:100880000C0541EA045170BD41F480114FF0000E97
:10089000013C90E645EA060E8DE60CEA135594EA13
:1008A0000C0F08BF95EA0C0F3FF43BAF94EA0C0F16
:1008B0000AD150EA01347FF434AF95EA0C0F7FF48B
:1008C00025AF104619462CE795EA0C0F06D152EADF
:1008D00003353FF4FDAE1046194622E750EA4106C3
:1008E00018BF52EA43067FF4C5AE50EA41047FF4D4
:1008F0000DAF52EA43057FF4EBAE12E74A0011D286
:1009000012F5001211D20DD56FF47873B3EB625269
:100910000ED44FEAC12343F0004343EA505323FA75
:1009200002F070474FF00000704750EA013002D1EA
:100930004FF0FF3070474FF0000070474FEA410220
:10094000B2F1E04324BFB3F5001CDCF1FE5C0DD92D
:1009500001F0004C4FEAC0024CEA5070B2F1004F77
:1009600040EB830008BF20F00100704711F0804F7A
:1009700021D113F13872BCBF01F00040704741F43F
:1009800080114FEA5252C2F11802C2F1200C10FA43
:100990000CF320FA02F018BF40F001004FEAC12327
:1009A0004FEAD32303FA0CFC40EA0C0023FA02F3CB
:1009B0004FEA4303CCE77FEA625307D150EA0133A1
:1009C0001EBF4FF0FE4040F44000704701F0004071
:1009D00040F0FE4040F40000704700BF80F000404F
:1009E00002E000BF81F0004142001FBF5FEA410307
:1009F00092EA030F7FEA226C7FEA236C6AD04FEA07
:100A00001262D2EB1363C1BFD2184140484041404B
:100A1000B8BF5B42192B88BF704710F0004F40F4FD
:100A2000000020F07F4018BF404211F0004F41F419
:100A3000000121F07F4118BF494292EA030F3FD0E5
:100A4000A2F1010241FA03FC10EB0C00C3F12003F8
:100A500001FA03F100F0004302D5494260EB400087
:100A6000B0F5000F13D3B0F1807F06D340084FEAF2
:100A7000310102F10102FE2A51D2B1F1004F40EBE7
:100A8000C25008BF20F0010040EA0300704749004F
:100A900040EB000010F4000FA2F10102EDD1B0FA1A
:100AA00080FCACF1080CB2EB0C0200FA0CF0AABF0F
:100AB00000EBC25052421843BCBFD04018437047AD
:100AC00092F0000F81F4000106BF80F400000132B3
:100AD000013BB5E74FEA41037FEA226C18BF7FEA8A
:100AE000236C21D092EA030F04D092F0000F08BFCC
:100AF0000846704790EA010F1CBF0020704712F0B3
:100B00007F4F04D1400028BF40F00040704712F1F1
:100B100000723CBF00F50000704700F0004343F056
:100B2000FE4040F4000070477FEA226216BF08468C
:100B30007FEA23630146420206BF5FEA412390EA4F
:100B4000010F40F4800070474FF0000304E000BF45
:100B500010F0004348BF40425FEA000C08BF7047F6
:100B600043F0964301464FF000001CE050EA0102BA
:100B700008BF70474FF000030AE000BF50EA0102CF
:100B800008BF704711F0004302D5404261EB4101BC
:100B90005FEA010C02BF84460146002043F0B643E1
:100BA00008BFA3F18053A3F50003BCFA8CF2083A06
:100BB000A3EBC25310DB01FA02FC634400FA02FC0F
:100BC000C2F12002BCF1004F20FA02F243EB020016
:100BD00008BF20F00100704702F1200201FA02FC78
:100BE000C2F1200250EA4C0021FA02F243EB02006B
:100BF00008BF20EADC7070474FF0FF0C1CEAD052AF
:100C00001EBF1CEAD15392EA0C0F93EA0C0F6FD06F
:100C10001A4480EA010C400218BF5FEA41211ED04D
:100C20004FF0006343EA501043EA5111A0FB013139
:100C30000CF00040B1F5000F3EBF490041EAD3710E
:100C40005B0040EA010062F17F02FD2A1DD8B3F18A
:100C5000004F40EBC25008BF20F00100704790F0F9
:100C6000000F0CF0004C08BF49024CEA502040EA4B
:100C700051207F3AC2BFD2F1FF0340EAC250704711
:100C800040F400004FF00003013A5DDC12F1190F4F
:100C9000DCBF00F000407047C2F10002410021FAC1
:100CA00002F1C2F1200200FA02FC5FEA310040F1D9
:100CB000000053EA4C0308BF20EADC70704792F052
:100CC000000F00F0004C02BF400010F4000F013A8A
:100CD000F9D040EA0C0093F0000F01F0004C02BF85
:100CE000490011F4000F013BF9D041EA0C018FE7F4
:100CF0000CEAD15392EA0C0F18BF93EA0C0F0AD0FA
:100D000030F0004C18BF31F0004CD8D180EA01001F
:100D100000F00040704790F0000F17BF90F0004FB8
:100D2000084691F0000F91F0004F14D092EA0C0F9A
:100D300001D142020FD193EA0C0F03D14B0218BF2D
:100D4000084608D180EA010000F0004040F0FE4073
:100D500040F40000704740F0FE4040F4400070470F
:100D60004FF0FF0C1CEAD0521EBF1CEAD15392EA8E
:100D70000C0F93EA0C0F69D0A2EB030280EA010C7E
:100D800049024FEA402037D04FF0805343EA111117
:100D900043EA10130CF000408B4238BF5B0042F175
:100DA0007D024FF4000C8B4224BF5B1A40EA0C001A
:100DB000B3EB510F24BFA3EB510340EA5C00B3EB4C
:100DC000910F24BFA3EB910340EA9C00B3EBD10F3A
:100DD00024BFA3EBD10340EADC001B0118BF5FEA8C
:100DE0001C1CE0D1FD2A3FF650AF8B4240EBC250B5
:100DF00008BF20F0010070470CF0004C4CEA502076
:100E00007F32C2BFD2F1FF0340EAC250704740F4C4
:100E100000004FF00003013A37E792F0000F00F0B6
:100E2000004C02BF400010F4000F013AF9D040EA34
:100E30000C0093F0000F01F0004C02BF490011F4C8
:100E4000000F013BF9D041EA0C0195E70CEAD153C0
:100E500092EA0C0F08D142027FF47DAF93EA0C0FA7
:100E60007FF470AF084676E793EA0C0F04D14B028B
:100E70003FF44CAF08466EE730F0004C18BF31F03D
:100E8000004CCAD130F000427FF45CAF31F0004337
:100E90007FF43CAF5FE700BF4FF0FF3C06E000BFD0
:100EA0004FF0010C02E000BF4FF0010C4DF804CDF3
:100EB0004FEA40024FEA41037FEA226C18BF7FEA03
:100EC000236C11D001B052EA530C18BF90EA010F05
:100ED00058BFB2EB030088BFC81738BF6FEAE17094
:100EE00018BF40F0010070477FEA226C02D15FEA30
:100EF000402C05D17FEA236CE4D15FEA412CE1D09C
:100F00005DF8040B704700BF844608466146FFE762
:100F10000FB5FFF7C9FF002848BF10F1000F0FBD44
:100F20004DF808EDFFF7F4FF0CBF012000205DF83D
:100F300008FB00BF4DF808EDFFF7EAFF34BF0120C2
:100F400000205DF808FB00BF4DF808EDFFF7E0FF5B
:100F500094BF012000205DF808FB00BF4DF808EDAC
:100F6000FFF7D2FF94BF012000205DF808FB00BF0F
:100F70004DF808EDFFF7C8FF34BF012000205DF8F1
:100F800008FB00BF30B589B0002404940594069492
:100F900007941C4B9A6942F010029A619A6902F018
:100FA00010020092009A9A6942F020029A619A69AE
:100FB00002F020020192019A9A6942F004029A61B9
:100FC0009A6902F004020292029A9A6942F00802B7
:100FD0009A619B6903F008030393039B0A4D224621
:100FE0000321284601F0F8FB032304930123059312
:100FF00006940223079304A9284601F001FB09B0D7
:1010000030BD00BF00100240000C014038B505465D
:10101000104C7E220021A01C02F020F840232370F7
:1010200065700D4D00220121284601F0D5FB4FF0DF
:10103000FF3302222146094801F0CAFC0122114671
:10104000284601F0C9FB80220021204602F006F864
:1010500038BD00BF10010020000C01406C020020D0
:1010600030B583B0ADF80600BDF806309BB2B3F5DD
:10107000805F03D340F6FF73ADF80630144C7E2238
:101080000021A01C01F0EAFFBDF80630C3F30323E2
:1010900043F070032370BDF8063063700D4D0022DD
:1010A0000221284601F098FB4FF0FF33022221462F
:1010B000094801F08DFC01220221284601F08CFB39
:1010C00080220021204601F0C9FF03B030BD00BFDF
:1010D00010010020000C01406C02002000BE70478F
:1010E00000B585B000230193029303931048114A81
:1010F00002608360037303754FF46022C261436032
:101100000123036100F0F0FC60B900230193012288
:101110000292039301A9064800F06EFB28B905B0BE
:101120005DF804FBFFF7DAFFEFE7FFF7D7FFF6E71D
:10113000FC0100200024014008B51048104B03605A
:101140004FF4827343604FF4004383600023C36015
:1011500002220261012242614FF400728261082280
:10116000C2610362436283620A23C36201F0F2FB3D
:1011700000B908BDFFF7B2FFFBE700BF6C0200201B
:101180000030014008B50A480A4B03604FF4E123E0
:10119000436000238360C36003610C22426183616A
:1011A000C36101F07AFD00B908BDFFF797FFFBE7C7
:1011B0002C0200200038014008B50A480A4B0360A1
:1011C0004FF49653436000238360C36003610C2295
:1011D00042618361C36101F060FD00B908BDFFF7A2
:1011E0007DFFFBE7C40200200044004008B50B4827
:1011F0000B4B03600B4B436000238360C3604FF4D1
:101200008042026143618361C361036201F00AFEAF
:1012100000B908BDFFF762FFFBE700BFA80100208F
:1012200000540040A086010000B595B000230C9347
:101230000D930F93109305930693079308930993C7
:10124000019302930393049301220A924FF4803393
:101250000B930E920222119212934FF4E013139308
:101260000AA800F0ADFDC8B90F230593022106912D
:10127000002307934FF480620892099305A800F0B9
:10128000DFFF70B9022301934FF40043039301A8D9
:1012900001F0B2F840B915B05DF804FBFFF71EFF8E
:1012A000E2E7FFF71BFFEDE7FFF718FFF3E70000AA
:1012B00070B582B000F036FDFFF7B6FFFFF762FEB3
:1012C000FFF70EFFFFF738FFFFF75CFFFFF774FF34
:1012D000FFF78CFF484800F08BFC002858D0FFF740
:1012E000FDFE55E0454C2078FFF790FE2378DBB2F9
:1012F000434D444A1668E85CFFF72AFC3146FFF785
:101300007BFC06462378DBB2E85C0138FFF720FC63
:1013100001463046FFF724FD3B49FFF76DFC3B4992
:10132000FFF71EFDFFF780F802F0C8FAFFF7E6FAB4
:1013300080B2FFF795FE304800F038FB4FF0FF31E8
:101340002D4800F09FF90028F8D12B4800F050FA02
:1013500080B22F4C208000F003FD23882D4C009399
:1013600003462D4A2D49204601F080FE2046FEF717
:10137000EFFE4FF0FF3382B22146294801F0BCFC5A
:1013800080220021204601F069FE052000F0EEFCDD
:10139000244B1B78002BCED0234B1868194B1968AF
:1013A000FFF720FBFFF740F802460B4610A1D1E9FA
:1013B0000001FFF7BBF9FFF7C1FA04460F4B072204
:1013C0001A700E4B1B78002B8CD00C4B1B78DBB2A9
:1013D0000B4AD05CFFF7BCFB2146FFF7ABFD0028B2
:1013E00080D1064A1378013BDBB21370E9E700BFF6
:1013F0006666666666660A40FC010020940100206D
:10140000B43900089001002000F07F453333534089
:101410009601002090000020A8390008BC3900087F
:101420002C02002098010020000000207047FEE7F9
:10143000FEE7FEE7FEE770477047704708B500F02B
:1014400083FC08BD82B00E4B9A6942F001029A619A
:101450009A6902F001020092009ADA6942F0805221
:10146000DA61DB6903F080530193019B054A5368FD
:1014700023F0E06343F00073536002B0704700BF95
:10148000001002400000014000B587B00023029325
:101490000393049305930268114B9A4202D007B05C
:1014A0005DF804FB03F56C439A6942F400729A619B
:1014B0009A6902F400720092009A9A6942F004025A
:1014C0009A619B6903F004030193019B012302933A
:1014D0000323039302A9034801F092F8DFE700BF5A
:1014E000002401400008014010B586B0002302939B
:1014F0000393049305930268114B9A4201D006B0FE
:1015000010BD104CA36943F00803A361A36903F065
:1015100008030093009BC023029312230393032329
:10152000059302A9084801F06BF8E36943F400133E
:10153000E361E36903F400130193019BDFE700BF5C
:101540000054004000100240000C014000B587B07C
:10155000002302930393049305930268124B9A426B
:1015600002D007B05DF804FB03F560439A6942F4CA
:1015700080529A619A6902F480520092009A9A69A4
:1015800042F004029A619B6903F004030193019BFA
:10159000A0230293022303930323059302A9034884
:1015A00001F02EF8DDE700BF0030014000080140E7
:1015B00010B588B00023049305930693079303683E
:1015C0002C4A934204D02C4A93422BD008B010BD31
:1015D0002A4B9A6942F480429A619A6902F48042E5
:1015E0000092009A9A6942F004029A619B6903F0A2
:1015F00004030193019B4FF40073049302230593AA
:10160000032307931E4C04A9204600F0F9FF4FF472
:101610008063049300230593069304A9204600F0F9
:10162000EFFFD3E7154BDA6942F40032DA61DA6989
:1016300002F400320292029A9A6942F004029A611C
:101640009B6903F004030393039B04230493022385
:101650000593032307930A4C04A9204600F0D0FF0A
:101660000823049300230593069304A9204600F061
:10167000C7FFABE7003801400044004000100240C3
:1016800000080140F0B583B005460C4600230193E5
:1016900000F066FB2B689A6812F4807F23D106461F
:1016A0005A6812F4807F03D1DB6A13F4700F24D0E0
:1016B0004A4B1F68022000F029FFB7FBF0F02B68AF
:1016C0001969474A11422FD1D96802F15C4211428F
:1016D0002AD11969434A114239D1DA68424B1A4278
:1016E00037D029273AE0AB6A43F02003AB620023EE
:1016F00085F82430012003B0F0BD2B681B6813F07F
:10170000020F48D1B4F1FF3FF7D024B100F028FB1D
:10171000801BA042F1D9AB6A43F00403AB62002303
:1017200085F824300320E6E719692E4A114204D1D6
:10173000D96802F16E4211420DD019692B4A0A4054
:101740005AB9DA68294B13405BB1FC2706E0292718
:1017500004E0142702E0542700E0FC2707FB00F711
:1017600004E05427FAE7019B01330193019BBB423C
:1017700011D2B4F1FF3FF6D024B100F0F1FA801B92
:10178000A042F0D9AB6A43F00403AB62002385F8B2
:1017900024300320AFE72B686FF012021A60AB6AA7
:1017A00043F40073AB622B689B6803F46023B3F5CA
:1017B000602F01D000209EE7287B60B9AB6A23F43C
:1017C0008073AB62AB6A13F4805F94D1AB6A43F071
:1017D0000103AB628FE700208DE700BF0C00002003
:1017E00024499224922449129224490049922400C7
:1017F0000368D86C7047000030B482B000230193B6
:1018000090F82430012B00F08B800246012380F8F1
:1018100024304B68062B29D80568686B03EB8303DB
:10182000053B1F249C4020EA04000C6804FA03F3E3
:1018300003436B630B68092B38D91568E86803EB21
:1018400043031E3B07249C4020EA04008C6804FAF2
:1018500003F30343EB600B68103B012B34D90020EA
:10186000002382F8243002B030BC70470C2B0ED815
:101870000568286B03EB8303233B1F249C4020EA6D
:1018800004000C6804FA03F303432B63D2E70568F2
:10189000E86A03EB8303413B1F249C4020EA0400D9
:1018A0000C6804FA03F30343EB62C3E71568286985
:1018B00003EB430307249C4020EA04008C6804FAED
:1018C00003F303432B61C6E713681648834205D030
:1018D000936A43F0200393620120C1E7986810F4F3
:1018E000000F1BD1986840F4000098600B68102B23
:1018F00001D00020B4E70C4B1B680C49A1FB03137B
:101900009B0C03EB83035900019102E0019B013B17
:101910000193019B002BF9D10020A1E700209FE754
:101920000220A0E7002401400C00002083DE1B43BE
:1019300030B583B00023019303689A6812F0010F59
:101940002DD19A6842F001029A60164B1B68164A24
:10195000A2FB03239B0C0193019B1BB1019B013B49
:101960000193F9E7044600F0FBF9054623689B68FC
:1019700013F0010F11D100F0F3F9401B0228F5D943
:10198000A36A43F01003A362E36A43F00103E36236
:10199000002384F82430012002E0002000E0002031
:1019A00003B030BD0C00002083DE1B4390F82430D0
:1019B000012B6BD010B50446012380F82430FFF7CB
:1019C000B7FF024600285CD1A36A23F4407323F0DA
:1019D000010343F48073A36221682E4B994228D0FF
:1019E000A36A23F48013A3624B6813F4806F05D0BD
:1019F000A36A23F4405343F48053A362A36A13F40D
:101A0000805F2CD0E36A23F00603E362002384F8AE
:101A1000243023686FF0020119602368996801F48B
:101A20006021B1F5602F1DD0996841F48011996053
:101A30002AE0A3F580635B6813F4702FD0D0A36A0B
:101A400043F48013A362144B5B6813F4806FD5D00A
:101A5000A36A23F4405343F48053A362CEE70023E8
:101A6000E362D3E70B498B4204D0996841F4A001AB
:101A7000996009E0A1F58061496811F4702FD3D114
:101A8000F3E7002384F82430104610BD02221046EC
:101A9000704700BF002801400024014038B50368AA
:101AA0009A6812F0010F01D1002038BD04469A68EF
:101AB00022F001029A6000F053F9054623689B6802
:101AC00013F0010F0ED000F04BF9401B0228F5D99E
:101AD000A36A43F01003A362E36A43F00103E362E5
:101AE0000120E2E70020E0E700287BD070B5044643
:101AF000836A002B4DD02046FFF7D0FFA36A13F076
:101B0000100369D1002867D1A26A22F4885222F01A
:101B1000020242F00202A2626268E1690A43217B8A
:101B200042EA4102A568B5F5807F02D0012D36D08A
:101B30001D46267D012E35D02668716821F4694145
:101B4000294371602568AE68274931401143A96077
:101B5000A168B1F5807F01D0012902D12369013B41
:101B60001B052568E96A21F470010B43EB622368C9
:101B700099681E4B0B409A4225D0A36A23F01203AA
:101B800043F01003A362E36A43F00103E362012020
:101B900027E0C36280F82430FFF776FCABE74FF410
:101BA0008075C6E731B9A169013945EA413141F48F
:101BB0000065C1E7A16A41F02001A162E16A41F03C
:101BC0000101E162B8E70023E362A36A23F00303A3
:101BD00043F00103A36204E0A36A43F01003A3628D
:101BE000012070BD01207047FDF7E1FFFE0E1FFFD1
:101BF00070B582B00023019390F82430012B67D098
:101C00000446012380F82430FFF748FF054628B139
:101C1000002384F82430284602B070BDA36A23F460
:101C2000885323F0020343F00203A362294B1E688A
:101C3000022000F06BFCB6FBF0F040000190019B2D
:101C40001BB1019B013B0193F9E72046FFF770FEB2
:101C50002268936843F00803936000F081F8064619
:101C600023689A6812F0080F0FD000F079F8801BF3
:101C70000A28F5D9A36A23F0120343F01003A362E4
:101C8000002384F824300125C5E79A6842F0040255
:101C90009A6000F065F8064623689B6813F0040F0D
:101CA0000FD000F05DF8801B0A28F5D9A36A23F055
:101CB000120343F01003A362002384F824300125AB
:101CC000A9E7A36A23F0030343F00103A3629FE79C
:101CD0000225A0E70C00002010B504460E4B187832
:101CE0004FF47A73B3FBF0F30C4A1068B0FBF3F0D7
:101CF00000F0BEFD68B90F2C01D901200AE00022D6
:101D000021464FF0FF3000F07FFD054B1C600020A6
:101D100000E0012010BD00BF040000200C000020E6
:101D20000800002008B5074A136843F01003136049
:101D3000032000F057FD0020FFF7CEFFFFF782FBE6
:101D4000002008BD00200240034A1168034B1B78A5
:101D50000B441360704700BF040300200400002000
:101D6000014B1868704700BF0403002038B50446D3
:101D7000FFF7F6FF0546B4F1FF3F02D0044B1B7896
:101D80001C44FFF7EDFF401BA042FAD338BD00BF53
:101D90000400002082B0084B1B68084AA2FB032302
:101DA0005B0A00FB03F0019000BF019B5A1E0192E9
:101DB000002BF9D102B070470C000020D34D621007
:101DC000002800F0F18170B582B00446036813F07A
:101DD000010F2CD0AA4B5B6803F00C03042B1DD021
:101DE000A74B5B6803F00C03082B12D06368B3F5B4
:101DF000803F41D0002B55D103F1804303F50433DC
:101E00001A6822F480321A601A6822F480221A605A
:101E100037E09B4B5B6813F4803FE7D0984B1B681F
:101E200013F4003F03D06368002B00F0BF812368E8
:101E300013F0020F75D0924B5B6813F00C0F5FD05C
:101E40008F4B5B6803F00C03082B54D02369002BE5
:101E500000F089808B4B01221A60FFF781FF054655
:101E6000874B1B6813F0020F74D1FFF779FF401BFB
:101E70000228F5D903209EE1814A136843F4803398
:101E80001360636843B3FFF76BFF05467C4B1B6829
:101E900013F4003FCBD1FFF763FF401B6428F5D953
:101EA000032088E1B3F5A02F09D0754B1A6822F4FE
:101EB00080321A601A6822F480221A60E1E703F186
:101EC0008043A3F53C331A6842F480221A601A68F2
:101ED00042F480321A60D4E7FFF742FF0546684BB0
:101EE0001B6813F4003FA2D0FFF73AFF401B6428A1
:101EF000F5D903205FE1624B5B6813F4803FA5D105
:101F00005F4B1B6813F0020F03D02369012B40F0D5
:101F10004F815B4A136823F0F803616943EAC10308
:101F20001360236813F0080F32D0A369002B5BD035
:101F3000554B01221A60FFF713FF0546504B5B6AB1
:101F400013F0020F21D1FFF70BFF401B0228F5D938
:101F5000032030E14A4A136823F0F803616943EA39
:101F6000C1031360DDE7474B00221A60FFF7F8FE5C
:101F70000546434B1B6813F0020FD2D0FFF7F0FE6B
:101F8000401B0228F5D9032015E10120FFF702FFCD
:101F9000236813F0040F00F09780394BDB6913F0CE
:101FA000805F33D1364BDA6942F08052DA61DB6907
:101FB00003F080530193019B0125344B1B6813F4FC
:101FC000807F25D0E368012B36D0002B4CD103F164
:101FD000804303F504331A6A22F001021A621A6A76
:101FE00022F004021A622CE0274B00221A60FFF74D
:101FF000B7FE0546224B5B6A13F0020FC8D0FFF70D
:10200000AFFE401B0228F5D90320D4E00025D4E719
:102010001E4A136843F480731360FFF7A1FE06465F
:102020001A4B1B6813F4807FCCD1FFF799FE801BFD
:102030006428F5D90320BEE0114A136A43F0010376
:102040001362E36873B3FFF78BFE06460C4B1B6A03
:1020500013F0020F37D1FFF783FE801B41F2883364
:102060009842F3D90320A6E0052B11D0044B1A6A3D
:1020700022F001021A621A6A22F004021A62E0E7F0
:1020800000100240000042428004424200700040C2
:102090004D4B1A6A42F004021A621A6A42F00102B7
:1020A0001A62CEE7FFF75CFE0646474B1B6A13F049
:1020B000020F08D0FFF754FE801B41F2883398428C
:1020C000F3D9032077E0E5B9E369002B72D03E4AEB
:1020D000526802F00C02082A56D0022B17D03B4B54
:1020E00000221A60FFF73CFE0446374B1B6813F0D2
:1020F000007F47D0FFF734FE001B0228F5D90320EC
:1021000059E0314AD36923F08053D361DCE72F4B88
:1021100000221A60FFF724FE05462B4B1B6813F0C4
:10212000007F06D0FFF71CFE401B0228F5D90320D4
:1021300041E0236AB3F5803F1AD023494B6823F46A
:102140007413226A606A024313434B601F4B0122DF
:102150001A60FFF705FE04461B4B1B6813F0007F57
:102160000ED1FFF7FDFD001B0228F5D9032022E068
:10217000154A536823F40033A1680B435360DCE72E
:10218000002018E0002016E0012B16D00E4B5B68F3
:1021900003F48031226A914211D103F47013626A10
:1021A00093420ED1002006E001207047012002E09A
:1021B000012000E0002002B070BD0120FBE70120FB
:1021C000F9E70120F7E700BF00100240600042423B
:1021D00010B487B0164C94E80F000DF1180C0CE900
:1021E0000F00238AADF80430124B5B6803F00C0239
:1021F000082A03D0104807B010BC7047C3F38342CD
:10220000624412F8102C13F4803F0CD0094B5B6829
:10221000C3F34043634413F8143C074800FB02F047
:10222000B0FBF3F0E7E7054800FB02F0E3E700BF8F
:10223000803900080010024000127A0000093D00B9
:10224000002800F0A08070B50446534B1B6803F0D3
:1022500007038B420BD2504A136823F007030B434A
:102260001360136803F007038B4240F08E802368ED
:1022700013F0020F17D013F0040F04D0474A53682D
:1022800043F4E0635360236813F0080F04D0434A1B
:10229000536843F460535360404A536823F0F0039B
:1022A000A068034353600D46236813F0010F31D03B
:1022B0006368012B20D0022B25D0384A126812F017
:1022C000020F64D035494A6822F0030213434B6081
:1022D000FFF746FD0646314B5B6803F00C0362686E
:1022E000B3EB820F16D0FFF73BFD801B41F2883322
:1022F0009842F0D9032045E0284A126812F4003FC2
:10230000E0D101203EE0254A126812F0007FD9D1C9
:10231000012037E0204B1B6803F00703AB420AD9CA
:102320001D4A136823F007032B431360136803F05F
:102330000703AB422DD1236813F0040F06D0174AD0
:10234000536823F4E063E1680B435360236813F0A0
:10235000080F07D0114A536823F46053216943EAF8
:10236000C1035360FFF734FF0C4B5B68C3F30313E7
:102370000B4AD35CD8400B4B18600B4B1868FFF727
:10238000ABFC002070BD012070470120FAE701205E
:10239000F8E70120F6E700BF0020024000100240ED
:1023A000F03900080C00002008000020014B1868DC
:1023B000704700BF0C00002008B5FFF7F7FF044B83
:1023C0005B68C3F30223034AD35CD84008BD00BF57
:1023D00000100240003A000808B5FFF7E7FF044B81
:1023E0005B68C3F3C223034AD35CD84008BD00BF77
:1023F00000100240003A000870B582B0044603683D
:1024000013F0010F34D03E4BDB6913F0805F48D1ED
:102410003B4BDA6942F08052DA61DB6903F08053AA
:102420000193019B0125374B1B6813F4807F3AD041
:10243000334B1B6A13F4407311D0626802F440728C
:102440009A420CD02E4A136A23F440702E4901267A
:102450000E6000260E60106213F0010F37D1284A7B
:10246000136A23F4407361680B431362002D3FD15C
:10247000236813F0020F06D0214A536823F4404327
:10248000A1680B435360236813F0100F35D01C4A2A
:10249000536823F48003E1680B435360002002B0CB
:1024A00070BD0025BFE7174A136843F480731360BB
:1024B000FFF756FC0646134B1B6813F4807FB7D119
:1024C000FFF74EFC801B6428F5D90320E7E7FFF7F0
:1024D00047FC06460A4B1B6A13F0020FBFD1FFF7F9
:1024E0003FFC801B41F288339842F3D90320D6E7A2
:1024F000D36923F08053D361BAE70020CFE700BF50
:1025000000100240007000404004424230B587B0E5
:102510000546364C94E80F000DF1180C0CE90F003D
:10252000238AADF80430022D52D0102D04D0012D95
:102530002CD0002007B030BD2D4B5A68186810F021
:102540008070F7D0C2F3834306A90B4413F8100C34
:1025500012F4803F16D0264B5B68C3F340430B4414
:1025600013F8142C234BB3FBF2F300FB03F0204BC6
:102570005B6813F4800FDDD140001F4BA3FB0030DC
:102580004008D7E71D4B03FB00F0F0E7184B1B6A30
:1025900040F202321A40B2F5817F24D003F4407336
:1025A000B3F5007F04D0B3F5407F09D00020C1E728
:1025B0000F4A526A12F0020FF5D049F64040B9E7CF
:1025C0000B4B186810F40030B4D04FF22440B1E740
:1025D000FFF702FF064B5B68C3F3813301335B00F7
:1025E000B0FBF3F0A6E74FF40040A3E794390008EE
:1025F0000010024000127A00ABAAAAAA00093D000E
:10260000F0B482B000263546A0E0002A58D0012A56
:1026100010D1CE680EE06A4FBA4251D048D9694F06
:10262000BA424DD007F58037BA4249D0A7F5801796
:10263000BA4245D0FF2B57D88446FF2B57D8AC0061
:10264000DCF800200F27A74022EA070206FA04F46C
:102650002243CCF800204A6812F0805F75D05A4AB5
:10266000946944F001049461926902F001020192BC
:10267000019AAC08A71C554A52F8272005F0030719
:10268000BF004FF00F0C0CFA07FC22EA0C0C504A6A
:10269000904232D002F58062904271D002F58062A1
:1026A00090426FD002F58062904224D0042225E04F
:1026B000A7F58017BA4203D007F58037BA42B9D1DF
:1026C0008A687AB1012A08D044610826B2E7CE6848
:1026D0000836AFE7CE680C36ACE704610826A9E7F8
:1026E0000026A7E70426A5E700F1040CA5E7A5F15D
:1026F0000804A400A4E7032200E00022BA4042EA52
:102700000C020234314F47F824204A6812F4803F0B
:102710003AD0304C22681A4322604A6812F4003FD3
:1027200038D02C4C62681A4362604A6812F4801FE9
:1027300036D0284CA2681A43A2604A6812F4001FDF
:1027400034D0244CE2681343E36001350B6833FA5C
:1027500005F231D00124AC4023409C42F5D14A68B7
:10276000122AB7D03FF657AF022AB0D07FF64DAF4E
:10277000032AB5D0112A7FF45DAFCE68043659E73D
:102780000122BBE70222B9E7124C226822EA0302C7
:102790002260C2E70F4C626822EA03026260C4E76B
:1027A0000C4CA26822EA0302A260C6E7094CE26868
:1027B00022EA0303E360C8E702B0F0BC704700BF41
:1027C0000000211000003110001002400000014004
:1027D00000080140000401400AB10161704709048A
:1027E00001617047074AD36823F4E0631B041B0CA4
:1027F000000200F4E060184340F0BF6040F4003095
:10280000D060704700ED00E030B4174BDB68C3F3D5
:102810000223C3F10704042C28BF04241D1D062D28
:1028200001D9033B00E000234FF0FF3505FA04F423
:1028300021EA0401994005FA03F322EA030319434C
:10284000002809DB0901C9B200F1604000F56140D0
:1028500080F8001330BC704700F00F000901C9B2C6
:10286000024B1954F6E700BF00ED00E014ED00E064
:102870000138B0F1807F0AD2064B5860064AF02139
:1028800082F823100020986007221A607047012008
:10289000704700BF10E000E000ED00E0F8B505462D
:1028A0000F4616461C462B689B6837EA03030CBF8D
:1028B00001230023B34237D0B4F1FF3FF3D0FFF739
:1028C0004FFA069BC01AA04201D2002CEBD12A6815
:1028D000536823F0E00353606B68B3F5827F0BD03D
:1028E000AB6AB3F5005F14D0012385F851300023A3
:1028F00085F85030032018E0AB68B3F5004F02D0E4
:10290000B3F5806FECD12A68136823F0400313609D
:10291000E6E72A68136823F4005313602A681368F3
:1029200043F400531360DFE70020F8BD10B582B018
:10293000044600920B4600228021FFF7AFFF0346BA
:1029400010B9184602B010BD636D43F020036365F3
:102950000323F6E7002839D010B50446002383622C
:1029600090F85130002B2CD0022384F8513022688B
:10297000136823F0400313606368A2681343E2689E
:1029800013432269134362691343A26902F400727C
:102990001343E2691343226A1343A16A22680B437B
:1029A0001360638B226803F0040353602268D369C9
:1029B00023F40063D36100206065012384F8513063
:1029C00010BD80F85030FEF7C1FDCDE70120704703
:1029D0002DE9F04383B090F85040012C00F0C48002
:1029E0001D46914688460446012380F85030FFF783
:1029F000B7F9074694F85160F6B2012E40F0A18075
:102A0000B8F1000F00F09E80B9F1000F00F09A803D
:102A1000032384F8513000236365C4F83080A4F8A0
:102A20003490A4F83690A363A387E3876364236498
:102A3000A368B3F5004F1DD023681A6812F0400F49
:102A400003D11A6842F040021A60E368B3F5006FE0
:102A500016D0636813B1B9F1010F4AD1226B236814
:102A600012781A73236B01332363E38E013B9BB20D
:102A7000E3863EE02268136843F480431360DBE79B
:102A8000636813B1B9F1010F15D1226B2368128865
:102A9000DA60236B02332363E38E013B9BB2E38650
:102AA00009E0FFF75DF9C01BA84202D3B5F1FF3F73
:102AB00052D1002D52D0E38E9BB2002B2CD0236834
:102AC0009A6812F0020FECD0226B1288DA60236B46
:102AD00002332363E38E013B9BB2E386EBE7FFF710
:102AE0003FF9C01BA84202D3B5F1FF3F38D1002DFA
:102AF00038D0E28E92B27AB123689A6812F0020F4F
:102B0000EDD0226B12781A73236B01332363E28EAC
:102B1000013A92B2E286ECE73A4629462046FFF7B0
:102B200005FF08B120236365A36833B901932368C7
:102B3000DA6801929B680193019B636D13B90026CB
:102B400000E00226012384F85130002384F850303D
:102B5000304603B0BDE8F0830326F3E70326F1E730
:102B60000326EFE70326EDE70226F1E738B5044632
:102B70000268136923F44053C1680B4313618368EF
:102B80000269134342691A430168CB6823F4B053C6
:102B900023F00C031343CB600268536923F44073A2
:102BA00081690B4353610268214B9A421FD0FFF7A2
:102BB00003FC00EB800000EB800063689B00B0FB2F
:102BC000F3F01C4DA5FB00325109642202FB1102F7
:102BD00013013233A5FB03235B0903F0F00202EB80
:102BE000011203F00F03216813448B6038BDFFF717
:102BF000F3FB00EB800000EB800063689B00B0FB00
:102C0000F3F00C4DA5FB00325109642202FB1102C6
:102C100013013233A5FB03235B0903F0F00202EB3F
:102C2000011203F00F03216813448B60DEE700BF3D
:102C3000003801401F85EB512DE9F04105460F4654
:102C400016469846069C2B681B6837EA03030CBFA0
:102C500001230023B3421DD1B4F1FF3FF3D02CB1C7
:102C6000FFF77EF8A0EB0800A042ECD92A68D368F1
:102C700023F4D073D3602A68536923F001035361AE
:102C8000202385F8393085F83A30002385F838302C
:102C9000032000E00020BDE8F08158B310B50446E1
:102CA00090F839300BB3242384F839302268D36884
:102CB00023F40053D3602046FFF758FF22681369BE
:102CC00023F4904313612268536923F02A0353616C
:102CD0002268D36843F40053D3600020E0632023CC
:102CE00084F8393084F83A3010BD80F83830FEF777
:102CF0005FFCD8E7012070472DE9F04182B01E4605
:102D000090F83930DBB2202B55D104460D46904661
:102D1000002955D0002A55D090F83830012B53D0D7
:102D2000012380F838300023C363212380F8393031
:102D3000FFF716F80746A4F82480A4F8268010E0D0
:102D400000963B46002280212046FFF775FF0028B1
:102D50003CD12B882268C3F3080353602369C3B9AD
:102D60000235E38C9BB2B3B1E38C013B9BB2E384AD
:102D7000A368B3F5805FE3D000963B460022802134
:102D80002046FFF759FF18BB15F8012B23685A603E
:102D9000E7E70135E5E700963B4600224021204663
:102DA000FFF74AFF0346A8B9202284F83920002201
:102DB00084F8382000E00223184602B0BDE8F08114
:102DC0000123F9E70123F7E70223F5E70323F3E7FC
:102DD0000323F1E70323EFE70F4B1A6842F00102E8
:102DE0001A6059680D4A0A405A601A6822F08472C3
:102DF00022F480321A601A6822F480221A605A681B
:102E000022F4FE025A604FF41F029A60044B4FF006
:102E100000629A60704700BF001002400000FFF897
:102E200000ED00E0002800F0C180F8B5044690F8FD
:102E30003D30002B6CD0242384F83D302268136889
:102E400023F001031360FFF7B7FA6268594B9A4207
:102E500063D8594B98428CBF00230123002B40F0CC
:102E6000A780564BA3FB00239B0C21684A6822F0E5
:102E70003F021A434A6025682A6A22F03F026668C8
:102E80004C498E424FD8013313432B622568E969C0
:102E900021F44F4121F0FF016368464A93424CD828
:102EA00001385B00B0FBF3F0013040F6FC731842D0
:102EB00078D0C0F30B030B43EB6121680B6823F060
:102EC000C003E269206A024313430B6021688B68E8
:102ED00023F4034323F0FF032269E0680243134312
:102EE0008B602168CB6823F0FF036269A06902430D
:102EF0001343CB602268136843F001031360002082
:102F00002064202384F83D30206384F83E00F8BD1F
:102F100080F83C30FEF7E8FA8DE7294B98428CBFE9
:102F2000002301239AE74FF4967101FB03F325492F
:102F3000A1FB03139B090133A6E7A268BAB9461E99
:102F400003EB4307B6FBF7F60136C6F30B06B6FAFA
:102F500086F6760946BBC2B9421E03EB4303B2FBB9
:102F6000F3F20132C2F30B0242F40043A3E7461E20
:102F700003EB830707EB8707B6FBF7F60136C6F3CB
:102F80000B06B6FA86F67609E4E7421E03EB8303E6
:102F900003EB8303B2FBF3F20132C2F30B0242F400
:102FA000404388E7042386E7012384E70120704734
:102FB0000120ACE7A08601007F841E0083DE1B4356
:102FC000FF083D00D34D6210002103E00B4B5B581E
:102FD000435004310A480B4B42189A42F6D30A4A2E
:102FE00002E0002342F8043B084B9A42F9D3FFF772
:102FF000F3FE00F00FF8FEF75BF97047443A000863
:10300000000000207400002074000020180300203D
:10301000FEE7000070B500260C4D0D4C641BA4109B
:10302000A64209D100F0A0FC00260A4D0A4C641B00
:10303000A410A64205D170BD55F8043B984701364F
:10304000EEE755F8043B98470136F2E73C3A0008B2
:103050003C3A00083C3A0008403A00080346024463
:10306000934200D1704703F8011BF9E70EB46FF0EB
:10307000004100B59CB01DAB0290069007910491F1
:103080000848094953F8042B0591006802A90193E7
:1030900000F068F80022029B1A701CB05DF804EB87
:1030A00003B07047100000200802FFFF2DE9F04731
:1030B0008E6882469E420C469146984638D8B1F8B2
:1030C0000CC01CF4906F31D062692568096902EB6D
:1030D00042026F1A02EBD272013355103B449D42FB
:1030E00038BF1D461CF4806F30D0294600F040FBED
:1030F000064650B90C234FF0FF30CAF80030A389C0
:1031000043F04003A381BDE8F0873A46216900F00F
:10311000BBFAA38923F4906343F08003A381266163
:103120003E44266046466561ED1BA560464500D9D4
:10313000464632464946206800F0B4FAA3680020AB
:103140009B1BA36023681E442660DCE72A4600F030
:1031500069FB06460028E2D12169504600F0BCFA1E
:10316000C8E700002DE9F04F1E468B899DB01B0675
:1031700007460D4614460ED50B6963B9402100F091
:10318000F7FA2860286120B90C233B604FF0FF302C
:10319000C9E040236B610023099320238DF8293077
:1031A00030234FF0010ADFF898918DF82A3003960A
:1031B00023461E4613F8012B0AB1252AF9D1B6EB96
:1031C000040B0BD05B46224629463846FFF76EFFBC
:1031D000013000F0A380099B5B4409933378002BF6
:1031E00000F09C8000234FF0FF32CDE9052301362B
:1031F000049307938DF853301A933446052214F83C
:10320000011B4F4800F032FA049BC0B9D90644BFF5
:1032100020228DF853201A0744BF2B228DF853200B
:1032200032782A2A13D0344600200A26079A2146EB
:1032300011F8013B303B092B4BD970B914E0A0EBDE
:1032400009000AFA00F0184304902646D5E7039ACD
:10325000111D12680391002A01DB079204E052421B
:1032600043F002030792049323782E2B0CD163784A
:103270002A2B33D1039B02341A1D1B680392002BA7
:10328000B8BF4FF0FF3305932E4E0322217830460E
:1032900000F0ECF938B14023801B03FA00F0049BE6
:1032A00001340343049314F8011B062226488DF8C9
:1032B000281000F0DBF9002838D0244B13BB039B07
:1032C000073323F0070308330393099B434409930F
:1032D0006EE706FB023201200C46A8E700230A260F
:1032E000194601340593204610F8012B303A092A7B
:1032F00003D9002BC8D00591C6E706FB01210123A5
:103300000446F0E703AB00932A46114B04A9384664
:10331000AFF30080B0F1FF3F8046D6D1AB895B06AA
:103320003FF534AF09981DB0BDE8F08F03AB0093B3
:103330002A46074B04A9384600F082F8EAE700BFA6
:10334000083A00080E3A0008123A0008000000008F
:10335000AD3000082DE9F04791461F468A680B6999
:1033600006469342B8BF1346C9F8003091F843208F
:103370000C46DDF8208012B10133C9F80030236813
:10338000990642BFD9F800300233C9F800302568E9
:1033900015F0060507D104F1190AE368D9F80020F1
:1033A0009B1AAB4229DC94F843302268003318BFE3
:1033B000012392062ED404F1430239463046C04719
:1033C000013021D02368E56803F00603042B18BF01
:1033D0000025D9F800204FF0000908BFAD1AA368F6
:1033E000226908BF25EAE5759342C4BF9B1AED1810
:1033F0001A344D451AD1002008E0012352463946BF
:103400003046C047013003D14FF0FF30BDE8F087B0
:103410000135C2E73020E11881F843005A1C94F8C6
:1034200045102244023382F84310C4E701232246A8
:1034300039463046C0470130E6D009F10109D8E7E6
:103440002DE9F04306460C4601F14300097E85B0A4
:103450006E29984617460C9B00F0BB8024D8632940
:1034600039D00AD8002900F0C480582900F0928091
:1034700004F1420584F8421035E0642901D069293D
:10348000F6D125681A6815F0800F02F104012CD0DE
:1034900012681960002A03DA2D23524284F843305F
:1034A000DFF8C0C10A233FE0732900F0A68008D8E6
:1034B0006F2921D07029DBD1226842F020022260DE
:1034C00003E0752918D07829D2D17822DFF898C185
:1034D00084F8452062E01A6804F14205111D196064
:1034E000136884F84230012394E0126815F0400F0D
:1034F000196018BF12B2CDE7D4F800C01A681CF0EA
:10350000800F02F104051D6001D0126803E01CF079
:10351000400FFAD012886F290CBF08230A23DFF866
:1035200044C1002184F843106568002DA8BF2168BC
:10353000A560A4BF21F0040121600AB9002D46D086
:103540000546B2FBF3F103FB112E1CF80EE093428B
:1035500005F801ED39D9082B0BD12368DA0708D516
:10356000236962689A42DEBF302305F8013C05F109
:10357000FF35401B2061CDF800803B4603AA214661
:103580003046FFF7E7FE013049D14FF0FF3005B07C
:10359000BDE8F083DFF8CCC084F845101D682168D1
:1035A00055F8042B1D600D060BD5CD0744BF41F027
:1035B000200121601AB9236823F02003236010231F
:1035C000AFE74B0648BF92B2EFE70A46B9E70546B8
:1035D000C1E71A68D4F800C0151D61691CF0800F9E
:1035E0001D60136801D0196003E01CF0400FFAD091
:1035F0001980002305462361BDE71A68111D196073
:10360000156800216268284600F030F808B1401BB8
:10361000606063682361002384F84330ABE723696B
:103620002A4639463046C0470130AED023689B0752
:1036300013D4E068039B9842B8BF1846A7E701235C
:103640004A4639463046C04701309ED00135E368CE
:10365000039A9B1AAB42F2DCEBE7002504F119094F
:10366000F5E700BF193A00082A3A000810B5C9B2B8
:1036700002449042034601D1002303E01C7801304C
:103680008C42F6D1184610BD0A44914200F1FF3336
:1036900000D1704710B511F8014B914203F8014F6A
:1036A000F9D110BD884210B501EB020302D9834263
:1036B0001C4607D8421E994208D011F8014B02F867
:1036C000014FF8E783189A1A9A4200D110BD14F8F6
:1036D000011D03F8011DF7E738B50546002943D061
:1036E00051F8043C0C1F002BB8BFE41800F0D0F8D0
:1036F0001E4A1368104633B9636014602846BDE85B
:10370000384000F0CBB8A3420BD92168621893422D
:1037100001BF1A685B685218226063600460EDE7BD
:1037200013465A680AB1A242FAD919685818A04239
:103730000BD120680144581882421960DED110680C
:103740005268014419605A60D8E702D90C232B60F3
:10375000D4E7206821188A4201BF1168526809180D
:10376000216062605C60C9E738BD00BF9C01002039
:10377000F8B5CD1C25F0030508350C2D38BF0C25F8
:10378000002D064601DBA94203D90C23336000203B
:10379000F8BD00F07DF821490A6814469CB9204F15
:1037A0003B6823B92146304600F062F8386029466C
:1037B000304600F05DF8431C23D10C2330463360C3
:1037C00000F06CF8E3E723685B1B17D40B2B03D9DD
:1037D00023601C44256004E06368A2420CBF0B60B8
:1037E0005360304600F05AF804F10B00231D20F01E
:1037F0000700C21ACCD01B1AA350C9E7224664683E
:10380000CCE7C41C24F00304A042E3D0211A3046C4
:1038100000F02EF80130DDD1CFE700BF9C01002081
:10382000A0010020F8B5074614460E4621B91146FE
:10383000BDE8F840FFF79CBF22B9FFF74DFF2546D2
:103840002846F8BD00F030F8A0420FD22146384695
:10385000FFF78EFF05460028F2D031462246FFF7DB
:1038600013FF31463846FFF737FFE9E73546E7E70C
:1038700038B50023054C05460846236000F066F87D
:10388000431C02D1236803B12B6038BD080300201C
:10389000014800F011B800BF10030020014800F0FB
:1038A0000CB800BF1003002051F8043C181F002B77
:1038B000BCBF0B58C018704770477047F8B5C1F3CC
:1038C0000A57A7F2FF34132C0B460D4602461EDCA6
:1038D000002C0EDB1C49214101EA0300104313D0E8
:1038E0004FF4002343FA04F4254425EA0105002699
:1038F00008E0002601F00045013404BF45F07F5583
:1039000045F4401532462B4610461946F8BD332C77
:1039100007DDB4F5806FF7D1FCF728FC02460B46B3
:10392000F2E74FF0FF31A7F2134721FA07F73842C9
:10393000EAD00123C4F1330403FA04F4061928BFC2
:10394000ED1826EA0706DDE7FFFF0F00044A0549E8
:103950001368002B08BF0B461844106018467047C8
:10396000A401002018030020F8B500BFF8BC08BC73
:103970009E467047F8B500BFF8BC08BC9E4670472D
:1039800002030405060708090A0B0C0D0E0F1010A0
:103990000102000002030405060708090A0B0C0DCA
:1039A0000E0F1010010200004C6967687453656EB9
:1039B000736F720001020405080A10207B20226345
:1039C00068616E6E656C22203A20222573222C20BD
:1039D0002274696D6522203A2025642C20227661AC
:1039E0006C756522203A202564207D0A0D000000B8
:1039F000000000000000000001020304060708099F
:103A00000000000001020304232D302B2000686C0D
:103A10004C006566674546470030313233343536F1
:103A2000373839414243444546003031323334352A
:0C3A300036373839616263646566000057
:043A3C003501000848
:043A40001101000868
:103A44003333534001000000100000000024F40050
:103A5400140000200000000000000000000000002E
:103A64000000000000000000000000000000000052
:103A74000000000000000000000000000000000042
:103A84000000000000000000000000000000000032
:103A94000000000000000000000000000000000022
:103AA4000000000000000000000000000000000012
:043AB400000000000E
:0400000508002FC9F7
:00000001FF
