:020000040800F2
:1000000000500020A154000867120008691200087F
:100010006B1200086D1200086F120008000000004B
:10002000000000000000000000000000C14A0008BD
:100030007112000800000000614B0008A54B000889
:10004000E9540008E9540008E9540008E95400089C
:10005000E9540008E9540008E9540008E95400088C
:10006000E9540008E9540008E9540008E95400087C
:10007000E9540008E9540008E9540008E95400086C
:10008000E9540008E9540008E9540008E95400085C
:10009000E9540008E9540008E9540008E95400084C
:1000A000E954000875120008E9540008E9540008F2
:1000B000E9540008E9540008E9540008E95400082C
:1000C000E9540008E9540008E9540008E95400081C
:1000D000E9540008E9540008E9540008E95400080C
:1000E000E9540008E9540008E95400080000000041
:1000F0000000000000000000000000000000000000
:0C01000000000000000000005FF808F1A3
:10011000044B05481B1A062B02D9044B03B11847A0
:10012000704700BFCF000020CC000020000000007E
:1001300005490648091A891001EBD171491002D00E
:10014000034B03B118477047CC000020CC000020BF
:100150000000000010B5064C237843B9FFF7D8FF24
:10016000044B13B10448AFF300800123237010BD8A
:10017000CC00002000000000EC54000808B5084B3B
:100180001BB108490848AFF300800848036813B959
:10019000BDE80840CCE7064B002BF9D09847F7E7BD
:1001A00000000000D0000020EC540008CC0000202B
:1001B0000000000070B50F4E0F4D761BB61018BF33
:1001C000002405D0013455F8043B9847A642F9D1E4
:1001D0000A4E0B4D05F08AF9761BB61018BF0024A5
:1001E00006D0013455F8043B9847A642F9D170BDBA
:1001F00070BD00BFA8560008A8560008AC560008FD
:10020000A8560008844641EA000313F0030349D1CD
:10021000403A23D30B6803604B6843608B6883606C
:10022000CB68C3600B6903614B6943618B69836170
:10023000CB69C3610B6A03624B6A43628B6A836258
:10024000CB6AC3620B6B03634B6B43638B6B836340
:10025000CB6BC36340304031403ADBD230320BD3FA
:100260000B6803604B6843608B688360CB68C36036
:1002700010301031103AF3D20C3205D351F8043B50
:1002800040F8043B043AF9D2043208D0D2071CBF2C
:1002900011F8013B00F8013B01D30B880380604655
:1002A000704700BF082A13D38B07B1D010F00303A7
:1002B000AED0C3F10403D21ADB071CBF11F8013B17
:1002C00000F8013BA4D331F8023B20F8023B9FE742
:1002D000043AD9D3013A11F8013B00F8013BF9D2B5
:1002E0000B7803704B7843708B788370604670474F
:1002F00070B4860746D0541E002A41D0CAB20346C5
:1003000002E014F1FF343BD303F8012B9D07F8D131
:10031000032C2ED9CDB245EA05250F2C45EA05451B
:1003200019D9264603F11002103E0F2E42F8105C38
:1003300042F80C5C42F8085C42F8045C02F11002DE
:10034000F2D8A4F1100222F00F0204F00F041032D0
:10035000032C13440DD91E462246043A032A46F8BC
:10036000045BFAD8221F22F003020432134404F083
:1003700003042CB1C9B21C4403F8011B9C42FBD1FD
:1003800070BC704714460346C2E700BF0CB40B466E
:10039000F0B56FF000454FF402774FF6FF769DB051
:1003A00022AC54F8042B0293069302A9234601942D
:1003B000ADF8147004950795ADF8166000F00EF9CD
:1003C0000022029B1A701DB0BDE8F04002B07047D9
:1003D0000EB40146F0B56FF000454FF402774FF6CA
:1003E000FF769CB021AC54F8042B0B4B0291069184
:1003F000186802A923460194ADF814700495079576
:10040000ADF8166000F0EAF80022029B1A701CB0EA
:10041000BDE8F04003B07047000000202DE9F04730
:100420008E680C469E421D46174628D8804688890D
:1004300010F4906F32D04E692368096906EB4606C6
:10044000A3EB010906EBD6766B1C76104B44B34246
:10045000324684BF1E463246430522D511464046E9
:1004600000F0B8FC824680B34A462169FFF7CAFE15
:10047000A38923F4906343F08003A38116E01E4612
:1004800008682A46394600F0F9FBA2682368961BE3
:100490002B44A66023600020BDE8F087086835463D
:1004A000EFE7404600F0F4FC824650B1A6EB0903AA
:1004B0000AEB09006661C4F810A02060A3602E4614
:1004C000DFE72169404600F03DFC0C23C8F800300E
:1004D000A3894FF0FF3043F04003A381BDE8F087CC
:1004E0002DE9F04F936883B09046002B70D0824680
:1004F0000C4617688D68086842E0A38913F4906F72
:100500002ED06569216905EB4505A0EB010B05EBD4
:10051000D5750BF101006D103044A8422A4684BF06
:1005200005462A465B0538D51146504600F052FC78
:1005300000283CD05A4621690190FFF763FEA2894A
:10054000019B22F4906242F08002A281A5EB0B0293
:1005500003EB0B006561B346354623612060A26062
:100560005A46494600F08AFBD8F80830A26820684D
:10057000551B58449E1BA5602060C8F808603EB318
:100580007E683B460837002EFAD0AE42D3F8009082
:10059000AB46B2D23546B346E2E7504600F078FCAF
:1005A00003460028D2D12169504600F0CBFB0C2332
:1005B00000224FF0FF30CAF80030A38943F0400317
:1005C000A381C8F80820C8F8042003B0BDE8F08F64
:1005D0000020C8F8040003B0BDE8F08F2DE9F04F0B
:1005E0000F4689899DB00C0691460393804603D53A
:1005F0003B69002B00F0FC803023002020218DF887
:100600002A3099F800300125814C09908DF8291085
:10061000002B00F09180252BCA4603D119E0252B31
:1006200000F093801AF8013F002BF8D1BAEB090BC8
:1006300000F082804A465B4639464046FFF7EEFEB0
:10064000013079D0099B9AF800205B440993002A75
:1006500072D000234FF0FF320AF1010A049307938E
:1006600006938DF853301A93059205E0049B001B06
:1006700005FA00F0184304909AF80010052220466D
:1006800000F0B6FAD1460AF1010A0028EED1049B27
:10069000D80644BF20228DF85320190748BF2B22CB
:1006A00099F8001048BF8DF853202A2971D0A1F184
:1006B0003002092A0BD8079B19F8011F03EB8303AB
:1006C00002EB4303A1F13002092AF5D907932E2941
:1006D00046D0DFF84CA10322504600F089FA48B119
:1006E0004022049BA0EB0A0002FA00F0034309F148
:1006F0000109049399F800300622194645488DF8FF
:10070000283009F1010900F073FA00284DD0424B5E
:10071000FBB103AB00933A46404B04A94046AFF30C
:1007200000800646721C07D0099B3344099399F850
:100730000030002B7FF46FAFBB895B064CBF4FF0DE
:10074000FF3009981DB0BDE8F08FBAEB090B80D0DF
:1007500070E7039B073323F0070308330393E3E7B2
:1007600099F8011009F101002A2928D00023A1F1EC
:100770003002092A05938146ABD819F8011F03EB13
:10078000830302EB4303A1F13002092AF5D9059353
:100790009FE7039A116804320029039222DB079134
:1007A00099F8011009F1010991E703AB00933A466A
:1007B0001A4B04A9404600F0CDF80646B2E7039B69
:1007C00009F102001A680433002A0393B8BF4FF0FE
:1007D000FF330592AEBF99F8021099F80210059305
:1007E000814676E7494243F0020307910493D7E735
:1007F000402100F0EFFA3860386110B140237B618E
:10080000FAE60C234FF0FF30C8F800309AE700BF3B
:100810006C56000878560008000000001D0400080F
:10082000745600082DE9F0470C460969A568914601
:100830008D42B8BF0D46156094F8431006461F461A
:10084000DDF8208011B16A1CC9F8002023689906E0
:100850005DD5D9F800200232C9F80020236813F0D2
:10086000060F19461DD1E1688A1A002AD8BF194619
:1008700017DD002504F1190A05E0E368D9F8002026
:100880009B1AAB420CDD0123524639463046C04725
:10089000013005F10105F0D14FF0FF30BDE8F087E0
:1008A000216894F84330003318BF01238A060AD523
:1008B0003021E21882F8431094F845105A1C224463
:1008C00082F84310023304F1430239463046C047F0
:1008D0000130E1D0236803F00603042B29D0A3687C
:1008E00022699342C8BF4FF0000930DD9B1A99443A
:1008F00000251A3401E04D4529D00123224639460E
:100900003046C047013005F10105F4D1C4E713F0CA
:10091000060F08D1E168D9F800208A1A002AD8BF4A
:100920001946A6DCBDE794F84330003318BF012315
:10093000C9E7D9F80010E068A3682269A0EB0109B3
:10094000934229EAE979D1DCB9F1000FD0D1002036
:10095000BDE8F0872DE9F0430C46097E85B06E298D
:1009600006461746984604F1430C0C9855D00FD80C
:10097000632900F0198100F2D48000295CD0582945
:1009800040F0E68084F845102268DFF85CE213E06E
:10099000732900F0FB8000F289806F2900F0E2806B
:1009A000702940F0D580226842F02002226078232E
:1009B000DFF838E284F845300368150603F10401D6
:1009C00000F1FD8055064BBF1B881B68016001606C
:1009D000D00744BF42F020022260002B40F09380F9
:1009E0001021226822F020022260002284F8432095
:1009F00060680028A060C0F28B80226822F00402A8
:100A00002260002B66D1002840F0848065460829CA
:100A10006ED0ACEB0503236111E023681A0600F1E8
:100A2000D18013F0400F0368626903F10401016093
:100A30001B6814BF1A801A60002365462361CDF835
:100A400000803B4603AA21463046FFF7EBFE01300B
:100A500021D02A46236939463046C04701301AD092
:100A60002368E06813F0020F039B19D0C21A002A12
:100A700016DD002504F1190904E0E068039BC21AA1
:100A8000AA420DDD01234A4639463046C0470130AF
:100A900005F10105F1D14FF0FF3005B0BDE8F0835D
:100AA0009842B8BF184605B0BDE8F083752959D003
:100AB00078294DD122687AE72D2061685B420029B0
:100AC00084F84300A16020DB0A2122F00402DFF851
:100AD00018E122606546B3FBF1F201FB12331EF808
:100AE0000300134605F8010D002AF4D1082990D11E
:100AF0002368D9078DD5626823699A4289DC30233F
:100B0000013D2B7085E710216FE70A21DFF8D8E05F
:100B1000002BDFD19EF8003004F1420584F842300A
:100B200075E7642901D0692912D122680368150686
:100B300003F1040152D455064BBFB3F900301B68D2
:100B400001600160002BB7DB0A21DFF89CE04FE772
:100B5000012384F84210236104F14205002384F844
:100B600043306CE723681A0633D413F0400F036850
:100B700003F1040215BF1B881B68026002606F2925
:100B800014BF0A210821DFF860E02EE703686268DD
:100B9000191D01601D680021284600F029F800B3E6
:100BA000401B60602061D9E70122036804F142051F
:100BB000191D1B68016084F842302261CEE7016094
:100BC0001B6805E703686269191D01601B681A60EC
:100BD00032E703681A1D02601B68D0E701601B68DA
:100BE000B0E76068DEE700BF805600089456000852
:100BF000830770B4CDB23DD0541E0AB30378AB4224
:100C00001FD0431C05E014F1FF3419D30278AA4227
:100C100017D013F0030F184603F10103F3D1032C8F
:100C200011D84CB30378AB420BD00444431C02E010
:100C30000278AA4205D09C42184603F10103F7D17D
:100C4000002070BC7047090289B2294341EA014182
:100C5000036806464B40A3F1013222EA030313F076
:100C6000803F00F1040003D1043C032CF0D8D8E706
:100C70003046D7E71446D2E72046E2E78842F0B58F
:100C80000DD98B1898420AD28418002A51D02246D6
:100C900013F8014D994202F8014DF9D1F0BD0F2A28
:100CA00048D941EA00039B0746D1154600F11004DC
:100CB00001F1100353F8106C103D44F8106C53F818
:100CC0000C6C0F2D44F80C6C53F8086C04F11004F4
:100CD00044F8186C53F8046C03F1100344F8146CD6
:100CE000E8D8A2F1100323F00F0302F00F0E103327
:100CF000BEF1030F1944034421D90E4674461D1F4B
:100D000056F8047B043C032C45F8047FF8D8AEF178
:100D1000040424F0030404342144234402F00302B5
:100D200062B1013B0A4411F8014B8A4203F8014FBA
:100D3000F9D1F0BD0346F3E70346F2E7F0BD724692
:100D4000EEE700BF91B151F8043C0439002BB8BF65
:100D5000C9181F4B1A68FAB18A4230B40AD9086818
:100D60000C18A24226D04A60196030BC70478B42F2
:100D700003D81A465368002BF9D1146815198D420F
:100D80000DD006D808680C189C4219D04B605160F1
:100D9000EBE70C230360E8E74A60196070470968D5
:100DA0000C44111999421460DFD10ACB0C44146031
:100DB0005360DAE714685268204481E80500D3E7FD
:100DC0001C685B68204481E809005160CDE700BFE2
:100DD000E800002070B5CC1C24F0030408340C2C6F
:100DE00038BF0C24002C06463BDBA14239D8274DE6
:100DF000296851B10B681B1B04D436E013681B1B18
:100E00001AD511464A68002AF8D16968002937D0F6
:100E10002146304600F064F8431C22D0C51C25F062
:100E20000305A84205D0291A304600F059F80130D0
:100E300017D02A462C6004E00B2B0DD913601A44FE
:100E4000146002F10B0020F00700131DC31A02D03A
:100E50005942D15070BD70BD8A420ED053684B606C
:100E6000EFE70C230020336070BD0B2B03D80A463C
:100E70004B682B60E5E70A46E0E70B460A46F8E7D1
:100E8000304600F02DF86860C2E700BFE80000209F
:100E9000F8B51446F9B1C2B106460D4600F032F875
:100EA000844201D82846F8BD21463046FFF792FF1C
:100EB000074670B122462946FFF7A4F929463D4668
:100EC0003046FFF73FFF2846F8BDFFF73BFF2546BA
:100ED000E8E70546E6E71146BDE8F840FFF77ABFC8
:100EE00038B50023064C05460846236000F014F888
:100EF000431C00D038BD2368002BFBD02B6038BDCD
:100F00002C2A002051F8040C0028A0F10400BCBFDA
:100F10000B58C018704700BF044A05491368002BDE
:100F200008BF0B461844106018467047F0000020B8
:100F3000302A0020FEE7000030B589B00024049478
:100F4000059406940794184B9A6942F010029A612E
:100F50009A6902F010020192019A9A6942F0200205
:100F60009A619A6902F020020292029A9A6942F00A
:100F700004029A619B6903F004030393039B0B4DE6
:100F800022464FF40051284601F00EFB4FF4005367
:100F900004930123059306940223079304A928468A
:100FA00001F00AFA09B030BD001002400010014003
:100FB00008B503F0EFFEFCE708B503F0A5FFFCE77A
:100FC00008B503F057FFFCE708B50268034B9A42E7
:100FD00000D008BD00F08AFDFBE700BF002C0140F7
:100FE000FEE7000008B50A480A4B03604FF4E133FE
:100FF000436000238360C36003610C22426183610C
:10100000C36101F03FFD00B908BDFFF7E9FF00BF74
:10101000802600200038014000B585B000230193F0
:10102000029303930F48104A0260836003730375B1
:101030004FF46022C26143600123036100F046FC6B
:1010400060B90123019302930023039301A905488A
:1010500000F0C4FA20B905B05DF804FBFFF7C0FF4B
:10106000FFF7BEFF502600200024014000B583B0EA
:101070000023ADF804308DF80630009319481A4A61
:1010800002604FF0FF324260836004F03DF918BB0C
:1010900017238DF8043000238DF8053030238DF8A8
:1010A0000630012201A90F4804F045F8B0B9062323
:1010B0008DF8003002238DF8013029238DF802309D
:1010C00020238DF8033001226946064804F094F885
:1010D00030B903B05DF804FBFFF782FFFFF780FF34
:1010E000FFF77EFFCC2600200028004008B50D4801
:1010F0000D4B03604FF48273436000238360C36031
:101100000222026143614FF480228261C361036263
:10111000436283620A23C36204F083F900B908BD05
:10112000FFF75EFFE02600200030014000B595B0DB
:10113000282200210DEB0200FFF7DAF800230593C7
:1011400006930793089309930193029303930493DF
:101150000A230A9301230E9310220F9210930AA8D8
:1011600000F0ECFCC0B90F23059300210691079114
:101170000891099105A800F01FFF78B90323019396
:101180004FF4007302930023039301A801F00CF8BD
:1011900030B915B05DF804FBFFF722FFFFF720FF21
:1011A000FFF71EFF08B500F08FFCFFF7BFFFFFF74A
:1011B000C3FEFFF717FFFFF72FFFFFF757FFFFF7FC
:1011C00095FF03F0D9FE03F007F9164A01218020AC
:1011D00003F0E2F9144B1860144A0121802003F057
:1011E000DBF9134B1860134A0021134803F03CF954
:1011F000124B1860124A0021124803F035F9124BC5
:101200001860124A0021124803F02EF9114B1860A1
:10121000114A0021114803F027F9114B186003F01F
:10122000FDF8FEE774550008C42600208C55000820
:101230003C2700202C550008B10F0008C0260020D4
:10124000C8550008B90F0008C826002050550008EE
:10125000350F000838270020A4550008C10F0008EA
:101260004C26002070477047FEE7FEE7FEE7FEE7EA
:101270007047000008B5024801F056FA08BD00BFEB
:101280008427002000B583B0114B9A6942F0010217
:101290009A619A6902F001020092009ADA6942F0BA
:1012A0008052DA61DB6903F080530193019B0022D5
:1012B0000F216FF0010001F0DBF9064A536823F0BB
:1012C000E06343F00073536003B05DF804FB00BFBC
:1012D000001002400000014000B587B000230293D7
:1012E0000393049305930268114B9A4202D007B00E
:1012F0005DF804FB03F56C439A6942F400729A614D
:101300009A6902F400720092009A9A6942F004020B
:101310009A619B6903F004030193019B02230293EA
:101320000323039302A9034801F046F8DFE700BF57
:10133000002401400008014002680C4B9A4200D092
:10134000704700B583B001F0D3F9094BDA6942F078
:101350000062DA61DB6903F000630193019B012203
:10136000044B1A6003B05DF804FB00BF0028004086
:10137000001002403C04424210B586B000230293A4
:101380000393049305930268164B9A4201D006B06A
:1013900010BD03F560439A6942F480529A619A69DC
:1013A00002F480520092009A9A6942F004029A6113
:1013B0009B6903F004030193019BB0230293022372
:1013C000039303230593084C02A9204600F0F4FF81
:1013D0004023029300230393049302A9204600F0C4
:1013E000EBFFD4E7003001400008014010B586B0A3
:1013F000002302930393049305930268174B9A42C8
:1014000001D006B010BD03F558439A6942F48042FA
:101410009A619A6902F480420092009A9A6942F0B5
:1014200004029A619B6903F004030193019B4FF44A
:10143000007302930223039303230593084C02A92C
:10144000204600F0B9FF4FF480630293002303931A
:10145000049302A9204600F0AFFFD2E70038014014
:1014600000080140F0B583B005460C460023019307
:1014700000F048FB2B689A6812F4807F23D106465F
:101480005A6812F4807F03D1DB6A13F4700F24D002
:101490004B4B1F68022000F011FFB7FBF0F72B68E1
:1014A0001969484A11422FD1D96802F15C421142B0
:1014B0002AD11969444A114239D1DA68434B1A4298
:1014C00037D029203AE0AB6A43F02003AB62002317
:1014D00085F82430012003B0F0BD2B681B6813F0A1
:1014E000020F48D1B4F1FF3FF7D024B100F00AFB5E
:1014F000801B8442F1D2AB6A43F00403AB62002349
:1015000085F824300320E6E719692F4A114204D1F7
:10151000D96802F16E4211420DD019692C4A0A4075
:101520005AB9DA682A4B13405BB1FC2006E0292047
:1015300004E0142002E0542000E0FC2007FB00F748
:1015400004E05420FAE7019B01330193019B9F4281
:1015500011D9B4F1FF3FF6D024B100F0D3FA801BCB
:101560008442F0D2AB6A43F00403AB62002385F8F7
:1015700024300320AFE72B686FF012021A60AB6AC9
:1015800043F40073AB622B689B6803F46023B3F5EC
:10159000602F01D000209EE72B7B6BB9AB6A23F450
:1015A0008073AB62AB6A13F4805F07D1AB6A43F020
:1015B0000103AB6200208EE700208CE700208AE761
:1015C0006C0000202449922492244912922449005C
:1015D000499224000368D86C7047000030B482B090
:1015E0000023019390F82430012B00F08B800246F9
:1015F000012380F824304B68062B29D80568686BD6
:1016000003EB8303053B1F249C4020EA04000C6885
:1016100004FA03F303436B630B68092B38D915688D
:10162000E86803EB43031E3B07249C4020EA0400C8
:101630008C6804FA03F30343EB600B68103B012B47
:1016400034D90020002382F8243002B030BC704727
:101650000C2B0ED80568286B03EB8303233B1F2458
:101660009C4020EA04000C6804FA03F303432B6354
:10167000D2E70568E86A03EB8303413B1F249C40E3
:1016800020EA04000C6804FA03F30343EB62C3E7A7
:101690001568286903EB430307249C4020EA0400F3
:1016A0008C6804FA03F303432B61C6E713681648FA
:1016B000834205D0936A43F0200393620120C1E77F
:1016C000986810F4000F1BD1986840F400009860EF
:1016D0000B68102B01D00020B4E70C4B1B680C49A1
:1016E000A1FB03139B0C03EB83035900019102E060
:1016F000019B013B0193019B002BF9D10020A1E745
:1017000000209FE70220A0E7002401406C00002099
:1017100083DE1B4330B583B00023019303689A68CE
:1017200012F0010F2ED19A6842F001029A60174B15
:101730001B68174AA2FB03239B0C019302E0019B49
:10174000013B0193019B002BF9D1044600F0DAF92B
:10175000054623689B6813F0010F11D100F0D2F900
:10176000401B0228F5D9A36A43F01003A362E36A81
:1017700043F00103E362002384F82430012002E0F7
:10178000002000E0002003B030BD00BF6C0000204E
:1017900083DE1B4390F82430012B02D1022318462C
:1017A000704710B50446012380F82430FFF7B2FFDC
:1017B000034600285BD1A26A22F4407222F00102A3
:1017C00042F48072A26222682B498A4227D0A16A21
:1017D00021F48011A162516811F4806F05D0A16AD3
:1017E00021F4405141F48051A162A16A11F4805F5B
:1017F0002BD0E16A21F00601E162002184F8241077
:101800006FF0020111602268916801F46021B1F566
:10181000602F1DD0916841F4801191602AE0A1F5FC
:101820008061496811F4702FD1D0A16A41F4801110
:10183000A1621249496811F4806FD6D0A16A21F4DF
:10184000405141F48051A162CFE70021E162D4E729
:1018500009498A4204D0916841F4A001916009E0ED
:10186000A1F58061496811F4702FD3D1F3E700220C
:1018700084F82420184610BD0028014000240140AF
:1018800038B503689A6812F0010F01D1002038BD05
:1018900004469A6822F001029A6000F033F9054686
:1018A00023689B6813F0010F0ED000F02BF9401B4A
:1018B0000228F5D9A36A43F01003A362E36A43F058
:1018C0000103E362012038BD002038BD00287FD02D
:1018D00038B50446836A002B4AD02046FFF7D0FF74
:1018E000A36A13F010036DD100286BD1A26A22F411
:1018F000885222F0020242F00202A2626268E169AA
:101900000A43257B42EA4502A168B1F5807F38D0C1
:10191000012933D0217D012936D02568696821F459
:1019200069410B436B6021688D682A4B2B40134340
:101930008B60A368B3F5807F37D0012B35D00023AF
:101940002568E96A21F470010B43EB62236899680A
:10195000214B0B409A422CD0A36A23F0120343F090
:101960001003A362E36A43F00103E362012038BD80
:10197000C36280F82430FFF7AFFCAEE74FF480730A
:10198000C8E74FF48073C5E735B9A169013943EA67
:10199000413343F40063C0E7A16A41F02001A16232
:1019A000E16A41F00101E162B7E72369013B1B05F0
:1019B000C6E70023E362A36A23F0030343F00103B5
:1019C000A36238BDA36A43F01003A362012038BDAF
:1019D00001207047FDF7E1FFFE0E1FFF70B582B0DA
:1019E0000023019390F82430012B03D102252846CF
:1019F00002B070BD0446012380F82430FFF740FF99
:101A0000054618B1002384F82430F0E7A36A23F4D4
:101A1000885323F0020343F00203A362294B1E689C
:101A2000022000F04BFCB6FBF0F04000019002E019
:101A3000019B013B0193019B002BF9D12046FFF74D
:101A400069FE2268936843F00803936000F05AF837
:101A5000064623689A6812F0080F0FD000F052F87B
:101A6000801B0A28F5D9A36A23F0120343F0100360
:101A7000A362002384F824300125B8E79A6842F075
:101A800004029A6000F03EF8064623689B6813F053
:101A9000040F0FD000F036F8801B0A28F5D9A36A8E
:101AA00023F0120343F01003A362002384F82430D0
:101AB00001259CE7A36A23F0030343F00103A3621B
:101AC000A0E700BF6C00002008B5074A136843F088
:101AD00010031360032000F0B9FD002003F01EF98D
:101AE000FFF7D0FB002008BD00200240034A116828
:101AF000034B1B780B441360704700BF4027002046
:101B000064000020014B1868704700BF4027002088
:101B100082B0084B1B68084AA2FB03235B0A00FB48
:101B200003F0019000BF019B5A1E0192002BF9D1D6
:101B300002B070476C000020D34D6210002800F006
:101B4000F58170B582B00446036813F0010F3DD0F3
:101B5000AB4B5B6803F00C03042B2ED0A84B5B68E7
:101B600003F00C03082B23D06368B3F5803F51D0FA
:101B7000002B55D103F1804303F504331A6822F496
:101B800080321A601A6822F480221A606368002B7F
:101B900060D0FFF7B7FF0546994B1B6813F4003F71
:101BA00014D1FFF7AFFF401B6428F5D90320C2E131
:101BB000934B5B6813F4803FD6D0914B1B6813F4B2
:101BC000003F03D06368002B00F0B281236813F05C
:101BD000020F65D08A4B5B6813F00C0F4ED0884B18
:101BE0005B6803F00C03082B43D02369002B79D0EA
:101BF0000122844B1A60FFF785FF0546804B1B6866
:101C000013F0020F65D1FFF77DFF401B0228F5D9C5
:101C1000032090E17A4A136843F480331360B5E7F8
:101C2000B3F5A02F09D0764B1A6822F480321A60DF
:101C30001A6822F480221A60A8E703F18043A3F512
:101C40003C331A6842F480221A601A6842F48032E7
:101C50001A609BE7FFF756FF0546694B1B6813F4B4
:101C6000003FB3D0FFF74EFF401B6428F5D9032097
:101C700061E1634B5B6813F4803FB6D1604B1B6836
:101C800013F0020F04D02369012B01D0012052E18F
:101C90005B4A136823F0F803616943EAC1031360E8
:101CA000236813F0080F32D0A369002B6ED00122F5
:101CB000554B1A60FFF726FF0546514B5B6A13F040
:101CC000020F21D1FFF71EFF401B0228F5D9032088
:101CD00031E14B4A136823F0F803616943EAC10319
:101CE0001360DDE70022474B1A60FFF70BFF054644
:101CF000434B1B6813F0020FD2D0FFF703FF401BCA
:101D00000228F5D9032016E10120FFF701FF23681F
:101D100013F0040F00F09880394BDB6913F0805FFB
:101D200046D1374BDA6942F08052DA61DB6903F061
:101D300080530193019B0125344B1B6813F4807F72
:101D400038D0E368012B49D0002B4DD103F18043FB
:101D500003F504331A6A22F001021A621A6A22F0A9
:101D600004021A62E368002B5CD0FFF7CBFE064644
:101D7000234B1B6A13F0020F65D1FFF7C3FE801BD4
:101D800041F288339842F3D90320D4E000221E4B5D
:101D90001A60FFF7B7FE0546194B5B6A13F0020F96
:101DA000B5D0FFF7AFFE401B0228F5D90320C2E0F3
:101DB0000025C1E7154A136843F480731360FFF7E9
:101DC000A1FE0646114B1B6813F4807FB9D1FFF7C3
:101DD00099FE801B6428F5D90320ACE0084A136AF9
:101DE00043F001031362BDE7052B11D0044B1A6ABF
:101DF00022F001021A621A6A22F004021A62B1E7A2
:101E00000010024000004242800442420070004044
:101E10004C4B1A6A42F004021A621A6A42F001023A
:101E20001A629FE7FFF76EFE0646464B1B6A13F0E9
:101E3000020F08D0FFF766FE801B41F288339842FC
:101E4000F3D9032077E0E5B9E369002B72D03D4A6E
:101E5000526802F00C02082A56D0022B17D000223A
:101E6000394B1A60FFF74EFE0446364B1B6813F0E1
:101E7000007F47D0FFF746FE001B0228F5D903205C
:101E800059E0304AD36923F08053D361DCE7002264
:101E90002D4B1A60FFF736FE05462A4B1B6813F0E0
:101EA000007F06D0FFF72EFE401B0228F5D9032045
:101EB00041E0236AB3F5803F1AD022494B6823F4EE
:101EC0007413226A606A024313434B6001221E4B63
:101ED0001A60FFF717FE04461A4B1B6813F0007FC9
:101EE0000ED1FFF70FFE001B0228F5D9032022E0D8
:101EF000144A536823F40033A1680B435360DCE7B2
:101F0000002018E0002016E0012B16D00D4B5B6876
:101F100003F48031226A914201D001200BE003F4E6
:101F20007013626A93420AD0012004E001207047D6
:101F3000012000E0002002B070BD0120FBE700207E
:101F4000F9E700BF001002406000424210B586B0C1
:101F5000154C94E80F000DF1180E0EE90F00238ABE
:101F6000ADF80430114B5B6803F00C02082A18D15D
:101F7000C3F38342724412F8102C13F4803F03D150
:101F80000B4800FB02F00DE0084B5B68C3F34043D5
:101F9000734413F8143C074800FB02F0B0FBF3F065
:101FA00000E0044806B010BD0455000800100240CF
:101FB00000093D0000127A00002800F0A38070B5EF
:101FC0000446524B1B6803F007038B420CD24F4A66
:101FD000136823F007030B431360136803F0070330
:101FE000994201D0012070BD236813F0020F17D071
:101FF00013F0040F04D0464A536843F4E06353607F
:10200000236813F0080F04D0414A536843F4605327
:1020100053603F4A536823F0F003A06803435360C2
:102020000D46236813F0010F31D06368012B20D0D7
:10203000022B25D0364A126812F0020F64D03449C0
:102040004A6822F0030213434B60FFF75BFD06462C
:102050002F4B5B6803F00C036268B3EB820F16D062
:10206000FFF750FD801B41F288339842F0D90320DE
:1020700070BD274A126812F4003FE0D1012070BD04
:10208000234A126812F0007FD9D1012070BD1F4B86
:102090001B6803F007039D420CD21C4A136823F00F
:1020A00007032B431360136803F007039D4201D01D
:1020B000012070BD236813F0040F06D0144A536842
:1020C00023F4E063E1680B435360236813F0080FC7
:1020D00007D00F4A536823F46053216943EAC103D0
:1020E0005360FFF733FF0A4B5B68C3F30313094ADE
:1020F000D35CD840084B1860084B186802F00EFEFD
:10210000002070BD01207047012070BD00200240FA
:1021100000100240305600086C00002068000020CB
:10212000014B1868704700BF6C00002008B5FFF72E
:10213000F7FF044B5B68C3F30223034AD35CD84028
:1021400008BD00BF001002404056000808B5FFF768
:10215000E7FF044B5B68C3F3C223034AD35CD84058
:1021600008BD00BF00100240405600080F23036066
:102170000B4B5A6802F0030242605A6802F0F00208
:1021800082605A6802F4E062C2605B68DB0803F4B4
:10219000E0630361034B1B6803F007030B607047A8
:1021A000001002400020024070B582B0044603686F
:1021B00013F0010F34D03E4BDB6913F0805F48D140
:1021C0003B4BDA6942F08052DA61DB6903F08053FD
:1021D0000193019B0125374B1B6813F4807F3AD094
:1021E000334B1B6A13F4407311D0626802F44072DF
:1021F00093420CD02E4A136A23F440702E490126D4
:102200000E6000260E60106213F0010F37D1284ACD
:10221000136A23F4407361680B431362002D3FD1AE
:10222000236813F0020F06D0214A536823F4404379
:10223000A1680B435360236813F0100F35D01C4A7C
:10224000536823F48003E1680B435360002002B01D
:1022500070BD0025BFE7174A136843F4807313600D
:10226000FFF750FC0646134B1B6813F4807FB7D171
:10227000FFF748FC801B6428F5D90320E7E7FFF748
:1022800041FC06460A4B1B6A13F0020FBFD1FFF751
:1022900039FC801B41F288339842F3D90320D6E7FA
:1022A000D36923F08053D361BAE70020CFE700BFA2
:1022B00000100240007000404004424230B587B038
:1022C0000546384C94E80F000DF1180E0EE90F008A
:1022D000238AADF80430022D53D0102D03D0012DE8
:1022E0002BD0002057E0304B5A681B6813F0807FDA
:1022F00053D0C2F3834306A90B4413F8100C12F415
:10230000803F16D0284B5B68C3F340430B4413F85F
:10231000142C264BB3FBF2F303FB00F0224B5B685B
:1023200013F4800F37D14000214BA3FB003040084D
:1023300031E0204B03FB00F0F0E71B4B1B6A40F23F
:1023400002321A40B2F5817F29D003F44073B3F50D
:10235000007F04D0B3F5407F09D000201BE0124A73
:10236000526A12F0020FF5D049F6404013E00E4BCE
:102370001B6813F4003F02D04FF224400BE0002012
:1023800009E0FFF7E3FE084B5B68C3F381330133D9
:102390005B00B0FBF3F007B030BD0020FBE74FF46B
:1023A0000040F8E7185500080010024000127A00BB
:1023B000ABAAAAAA00093D00F0B583B000263446B6
:1023C00071E0002D00F0A280012D00D1CE68FF2B1E
:1023D00000F2B0808646FF2B00F2AF80A500DEF849
:1023E00000200F27AF4022EA070206FA05F52A432C
:1023F000CEF800204A6812F0805F53D0644A956995
:1024000045F001059561926902F001020192019A7D
:10241000A508AF1C5F4A52F8272004F00307BF004D
:102420004FF00F0E0EFA07FE22EA0E02DFF874E1FB
:10243000704500F089800EF5806E704500F0878051
:102440000EF5806E704500F085800EF5806E70454B
:1024500077D04FF0040E0EFA07F73A4302354D4F8E
:1024600047F825204A6812F4803F76D04A4D2A6802
:102470001A432A604A6812F4003F74D0464D6A68D5
:102480001A436A604A6812F4801F72D0424DAA68EB
:102490001A43AA604A6812F4001F70D03E4DEA68E1
:1024A0001343EB6001340B6833FA04F26DD0012260
:1024B000A24013409A42F5D14D68122D30D00BD86E
:1024C000022D2AD07FF67DAF032D2FD0112D7FF462
:1024D0007EAFCE6804367AE7304FBD4216D00CD9B5
:1024E0002F4FBD4212D007F58037BD420ED0A7F561
:1024F0008017BD427FF46BAF08E0A7F58017BD429F
:1025000004D007F58037BD427FF461AF8D687DB19F
:10251000012D08D04261082659E7CE68083656E7F3
:10252000CE680C3653E70261082650E700264EE7D6
:1025300004264CE700F1040E4DE7A4F10805AD00B8
:102540004DE74FF0030E86E74FF0000E83E74FF0A4
:10255000010E80E74FF0020E7DE70F4D2A6822EA58
:1025600003022A6086E70C4D6A6822EA03026A6069
:1025700088E7094DAA6822EA0302AA608AE7064DA5
:10258000EA6822EA0303EB608CE703B0F0BD00BF0A
:102590000010024000000140000401400000211032
:1025A000000031100008014012B9090401617047B0
:1025B0000161704708B590F82130022B03D0042345
:1025C0008363012008BD0268136823F00E031360C3
:1025D0000268136823F0010313600368194A9342E9
:1025E00014D0143293421FD0143293421ED01432AE
:1025F00093421ED0143293421ED01432934202D022
:102600004FF0807203E04FF4801200E001220E4B85
:102610005A60012380F82130002380F82030436B7A
:102620006BB19847002008BD1022F0E74FF480728C
:10263000EDE74FF48052EAE74FF48032E7E70020FD
:1026400008BD00BF0800024000000240074AD368EE
:1026500023F4E0631B041B0C000200F4E060184349
:1026600040F0BF6040F40030D060704700ED00E003
:1026700030B4164BDB68C3F30223C3F10704042C08
:1026800028BF04241D1D062D17D9033B012505FA7B
:1026900004F4013C2140994005FA03F3013B134047
:1026A000194300280BDB0901C9B200F1604000F5B5
:1026B000614080F8001330BC70470023E6E700F06B
:1026C0000F000901C9B2024B1954F4E700ED00E014
:1026D00014ED00E0002808DB420900F01F00012390
:1026E00003FA00F0014B43F82200704700E100E0DC
:1026F0000122014B1A60704720000E4270470268A9
:10270000D36843F00103D3600268936803F00703C2
:10271000062B03D0136843F00103136000207047B9
:10272000704770477047704710B5044603681A69D0
:1027300012F0020F11D0DA6812F0020F0DD06FF014
:1027400002021A610123037703689B6913F0030FE8
:1027500070D0FFF7E6FF0023237723681A6912F091
:10276000040F12D0DA6812F0040F0ED06FF00402DA
:102770001A610223237723689B6913F4407F5FD09B
:102780002046FFF7CEFF0023237723681A6912F053
:10279000080F12D0DA6812F0080F0ED06FF008029E
:1027A0001A61042323772368DB6913F0030F4ED0EB
:1027B0002046FFF7B6FF0023237723681A6912F03B
:1027C000100F12D0DA6812F0100F0ED06FF0100256
:1027D0001A61082323772368DB6913F4407F3DD017
:1027E0002046FFF79EFF0023237723681A6912F023
:1027F000010F03D0DA6812F0010F36D123681A698D
:1028000012F0800F03D0DA6812F0800F34D1236801
:102810001A6912F0400F03D0DA6812F0400F32D17B
:1028200023681A6912F0200F03D0DA6812F0200F23
:1028300030D110BDFFF774FF2046FFF773FF8AE722
:102840002046FFF76DFF2046FFF76CFF9BE7204611
:10285000FFF766FF2046FFF765FFACE72046FFF76E
:102860005FFF2046FFF75EFFBDE76FF001021A61D0
:102870002046FEF7A9FBC1E76FF080021A612046EF
:1028800000F066F8C3E76FF040021A612046FFF7D8
:102890004AFFC5E76FF020021A61204600F057F8A2
:1028A000C7E7000003681C4A904227D0B0F1804F70
:1028B00024D0A2F59432904220D002F5806290425A
:1028C0001CD0154A90421ED0B0F1804F1BD0A2F50B
:1028D0009432904217D002F58062904213D023F0D8
:1028E00080034A69134303608B68C3620B68836289
:1028F000094B98420CD001234361704723F07003C9
:102900004A681343DDE723F44073CA681343E6E7DC
:102910000B690363EFE700BF002C0140A8B110B5BD
:10292000044690F83D305BB1022384F83D30211D10
:102930002068FFF7B7FF012384F83D30002010BD69
:1029400080F83C30FFF7DAFEEEE701207047704771
:102950007047000038B504460268136923F44053F9
:10296000C1680B43136183680269134342691343CF
:102970000168CA6822F4B05222F00C021343CB6003
:102980000268536923F4407381690B435361026801
:10299000214B9A421FD0FFF7C9FB216800EB800052
:1029A00000EB800063689B00B0FBF3F01B4DA5FBC0
:1029B00000325409642202FB140213013233A5FBD6
:1029C00003235B0903F0F00202EB041203F00F0390
:1029D00013448B6038BDFFF7B9FB216800EB800022
:1029E00000EB800063689B00B0FBF3F00B4DA5FB90
:1029F00000325409642202FB140213013233A5FB96
:102A000003235B0903F0F00202EB041203F00F034F
:102A100013448B6038BD00BF003801401F85EB5167
:102A20002DE9F04105460F4616469846069C2B6850
:102A30001B6837EA03030CBF01230023B3421ED1F6
:102A4000B4F1FF3FF3D02CB1FFF75CF8A0EB080026
:102A50008442ECD22A68D36823F4D073D3602A6806
:102A6000536923F001035361202385F8393085F839
:102A70003A30002385F838300320BDE8F08100208B
:102A8000BDE8F08158B310B5044690F839300BB367
:102A9000242384F839302268D36823F40053D360A8
:102AA0002046FFF757FF2268136923F49043136110
:102AB0002268536923F02A0353612268D36843F4E0
:102AC0000053D3600020E063202384F8393084F879
:102AD0003A3010BD80F83830FEF788FCD8E7012086
:102AE00070472DE9F04182B01E4690F83930DBB2D4
:102AF000202B04D00223184602B0BDE8F081044622
:102B00000D469046002955D0002A55D090F838300F
:102B1000012B01D10223EEE7012380F83830002396
:102B2000C363212380F83930FEF7ECFF0746A4F891
:102B30002480A4F8268010E000963B4600228021E5
:102B40002046FFF76DFF002838D122682B88C3F399
:102B5000080353602369CBB90235E38C9BB2BBB148
:102B6000E38C9BB2013B9BB2E384A368B3F5805F27
:102B7000E2D000963B46002280212046FFF750FF1E
:102B8000F0B923682A785A600135E6E70135E4E7B1
:102B900000963B46002240212046FFF741FF0346B6
:102BA00008B10323A7E7202284F83920002284F803
:102BB0003820A0E701239EE701239CE703239AE73F
:102BC000032398E790F83A30DBB2202B01D00220A3
:102BD0007047F9B102B390F83830012B1ED08162F2
:102BE0008285C2850023C363222280F83A2080F8C0
:102BF00038300168CA6842F48072CA6001684A6964
:102C000042F001024A610168CA6842F02002CA60CB
:102C10001846704701207047012070470220704716
:102C20007047000010B504460268D36823F490731F
:102C3000D3600268536923F00103536103685A6942
:102C400012F0400F19D05A6922F040025A61436BCA
:102C50005BB10E4A5A63406BFFF7ACFC08B9002029
:102C600010BD606B436B9847F9E70023C3852023B1
:102C700080F83A30FFF7D4FFF1E70023C385202323
:102C800080F83A30FFF7CCFFE9E700BF912C00084D
:102C900008B5406A0023C385202380F83A30FFF747
:102CA000BFFF08BD0F4B1A6842F001021A60596855
:102CB0000D4A0A405A601A6822F0847222F4803267
:102CC0001A601A6822F480221A605A6822F4FE02FE
:102CD0005A604FF41F029A604FF00062034B9A60F3
:102CE000704700BF001002400000FFF800ED00E058
:102CF00000F1080343604FF0FF328260C36003615C
:102D000000230360704700230361704743684B60F2
:102D10009A688A609A685160996008610368013313
:102D20000360704730B40D68B5F1FF3F02D000F189
:102D3000080202E0026904E01A4653681C68A542D2
:102D4000FAD253684B6099608A60516008610368E9
:102D50000133036030BC7047036942688168916049
:102D60008268416851605A68904206D00022026130
:102D70001A68013A1A601868704782685A60F5E765
:102D800010B5044601F0AEFEA26BE36B9A4204D08C
:102D9000002401F0C9FE204610BD0124F9E710B55A
:102DA000044601F09FFEA36B23B1002401F0BCFE9A
:102DB000204610BD0124F9E770B504461646856B20
:102DC000026C4AB9036853BB406801F09DF80023C8
:102DD00063600135A56370BD6EB98068FDF712FAB6
:102DE000226CA3681344A3606268934219D32368DA
:102DF000A3600020EDE7C068FDF704FA236C5B4296
:102E0000E2681A44E26021688A4202D2626813448E
:102E1000E360022E07D145B1013D0020D9E7002033
:102E2000D7E70020D5E70020D3E70020D1E7026CE8
:102E300072B110B50346C4681444C460406884424B
:102E400001D31868D8600846D968FDF7DBF910BDD2
:102E5000704738B5054601F045FE95F8454064B227
:102E600001E0013C64B2002C0ADD6B6A43B105F15C
:102E7000240000F0A1FF0028F3D001F02FF8F0E7C4
:102E8000FF2385F8453001F04FFE01F02BFE95F849
:102E9000444064B201E0013C64B2002C0ADD2B69BD
:102EA00043B105F1100000F087FF0028F3D001F0D6
:102EB00015F8F0E7FF2385F8443001F035FE38BD02
:102EC00038B530B304460D4601F00CFE2168E26BC4
:102ED000236C03FB021060600020A063A160013A34
:102EE00002FB0313E360FF2384F8443084F8453089
:102EF000C5B92369F3B104F1100000F05DFFC8B15A
:102F00004FF080520D4B1A60BFF34F8FBFF36F8F9E
:102F100010E04FF0500383F31188BFF36F8FBFF3BE
:102F20004F8FFEE704F11000FFF7E2FE04F12400EA
:102F3000FFF7DEFE01F0F8FD012038BD04ED00E0F2
:102F400038B51D46049C0B4649B12260E0632364FA
:102F500001212046FFF7B4FF84F84C5038BD2460AF
:102F6000F4E740B94FF0500383F31188BFF36F8F3C
:102F7000BFF34F8FFEE710B584B0044663B1A2B132
:102F8000A9B10120A8B94FF0500383F31188BFF312
:102F90006F8FBFF34F8FFEE74FF0500383F311881D
:102FA000BFF36F8FBFF34F8FFEE70120EAE70020EA
:102FB000E8E70AB901B1002040B94FF0500383F3AC
:102FC0001188BFF36F8FBFF34F8FFEE75020039040
:102FD0000398502808D04FF0500383F31188BFF3B3
:102FE0006F8FBFF34F8FFEE720461C46012384F806
:102FF000463000949DF81830FFF7A2FF204604B039
:1030000010BD40B94FF0500383F31188BFF36F8FA9
:10301000BFF34F8FFEE7F0B583B0064611B101FB59
:1030200000F000E0002017460C46503001F04AFC4A
:10303000054650B1002380F8463000903B4600F131
:10304000500221463046FFF77BFF284603B0F0BD13
:10305000F0B585B0019260B1044699B10125BDB9C2
:103060004FF0500383F31188BFF36F8FBFF34F8F7F
:10307000FEE74FF0500383F31188BFF36F8FBFF368
:103080004F8FFEE7026C0AB90125E8E70025E6E765
:10309000022B09D06DB94FF0500383F31188BFF3B1
:1030A0006F8FBFF34F8FFEE7E26B012AF2D000254E
:1030B000F0E71E460F4600F017FF10B9019B03B161
:1030C000002545B94FF0500383F31188BFF36F8F8C
:1030D000BFF34F8FFEE700252CE0324639462046ED
:1030E000FFF76AFE636A8BB104F1240000F064FE0E
:1030F00038B14FF08052374B1A60BFF34F8FBFF398
:103100006F8F01F011FD012005B0F0BD0028F8D04F
:103110004FF080522F4B1A60BFF34F8FBFF36F8F6A
:10312000EFE701F001FD0020EEE72046FFF791FEFA
:1031300000F002FD01F0D6FCA26BE36B9A42CCD307
:10314000022ECAD0019B002BEBD01DB902A800F0C3
:1031500079FE012501F0E8FC00F050FC01F0C2FC12
:1031600094F844305BB2B3F1FF3F02D1002384F8FE
:10317000443094F845305BB2B3F1FF3F02D10023F5
:1031800084F8453001F0D0FC01A902A800F066FEE9
:10319000C8B92046FFF7F4FD0028C6D0019904F114
:1031A000100000F0D5FD2046FFF753FE00F0C4FCF0
:1031B0000028BFD14FF08052064B1A60BFF34F8FEB
:1031C000BFF36F8FB6E72046FFF743FE00F0B4FC75
:1031D000002099E704ED00E02DE9F84360B10446D2
:1031E00099B10120B8B94FF0500383F31188BFF3B0
:1031F0006F8FBFF34F8FFEE74FF0500383F31188BB
:10320000BFF36F8FBFF34F8FFEE7006C08B901204B
:10321000E8E70020E6E7022B09D068B94FF0500339
:1032200083F31188BFF36F8FBFF34F8FFEE7E56B1A
:10323000012DF2D00020F0E71F469046894601F0AC
:103240003FFDEFF311864FF0500383F31188BFF376
:103250006F8FBFF34F8FA26BE36B9A4201D3022FA4
:1032600021D194F845506DB23A4649462046FFF7C1
:10327000A3FDB5F1FF3F10D1636AB3B104F124009F
:1032800000F09AFD98B1B8F1000F12D00120C8F8F3
:10329000000086F31188BDE8F8836B1C5BB284F8EC
:1032A00045300120F5E70020F3E70120F1E7012098
:1032B000EFE70120EDE70000F0B585B0019260B1C5
:1032C000044699B10125BDB94FF0500383F311882D
:1032D000BFF36F8FBFF34F8FFEE74FF0500383F3C1
:1032E0001188BFF36F8FBFF34F8FFEE7036C0BB9ED
:1032F0000125E8E70025E6E70E4600F0F5FD10B9E8
:10330000019B03B1002545B94FF0500383F31188A9
:10331000BFF36F8FBFF34F8FFEE700272FE03146DB
:103320002046FFF784FD013DA563236963B104F1E5
:10333000100000F041FD38B14FF08052344B1A605C
:10334000BFF34F8FBFF36F8F01F0EEFB012005B08D
:10335000F0BD01F0E9FB0020F9E702A800F072FDE2
:10336000012716E0002384F844301EE0002384F88F
:10337000453020E02046FFF76CFD00F0DDFB01F05A
:10338000B1FBA56B002DCAD1019B002BE1D0002F12
:10339000E3D001F0C9FB00F031FB01F0A3FB94F88E
:1033A00044305BB2B3F1FF3FDCD094F845305BB200
:1033B000B3F1FF3FDAD001F0B7FB01A902A800F09A
:1033C0004DFDC8B92046FFF7EAFC0028D2D001998C
:1033D00004F1240000F0BCFC2046FFF73AFD00F0A9
:1033E000ABFB0028CBD14FF08052094B1A60BFF3E2
:1033F0004F8FBFF36F8FC2E72046FFF72AFD00F023
:103400009BFB2046FFF7CBFC0028B8D000209EE7AE
:1034100004ED00E02DE9F84360B1044699B10123C1
:10342000BBB94FF0500383F31188BFF36F8FBFF325
:103430004F8FFEE74FF0500383F31188BFF36F8F78
:10344000BFF34F8FFEE7036C0BB90123E8E70023BE
:10345000E6E71746894601F033FCEFF311864FF09B
:10346000500383F31188BFF36F8FBFF34F8FD4F8EE
:103470003880B8F1000F20D094F844506DB249461E
:103480002046FFF7D4FC08F1FF33A363B5F1FF3FFB
:103490000DD123699BB104F1100000F08DFC80B1C7
:1034A0008FB10120386086F31188BDE8F8836B1C6A
:1034B0005BB284F844300120F5E70020F3E70120F7
:1034C000F1E70120EFE70120EDE740B94FF05003AD
:1034D00083F31188BFF36F8FBFF34F8FFEE710B5F3
:1034E000044601F0FFFAA46B01F01EFB204610BD5C
:1034F00008B1806B70474FF0500383F31188BFF31E
:103500006F8FBFF34F8FFEE70023072B0CD8074ABE
:1035100052F833200AB10133F7E7044A42F8331076
:1035200002EBC30358607047704700BF4427002078
:1035300070B504460D46164601F0D4FA94F84430AE
:103540005BB2B3F1FF3F0DD094F845305BB2B3F1FD
:10355000FF3F0BD001F0E8FAA36B5BB12046FFF709
:1035600078FC70BD002384F84430EDE7002384F834
:103570004530EFE73246294604F1240000F000FC14
:10358000ECE700000A4B1B681B684BB901234BB9E1
:10359000074B1B68DB68DB685A68064B1A6070478C
:1035A0000023F4E74FF0FF32024B1A60704700BF70
:1035B000F8000020A00500202DE9F04781460D46C7
:1035C00017469A46089EDDF824800A9C9200A521A1
:1035D000206BFCF78DFE236B07F18042013A03EB71
:1035E000820727F0070700230F2B07D8E95CE218B2
:1035F00082F83410EA5C0AB10133F5E7002384F85D
:103600004330372E00D93726E662E664002525656B
:10361000201DFFF778FB04F11800FFF774FB24610D
:10362000C6F13806A6616462656584F85850524652
:103630004946384601F032FA2060B8F1000F01D057
:10364000C8F80040BDE8F08738B5002407E004EB77
:10365000840293000E481844FFF74AFB0134372CCC
:10366000F5D90C4D2846FFF743FB0B4C2046FFF7DE
:103670003FFB0A48FFF73CFB0948FFF739FB0948C5
:10368000FFF736FB084B1D60084B1C6038BD00BFC0
:1036900000010020780500208C050020A8050020EE
:1036A000D4050020C0050020F8000020FC00002008
:1036B00010B5044601F016FA214A1368013313606D
:1036C000204B1B68002B32D01F4B1B683BB91D4B96
:1036D0001B68DA6AE36A9A4201D81A4B1C601B4ADB
:1036E0001368013313606364E36A194A12689342F2
:1036F00001D9174A136003EB83039A00211D154873
:103700001044FFF703FB01F00FFA0F4B1B686BB17E
:103710000C4B1B68DA6AE36A9A4207D24FF0805278
:103720000D4B1A60BFF34F8FBFF36F8F10BD054B6A
:103730001C601368012BD2D1FFF786FFCFE700BFD3
:1037400060050020F4000020BC050020700500206A
:10375000740500200001002004ED00E010B50446CF
:1037600090F8593063B1012B11D0022B12D04FF0D9
:10377000500383F31188BFF36F8FBFF34F8FFEE7C2
:10378000006B01F023F9204601F020F910BD01F093
:103790001DF910BD10BD00000F4B1B68D3B110B553
:1037A00001F0A0F90D4BDB68DC68201DFFF7D4FAAF
:1037B0000B4A1368013B1360074A1368013B13600F
:1037C00001F0B2F92046FFF7C9FF034B1B68002B3D
:1037D000E6D110BD704700BF64050020D40500206D
:1037E0006005002008B5FFF7D7FF064B1B68012BCB
:1037F000F9D94FF08052044B1A60BFF34F8FBFF3DB
:103800006F8FF0E70001002004ED00E070B5044682
:103810000E46174B1D68174B18680430FFF79CFACB
:10382000B4F1FF3F13D02C44124B1B685C60A542DF
:1038300016D8114B18680F4B19680431FFF772FA4C
:103840000E4B1B689C4201D20C4B1C6070BD002EBD
:10385000E9D0084B196804310948FFF757FA70BDE1
:10386000084B1868034B19680431FFF75BFA70BD09
:10387000E8050020F4000020F8000020A00500204A
:10388000C0050020FC00002070B586B00B9D0C9C8C
:1038900075B1B4B15C260496049E5C2E1AD04FF02C
:1038A000500383F31188BFF36F8FBFF34F8FFEE791
:1038B0004FF0500383F31188BFF36F8FBFF34F8F27
:1038C000FEE74FF0500383F31188BFF36F8FBFF310
:1038D0004F8FFEE72563022584F859500025039594
:1038E000029405AD01950A9D0095FFF765FE2046FF
:1038F000FFF7DEFE059806B070BD2DE9F04385B0F8
:1039000006460F4615469846900000F0DBFF10B3C0
:1039100081465C2000F0D6FF0446C0B1C0F830906C
:10392000DCB1002384F85930039302940D9B01937A
:103930000C9B009343462A4639463046FFF73CFE2F
:103940002046FFF7B5FE012005B0BDE8F0834846EC
:1039500001F03CF8E4E70024E2E74FF0FF30F3E742
:1039600010B588B000240594069407AA06A905A8F6
:1039700000F034FF059B0293069B019300942346BD
:10398000079A19491948FFF77FFF48B1012001281C
:1039900008D0012809D0B0F1FF3F1BD008B010BDFE
:1039A0000020F4E700F064FBF3E74FF0500383F3EB
:1039B0001188BFF36F8FBFF34F8F4FF0FF320C4B67
:1039C0001A6001220B4B1A6000220B4B1A6001F0A7
:1039D0001BF9E3E74FF0500383F31188BFF36F8FB8
:1039E000BFF34F8FFEE700BF48560008E5370008D9
:1039F000A0050020BC050020E8050020024A13684D
:103A000001331360704700BF6C050020014B18683C
:103A1000704700BFE8050020F8B53C4B1B68002B41
:103A200068D13B4B1D6801351D60C5B9394B1B681A
:103A30001B6843B14FF0500383F31188BFF36F8FBE
:103A4000BFF34F8FFEE7334A1168334B186810609D
:103A50001960324A136801331360FFF793FD304B4E
:103A60001B689D423AD200242E4B1B68DB6A03EB95
:103A700083039A002C4B9B58012B40D901243EE034
:103A80000124244B1B681B6853B3002353BB214BF9
:103A90001B68DB68DE6873689D4228D3371D384693
:103AA000FFF75AF9B36A1BB106F11800FFF754F992
:103AB000F36A1E4A1268934201D91C4A136003EB51
:103AC00083039A00394618481044FFF71FF9F26A39
:103AD000144B1B68DB6A9A42D2D2D2E70024D0E7AB
:103AE0000123D3E74FF0FF320D4B1A60BCE70C4ABD
:103AF0001360B9E70E4A13680133136000240D4BBD
:103B00001B6803B101242046F8BD00BF6C050020EE
:103B1000E8050020F8000020FC000020A40500209B
:103B2000A0050020F4000020000100207405002002
:103B300068050020EC05002038B5354B1B6843B9FB
:103B40004FF0500383F31188BFF36F8FBFF34F8F94
:103B5000FEE700F0C7FF2E4B1A68013A1A601B6897
:103B6000002B50D12B4B1B6823B9002400F0DCFF45
:103B7000204638BD0024284B1B681BB3264BDB684E
:103B8000DC6804F11800FFF7E7F8251D2846FFF769
:103B9000E3F8E36A214A1268934201D91F4A13608D
:103BA00003EB83039A0029461D481044FFF7AEF843
:103BB000E26A1C4B1B68DB6A9A42DCD301221A4B77
:103BC0001A60D8E70CB1FFF7DDFC184B1C6874B91C
:103BD000154B1B68CBB14FF08052154B1A60BFF3E9
:103BE0004F8FBFF36F8F0124C0E7013C07D0FFF771
:103BF00013FF0028F9D001220B4B1A60F5E70022D1
:103C00000A4B1A60E4E70024B0E70024AEE700BFE7
:103C10006C05002060050020A80500207405002028
:103C200000010020F4000020EC05002068050020C1
:103C300004ED00E010B5A8B10446104B1B6843B179
:103C40004FF0500383F31188BFF36F8FBFF34F8F93
:103C5000FEE7FFF7D3FE00212046FFF7D7FDFFF771
:103C60006BFF00E0002038B94FF08052044B1A601F
:103C7000BFF34F8FBFF36F8F10BD00BF6C050020E7
:103C800004ED00E02D4B1B68FBB910B500222C4B56
:103C90001A602C4B1B681B6B1A68B2F1A53F03D14D
:103CA0005A68B2F1A53F14D0264B18681968343110
:103CB000FDF7D8FA244B1B6803EB83018A002349E4
:103CC0008A58C2B973B1013BF6E701221C4B1A6056
:103CD00070479A68B2F1A53FE6D1DB68B3F1A53F22
:103CE000E2D1E7E74FF0500383F31188BFF36F8F02
:103CF000BFF34F8FFEE708469A00D418A100014495
:103D00004C6864684C601A4491000831084484424D
:103D10000BD003EB830291000C4A0A445268D1682D
:103D2000084A1160084A136010BD606803EB830203
:103D30009100064A0A445060EBE700BF6C05002082
:103D4000EC050020F4000020740500200001002094
:103D500040B94FF0500383F31188BFF36F8FBFF367
:103D60004F8FFEE710B50C46044B19681831FEF76B
:103D7000D9FF01212046FFF749FD10BDF4000020C6
:103D800038B570B10C4615460A4A11681831FEF76D
:103D9000BDFF0DB14FF0FF3429462046FFF736FD39
:103DA00038BD4FF0500383F31188BFF36F8FBFF31B
:103DB0004F8FFEE7F400002038B5C368DC6824B3F9
:103DC00004F118052846FEF7C7FF184B1B682BBBEC
:103DD000251D2846FEF7C0FFE36A154A1268934284
:103DE00001D9134A136003EB83039A002946114853
:103DF0001044FEF78BFFE26A0F4B1B68DB6A9A42A6
:103E000011D901200D4B186038BD4FF0500383F3DA
:103E10001188BFF36F8FBFF34F8FFEE72946084825
:103E2000FEF774FFE7E7002038BD00BF6C050020F7
:103E30007405002000010020F4000020EC050020A3
:103E4000A8050020034B1B680360034B1B684360FD
:103E5000704700BFA4050020E8050020F8B5E0B1D8
:103E6000054619B30C4600F03DFE1A4B1868696808
:103E7000421A2368B3F1FF3F28D02F68164E3668E8
:103E8000B74201D0884223D29A4218D3002323603C
:103E9000012400F049FE2046F8BD4FF0500383F3A3
:103EA0001188BFF36F8FBFF34F8FFEE74FF05003C2
:103EB00083F31188BFF36F8FBFF34F8FFEE79B1A19
:103EC00023602846FFF7BEFF0024E2E70024E0E776
:103ED0000124DEE7E8050020A40500200122014BB3
:103EE0001A607047EC050020054B1B6823B1054B99
:103EF0001B681BB9022070470120704700207047E3
:103F0000BC0500206C050020002839D038B50446D7
:103F10001E4A1268904208D04FF0500383F3118874
:103F2000BFF36F8FBFF34F8FFEE7026D42B94FF0C3
:103F3000500383F31188BFF36F8FBFF34F8FFEE7FA
:103F4000013A0265C06AE16C88421BD0E2B9251DC6
:103F50002846FEF701FFE36CE362C3F13802A26179
:103F60000B4A1268934201D9094A136003EB830399
:103F70009A00294607481044FEF7C8FE012038BDC4
:103F800000207047002038BD002038BDF40000201C
:103F90007405002000010020064B1A681368B3FA6C
:103FA00083F35B09036013B9D36818687047002076
:103FB000704700BFF005002008B5416000619142E4
:103FC0000CD8D21A83699A4201D3012008BD011D81
:103FD000094B1868FEF7A6FE002008BD9A4201D2E0
:103FE000994206D2011D054B1868FEF79BFE002082
:103FF00008BD012008BD00BFF4050020F005002029
:1040000030B583B000F06EFD114B1B681BB100F0A2
:104010008BFD03B030BD0F4D2846FEF769FE0E4CF8
:104020002046FEF765FE0D4B1D600D4B1C60002306
:1040300000930C4B0C4A10210A20FEF792FF044B10
:1040400018600028E3D00949FFF75EFADFE700BFF8
:104050001407002098060020AC060020F005002080
:10406000F4050020C4060020F80500205056000882
:1040700010B588B0FFF7C4FF154B1B681BB30024B5
:104080000594069407AA06A905A800F0B3FB059BB2
:104090000293069B0193022300932346079A0D493E
:1040A0000D48FFF7F1FB0D4B186050B1012060B9CE
:1040B0004FF0500383F31188BFF36F8FBFF34F8F1F
:1040C000FEE72046F3E70020F1E708B010BD00BF8F
:1040D0001407002058560008C143000818070020A4
:1040E000C0B130B585B015460446174A106840B3D4
:1040F0001A4600910195029405291CDCFFF7F4FE95
:10410000022810D000231A4669460F480068FEF7BF
:104110009FFF14E04FF0500383F31188BFF36F8FBC
:10412000BFF34F8FFEE70023089A694606480068F0
:10413000FEF78EFF03E000236946FFF74DF805B058
:1041400030BD0020FBE700BF1407002070B582B02F
:104150001A4B1B681A6852B3DB681E68DC68251DA1
:104160002846FEF7F9FD636A20469847E369012B6C
:10417000EED1A36933449E4207D26360246129468D
:104180000E4B1868FEF7CEFDE2E7002100910B46CA
:1041900032462046FFF7A4FF0028D9D14FF0500344
:1041A00083F31188BFF36F8FBFF34F8FFEE7044A8D
:1041B000106802490860136002B070BDF00500206D
:1041C000F405002038B50546FFF720FC0446074BF0
:1041D0001B68984205D300232B60044B1C602046CB
:1041E00038BDFFF7B3FF01232B60F6E7C0060020C0
:1041F00070B582B005460E46144B1B68DB68DC6860
:10420000201DFEF7A9FDE369012B04D0636A204657
:10421000984702B070BDA1692B463246294420461A
:10422000FFF7CAFE0028F1D0002100910B462A4674
:104230002046FFF755FF0028E8D14FF0500383F3E5
:104240001188BFF36F8FBFF34F8FFEE7F00500209B
:1042500070B582B006460C46FFF7D0FB01A8FFF709
:10426000B1FF019B23BB05460CB9B04219D22CB15A
:10427000114B1B681C68B4FA84F464092246711B54
:104280000E4B1868FFF754F9FFF756FC38B94FF09A
:1042900080520B4B1A60BFF34F8FBFF36F8F02B08A
:1042A00070BDFFF749FC29463046FFF7A1FFF6E74E
:1042B000FFF742FCF3E700BFF405002014070020DD
:1042C00004ED00E030B589B002E0049B002B0FDA6A
:1042D000002204A9394B1868FEF7EEFF00286AD0C7
:1042E000049B002BF1DA07990698059B9847ECE7A9
:1042F000069C636913B1201DFEF72EFD03A8FFF78E
:1043000061FF049B092BE3D801A252F823F000BF00
:10431000394300083943000839430008D1420008F6
:1043200081430008A74300083943000839430008C7
:10433000D1420008814300080599A5690B46024651
:1043400029442046FFF738FE0028C1D0636A204682
:104350009847E369012BBBD1A269002100910B466C
:10436000059802442046FFF7BBFE0028B0D14FF06D
:10437000500383F31188BFF36F8FBFF34F8FFEE7B6
:104380000599A16131B10346024601442046FFF779
:1043900013FE9DE74FF0500383F31188BFF36F8F37
:1043A000BFF34F8FFEE794F82C30002B90D12046BE
:1043B00000F00CFB8CE709B030BD00BF14070020F3
:1043C00000B583B001A8FFF7E7FD0199FFF740FFB3
:1043D000FFF778FFF6E70000EFF305839BB9EFF3F3
:1043E00010839BB90C4B1B68022B05D08BB90122A3
:1043F000094B1A6000207047EFF31182002AF5D0B4
:104400006FF0050070476FF0050070476FF0050012
:1044100070474FF0FF3070477809002008B5EFF380
:104420000583B3B9EFF31083B3B90E4B1B68022BAE
:1044300008D0012B13D102220A4B1A60FFF790FA21
:10444000002008BDEFF31182002AF2D06FF00500C2
:1044500008BD6FF0050008BD6FF0050008BD4FF006
:10446000FF3008BD78090020F0B587B0002404941F
:10447000EFF3058454BBEFF310833BBB344B1B6855
:10448000022B26D010B300238DF81730002A32D02B
:1044900016681EB3946904B91824631E372B52D8CA
:1044A000536813F0010F50D15369D3B14FEA930E03
:1044B00095682DB1D7685B2F02D9176907B10BBB7F
:1044C00095B14FF0FF35012D23D075B3049807B097
:1044D000F0BDEFF31183002BF8D1D3E70DF11706F0
:1044E000D8E74FF0800EE3E7D3686BB9136973B177
:1044F0004FF0FF35E7E7002518244FF0800E0DF14F
:104500001706E0E70125DEE74FF0FF35DBE7002582
:10451000D9E7136992680292019300940B467246A0
:104520003146FFF7B1F90490D0E704AA0192009454
:104530000B461FFA8EF23146FFF7DFF90128C5D08E
:1045400000230493C2E70020C1E70020BFE700BFBB
:104550007809002008B5EFF30583A3B9EFF31083C2
:10456000A3B90C4B1B68022B02D040B9002008BD38
:10457000EFF31183002BF8D06FF0050008BDFFF7B3
:1045800059FB002008BD6FF0050008BD6FF0050065
:1045900008BD00BF7809002030B583B0EFF3058374
:1045A000002B53D1EFF31083002B51D12B4B1B6801
:1045B000022B21D000284DD000294DD072B3936832
:1045C0004BB1D4684F2C06D9146924B1556901FB4D
:1045D00000F4A54224D2ABB14FF0FF331446012BB7
:1045E00025D063B3002525B174B321682846FEF7B2
:1045F0008BFF284603B030BDEFF31183002BD9D0D9
:104600000025F6E7D3686BB9136913B14FF0FF3398
:10461000E4E753694BB14FF0FF33DFE70023DDE7F9
:104620000123DBE74FF0FF33D8E70023D6E7002371
:10463000009393681269FEF794FC0546D3E70022C5
:10464000FEF7DFFC0546CEE70021CFE70025D0E7E7
:104650000025CEE70025CCE70025CAE77809002031
:1046600010B582B01C46EFF30583B3B9EFF31083A6
:104670009BB9224B1B68022B0BD0A0B3B1B3002314
:104680002246FEF7E5FC012833D0A4B36FF0010009
:1046900019E0EFF31183002BEFD0B0B1C1B1D4B961
:1046A000002302AA42F8043DFEF796FD012815D129
:1046B000019BB3B14FF08052114B1A60BFF34F8F83
:1046C000BFF36F8F002002B010BD6FF00300FAE758
:1046D0006FF00300F7E76FF00300F4E76FF00200FC
:1046E000F1E70020EFE76FF00300ECE76FF0030065
:1046F000E9E70020E7E76FF00200E4E7780900202F
:1047000004ED00E010B582B01C46EFF30583ABB9B1
:10471000EFF3108393B9224B1B68022B0AD098B396
:10472000A9B32246FEF7C8FD012833D0A4B36FF029
:10473000010019E0EFF31183002BF0D0B0B1C1B14B
:10474000D4B902AA002342F8043DFEF763FE012813
:1047500015D1019BB3B14FF08052124B1A60BFF3D9
:104760004F8FBFF36F8F002002B010BD6FF00300BA
:10477000FAE76FF00300F7E76FF00300F4E76FF07C
:104780000200F1E70020EFE76FF00300ECE76FF0C5
:104790000300E9E70020E7E76FF00200E4E700BF6D
:1047A0007809002004ED00E0A0B108B5EFF305831F
:1047B0006BB9EFF3108353B9074B1B68022B02D080
:1047C000FEF783FE08BDEFF31183002BF8D0FEF750
:1047D0008FFE08BD0020704778090020034B03605E
:1047E000034B0B6080231360704700BF1C0900203F
:1047F0001C070020034B0360034B0B604FF48073D6
:10480000136070477C0D00207C090020124A12F0D2
:10481000070F1ED0D11D21F00701C1F5C05313446D
:104820000A460E480260002141601344083B23F011
:1048300007030B48036059601960991A51601360AF
:10484000084B1960084B19604FF00042074B1A6083
:1048500070474FF4C053E4E7DC0D0020E82500204A
:10486000D80D0020E4250020E0250020DC250020D4
:1048700010B4124B1A6882421AD359685C18A042CD
:1048800003D1406801445960184641684418A24267
:1048900012D10B4C2468A2420CD0526811444160E2
:1048A0001A6812680260984200D0186010BC704705
:1048B0001346DFE70460F6E70260F4E7E82500202E
:1048C000D80D002070B50446FFF798F83A4B1B68E6
:1048D000BBB13A4B1B681C4263D1ACB1083414F035
:1048E000070F11D024F00704083404F007035BB16C
:1048F0004FF0500383F31188BFF36F8FBFF34F8FD7
:10490000FEE7FFF783FFE4E7002C4CD02C4B1B683D
:104910009C424AD82B4B1D6801E02B4615466A681D
:10492000944202D92A68002AF7D1234A1268954294
:104930003DD01E6808362A681A606B681B1B102B56
:1049400010D9281910F0070F08D04FF0500383F347
:104950001188BFF36F8FBFF34F8FFEE743606C602A
:10496000FFF786FF6A6816490B689B1A0B601649A9
:1049700009688B4201D214490B60104B1B6813432A
:104980006B6000232B60FFF7D7F816F0070F10D0ED
:104990004FF0500383F31188BFF36F8FBFF34F8F36
:1049A000FEE70026EFE70026EDE70026EBE700260E
:1049B000E9E7304670BD00BFD80D0020DC2500209F
:1049C000E0250020E8250020E425002080B338B54C
:1049D0000446A0F1080550F8042C164909680A425B
:1049E00008D14FF0500383F31188BFF36F8FBFF3EB
:1049F0004F8FFEE750F8080C40B14FF0500383F39F
:104A00001188BFF36F8FBFF34F8FFEE722EA0102D9
:104A100044F8042CFEF7F2FF54F8041C064A13680D
:104A20000B4413602846FFF723FFFFF785F838BDD6
:104A3000704700BFDC250020E025002082B0002365
:104A400001930D4B1B68B3F1FF3F08D04FF05003AB
:104A500083F31188BFF36F8FBFF34F8FFEE74FF0E3
:104A6000500383F31188BFF36F8FBFF34F8F019B08
:104A7000002BFCD002B07047700000200648006890
:104A8000006880F3088862B661B6BFF34F8FBFF34A
:104A90006F8F00DF00BF000008ED00E04FF0807373
:104AA00040F8043C21F0010140F8081C034B40F899
:104AB0000C3C40F8202C4038704700BF3D4A0008AD
:104AC000074B19680868B0E8F00F80F30988BFF356
:104AD0006F8F4FF0000080F311884EF00D0E70477D
:104AE000F40000204FF0500383F31188BFF36F8F61
:104AF000BFF34F8F0A4A136801331360012B0DD1A6
:104B0000084B1B6813F0FF0F08D04FF0500383F3DE
:104B10001188BFF36F8FBFF34F8FFEE7704700BF61
:104B20007000002004ED00E0094B1B6843B94FF012
:104B3000500383F31188BFF36F8FBFF34F8FFEE7EE
:104B4000013B034A13600BB983F31188704700BF20
:104B500070000020000000000000000000000000C5
:104B6000EFF30980BFF36F8F0D4B1A6820E9F00F48
:104B700010602DE908404FF0500080F31188FFF7D6
:104B800081F84FF0000080F31188BDE808401968F3
:104B90000868B0E8F00F80F30988BFF36F8F7047A3
:104BA000F400002008B54FF0500383F31188BFF3E1
:104BB0006F8FBFF34F8FFEF72FFF18B14FF080526A
:104BC000024B1A60002383F3118808BD04ED00E056
:104BD000084A0023136008490B60084B1B6808490A
:104BE000A1FB03139B09013B06490B6007231360DC
:104BF000704700BF10E000E018E000E06C0000200B
:104C0000D34D621014E000E010B582B0274B1A7843
:104C1000D2B20192FF221A701B78DBB28DF80330FA
:104C20009DF8033003F05003214A13700722214BF3
:104C30001A6009E01F4A1368013B13609DF80330B6
:104C40005B00DBB28DF803309DF8033013F0800F6A
:104C5000F0D1184B1B68032B08D04FF0500383F39F
:104C60001188BFF36F8FBFF34F8FFEE71B0203F472
:104C7000E063104A1360019BDBB20C4A13700E4BC9
:104C80001A6842F470021A601A6842F070421A60A0
:104C9000FFF79EFF0024094B1C60FFF7EFFEFEF7B5
:104CA000F1FFFFF7CBFE204602B010BD00E400E0AC
:104CB000F0250020F425002020ED00E07000002009
:104CC000EFF305830F2B0FD9104A9B5CDBB2104A20
:104CD0001278934208D24FF0500383F31188BFF348
:104CE0006F8FBFF34F8FFEE70A4B1B6803F4E0633F
:104CF000094A1268934208D94FF0500383F3118890
:104D0000BFF36F8FBFF34F8FFEE77047F0E300E014
:104D1000F02500200CED00E0F425002000B589B05E
:104D2000002201461920FDF7A3FC1920FDF7D2FC53
:104D3000144B9A6942F400629A619B6903F4006320
:104D40000193019B02A903A8FDF710FAFDF7FEF9F4
:104D50000D4BA3FB00239B0C013B0C480C4A02604B
:104D600040F2E732C2604360002303618360FDF7D5
:104D7000D5FD18B1012009B05DF804FB0348FDF72B
:104D8000BEFCF8E70010024083DE1B4384270020AE
:104D9000002C014010B50024304B1B5D63B940224C
:104DA00000212E48FBF7A4FA2D48FCF717FE002837
:104DB00048D0FCF715F945E000231A46274921445D
:104DC00028480068FFF74CFC0134E4B2E4E7012016
:104DD000FFF7C0FB4FF0FF312148FCF743FB0028F1
:104DE000F5D11F48FCF7F6FB1F4C2080FCF78AFE2C
:104DF000238802461D491948FBF7EAFA002409E016
:104E000000231A461549214416480068FFF728FC7C
:104E10000134E4B2114B1B5D002BF1D14022002183
:104E20000E48FBF765FA104B1B88B3F5FA6F0DD9E6
:104E300000224FF400510E48FDF7B6FB4FF47A7094
:104E4000FFF788FB0648FCF7A5FCC3E701224FF4F7
:104E500000510748FDF7A8FBF0E700BF74000020F1
:104E6000502600203C270020F8250020605600082E
:104E70000010014008B538E01F4A1378013B137059
:104E80001D4B1B783BB11D4AD35C0A2BF4D11C4847
:104E9000FDF7C8FEF0E70120FFF75CFB184B93F825
:104EA0003A30DBB2202B03D04022134B1A70E7E7D5
:104EB0000022114B1A70104B1978104B5B5C63B1D8
:104EC00000231A460D4801440E480068FFF7C8FB4E
:104ED000094A137801331370EDE740220021074897
:104EE000FBF706FA0120FFF735FB4022034904488F
:104EF000FDF768FED2E700BFB4000020FC250020CB
:104F0000802600203C27002008B502E00120FFF7A2
:104F100021FB0B4B1868FFF747FC0028F6D0094C23
:104F200000231A46214606480068FFF7EBFB4FF0C6
:104F3000FF33012221460448FDF7D3FDE6E700BF19
:104F40003C270020FA25002080260020024B012269
:104F50001A701878704700BFB5000020024B01227C
:104F60001A701878704700BFB50000200020704705
:104F7000002070470120704708B50349034800F03E
:104F80004BFA034B187008BDC4270020B80000205E
:104F9000C827002030B402689469A5B2D36991692A
:104FA00088B2854205D0D06980B240EA014030BC69
:104FB000704798B240EA0440F9E70368186A5B6AF0
:104FC0009BB243EA00407047030903EB83035A0096
:104FD00000F00F001044C0B27047000010B400F59C
:104FE000FA64022920D901EB4103C1EBC3011F4B35
:104FF000A3FB011302EB5303234403EB94031C4A6A
:10500000A2FB0424A3EB541303EBD413023319487B
:10501000A0FB03201A1A00EB52008008C0EBC0006E
:10502000181AC0B210BC704701EB4103C1EBC301B9
:105030000E4BA3FB013102EB5102A31800F2CF701B
:1050400003EB90030A4AA2FB0020A3EB501303EBEF
:10505000D01304330748A0FB03201A1A00EB5200B8
:105060008008C0EBC000181ADBE700BF398EE338B8
:105070001F85EB512549922438B50446FCF742FDC3
:10508000054623685A6812F0200F07D1FCF73AFD55
:10509000401BB0F57A7FF4D9032038BD5A6842F03E
:1050A00010025A60002038BD38B5044602685368C3
:1050B00023F010035360FCF725FD054623685B6869
:1050C00013F0200F07D1FCF71DFD401BB0F57A7FD0
:1050D000F4D9032038BD002038BD38B505460C464C
:1050E000FFF7CAFF10B10123184638BD2B68220C08
:1050F0009A612B68A4B2DC612846FFF7D5FF03460E
:105100000028F1D00123EFE738B505460C46FFF73C
:10511000B3FF10B10123184638BD2B68220C1A6268
:105120002B68A4B25C622846FFF7BEFF0346002846
:10513000F1D00123EFE770B5002856D004460029CE
:1051400055D0037C012B54D00E4601230374022357
:105150004374B2B90D784B78C3EB03139A004FF444
:10516000616303FB05258B781D4429462046FFF724
:10517000B4FF0646C0B104236374002323740126E0
:1051800038E00878FFF720FF4FF4616505FB00F574
:105190007078FFF719FFC0EB001083001D44B07852
:1051A000FFF712FF0544E0E72268536823F0050388
:1051B00053602046FFF701FFB0F1FF3F01D0854269
:1051C00004D8012363740023237413E000F5A8318D
:1051D00001F5C0712046FFF797FF0028F1D00423A6
:1051E000637400232374012604E0012602E00126F3
:1051F00000E00226304670BD00285DD038B5044678
:1052000000295BD0037C012B5AD00D460123037487
:1052100002234374D2B9CB78C3734B7843738B7832
:105220008373A27B617BE07BFFF7D8FE207328703D
:105230002046FFF7AFFE234BA3FB0023B3F5484FF7
:1052400011D2012363740020207438BDC878FFF7A1
:10525000BBFEE0736878FFF7B7FE6073A878FFF7CE
:10526000B3FEA073DDE7184DA5FB00352D0C174BE1
:1052700003FB150529462046FFF72FFF28B104231D
:10528000637400232374012038BD2046FFF795FE88
:10529000B0F1FF3FD5D08542D3D900F5A83101F553
:1052A000C0712046FFF730FF0028CAD00423637482
:1052B00000232374012038BD01207047012038BD30
:1052C000022038BDC5B3A29107452EC2805101000E
:1052D000C0B138B504460268536823F00803536030
:1052E000FCF710FC054623685B6813F0080F07D134
:1052F000FCF708FC401BB0F57A7FF4D9032038BDD9
:10530000002038BD0120704700285AD010B504464F
:10531000437C53B1022363742046FFF7D9FF40B1A9
:10532000042363740123184610BD0374FCF704F8CA
:10533000F0E72046FFF7A0FE002830D1226853682E
:1053400023F007035360A36823B11F4A136B23F0B4
:10535000010313631C4AD36A23F46073A1680B43EF
:10536000D3626068B0F1FF3F1DD02268936823F0DC
:105370000F0343EA104393602268D3681B0C1B049D
:1053800080B20343D3602046FFF78EFE0346A0B9E8
:105390000022E27301226273A2736274C3E70423E2
:1053A00063740123BFE70120FCF788FF08B10138CF
:1053B000DBE7042363740123B5E70423637401234B
:1053C000B1E7012318467047006C0040114B5B7A2F
:1053D000DBB2012B01D90120704730B40D4C657A46
:1053E000EDB200236355657A04EB85056860607A49
:1053F00020440272627AD2B2501CC0B26072303263
:105400000A703A224A702F228A70CB70184630BC3C
:10541000704700BF4026002008B50022FFF7D6FFE6
:1054200008BD002839D010B504460023836290F8E7
:105430005130002B2CD0022384F85130226813689D
:1054400023F04003136022686368A1680B43E1689E
:105450000B4321690B4361690B43A16901F400719E
:105460000B43E1690B43216A0B43A16A0B431360B1
:105470002268638B03F0040353602268D36923F42A
:105480000063D36100206065012384F8513010BDB2
:1054900080F85030FBF770FFCDE701207047000027
:1054A000002103E00B4B5B58435004310A480B4B7F
:1054B00042189A42F6D30A4A02E0002342F8043B1B
:1054C000084B9A42F9D3FDF7EDFBFAF773FEFBF7B1
:1054D00069FE7047B056000800000020CC00002094
:1054E000CC000020302A0020FEE70000F8B500BF05
:1054F000F8BC08BC9E467047F8B500BFF8BC08BCB5
:045500009E4670470C
:1055040002030405060708090A0B0C0D0E0F101000
:105514000102000002030405060708090A0B0C0D2A
:105524000E0F1010010200002056000800000000B9
:105534000000000000000000000000000002000065
:1055440018000000000000000000000014560008CD
:105554000000000000000000000000000000000047
:1055640080000000080000000000000000000000AF
:10557400FC550008000000000000000000000000CE
:105584000000000000000000EC55000800000000CE
:105594000000000000000000000000000000000007
:1055A4000C5600080000000000000000000000008D
:1055B400000000008000000008000000000000005F
:1055C4000000000018560008000000000000000061
:1055D400000000000000000080000000080000003F
:1055E400000000000000000051756575655F5541BD
:1055F40052545F545800000051756575655F5541FC
:1056040052545F5258000000554152545F525800A2
:105614004C454400554152545F5458004144435F43
:105624004C6967687453656E736F72000000000004
:10563400000000000102030406070809000000003E
:105644000102030449444C4500000000546D7251AA
:1056540000000000546D72205376630025643A20E4
:1056640025640A0043000000232D302B2000000095
:10567400686C4C006566674546470000303132333C
:10568400343536373839414243444546000000003A
:1056940030313233343536373839616263646566A4
:0456A4000000000002
:0456A8007D01000878
:0456AC00550100089C
:1056B00004000020000000000000000000000000C6
:1056C00000000000000000000000000000000000DA
:1056D0000000000068560008000000000000000004
:1056E00000000000000000000000000000000000BA
:1056F00000000000000000000000000000000000AA
:105700000000000000000000000000000000000099
:105710000000000001000000100000000024F40060
:10572000AAAAAAAA4144432073746172742D7570A9
:10573000206D6573736167652E0A0000000000002C
:105740000000000000000000000000000000000059
:105750000000000000000000000000000000000049
:1057600000000000400100004D4F00085D4F0008A0
:0C5770006D4F0008714F0008754F0008D5
:04000005080054A1FA
:00000001FF
