:020000040800F2
:1000000000500020412E00081F06000821060008AD
:100010002306000825060008270600080000000047
:10002000000000000000000000000000E11E0008C9
:100030002906000800000000111F0008551F0008D5
:10004000892E0008892E0008892E0008892E0008B4
:10005000892E0008892E0008892E0008892E0008A4
:10006000892E0008892E0008892E0008892E000894
:10007000892E0008892E0008892E0008892E000884
:10008000892E0008892E0008892E0008892E000874
:10009000892E0008892E0008892E0008892E000864
:1000A000892E00082D060008892E0008892E0008D8
:1000B000892E0008892E0008892E0008892E000844
:1000C000892E0008892E0008892E0008892E000834
:1000D000892E0008892E0008892E0008892E000824
:1000E000892E0008892E0008892E000800000000D3
:1000F0000000000000000000000000000000000000
:0C01000000000000000000005FF808F1A3
:10011000044B05481B1A062B02D9044B03B11847A0
:10012000704700BF270000202400002000000000CE
:1001300005490648091A891001EBD171491002D00E
:10014000034B03B11847704724000020240000200F
:100150000000000010B5064C237843B9FFF7D8FF24
:10016000044B13B10448AFF300800123237010BD8A
:1001700024000020000000008C2E000808B5084B69
:100180001BB108490848AFF300800848036813B959
:10019000BDE80840CCE7064B002BF9D09847F7E7BD
:1001A00000000000280000208C2E00082400002001
:1001B0000000000070B50F4E0F4D761BB61018BF33
:1001C000002405D0013455F8043B9847A642F9D1E4
:1001D0000A4E0B4D02F05AFE761BB61018BF0024D3
:1001E00006D0013455F8043B9847A642F9D170BDBA
:1001F00070BD00BFE4300008E4300008E8300008BB
:10020000E430000870B4860746D0541E002A41D05E
:10021000CAB2034602E014F1FF343BD303F8012BCA
:100220009D07F8D1032C2ED9CDB245EA05250F2C18
:1002300045EA054519D9264603F11002103E0F2E56
:1002400042F8105C42F80C5C42F8085C42F8045C2E
:1002500002F11002F2D8A4F1100222F00F0204F011
:100260000F041032032C13440DD91E462246043AC3
:10027000032A46F8045BFAD8221F22F00302043254
:10028000134404F003042CB1C9B21C4403F8011B4D
:100290009C42FBD170BC704714460346C2E700BFC6
:1002A00020F0030110F00300C0F1000051F8043BFE
:1002B00000F1040C4FEACC0C6FF000021CBF22FAD4
:1002C0000CF213434FF0010C4CEA0C2C4CEA0C4C92
:1002D000A3EB0C0222EA030212EACC1204BF51F88B
:1002E000043B0430F4D0C2F1000102EA0102B2FA88
:1002F00082F2C2F11F0200EBD2007047F0B589B064
:1003000000240494059406940794204B9A6942F0C3
:1003100010029A619A6902F010020192019A9A6998
:1003200042F020029A619A6902F020020292029A37
:100330009A6942F004029A619B6903F004030393F3
:10034000039B134F22464FF40051384601F0B0F999
:10035000104D22461021284601F0AAF94FF400530F
:1003600004930126059606940223079304A93846B0
:1003700001F02CF8102304930596069403230793A9
:1003800004A9284601F022F809B0F0BD001002408F
:10039000001001400008014008B50268034B9A4272
:1003A00000D008BD00F0ACFBFBE700BF002C014013
:1003B000FEE7000008B50A480A4B03604FF4E1333A
:1003C000436000238360C36003610C224261836148
:1003D000C36101F08FFB00B908BDFFF7E9FF00BF63
:1003E000080500200038014000B585B000230193C6
:1003F000029303930F48104A0260836003730375EE
:100400004FF46022C26143600123036100F0DEFA11
:1004100060B90123019302930023039301A90548C6
:1004200000F012FA20B905B05DF804FBFFF7C0FF39
:10043000FFF7BEFFD80400200024014000B583B0C0
:100440000023ADF804308DF80630009319481A4A9D
:1004500002604FF0FF324260836001F0E9FF18BB99
:1004600017238DF8043000238DF8053030238DF8E4
:100470000630012201A90F4801F0F1FEB0B90623B0
:100480008DF8003002238DF8013029238DF80230D9
:1004900020238DF8033001226946064801F040FF11
:1004A00030B903B05DF804FBFFF782FFFFF780FF70
:1004B000FFF77EFF540500200028004008B50D48D6
:1004C0000D4B03604FF48273436000238360C3606D
:1004D000036143614FF400728261C361036243624E
:1004E00083620A23C36202F03BFB00B908BDFFF739
:1004F0005FFF00BF680500200030014000B595B0E7
:10050000282200210DEB0200FFF77CFE002305935B
:10051000069307930893099301930293039304931B
:100520000A230A9301230E9310220F9210930AA814
:1005300000F00EFBC0B90F2305930021069107912F
:100540000891099105A800F041FD78B903230193B2
:100550004FF4007302930023039301A800F02EFED2
:1005600030B915B05DF804FBFFF722FFFFF720FF5D
:10057000FFF71EFF10B5ADF5826D264B82AC0FCB99
:1005800007C424F8023B1B0C237040F2F112002137
:100590000DF21720FFF736FE4FF40072002102A87B
:1005A000FFF730FE00F09AFAFFF7A8FFFFF7A6FE6C
:1005B000FFF700FFFFF718FFFFF740FFFFF77EFF91
:1005C00001F06EFD0DF5816002F0B6F808B1FFF79D
:1005D000EFFE002282A90DF5816002F0C7F908B193
:1005E000FFF7E6FE4FF40073009300231A4602A9BA
:1005F0000DF5816002F070F908B1FFF7D9FE02A88D
:10060000FFF74EFE4FF0FF33C2B202A9024801F0DD
:10061000A0FAFEE7A42E00080805002070477047E6
:10062000FEE7FEE7FEE7FEE77047000008B5024878
:1006300001F0B2F808BD00BFCC05002000B583B0C2
:10064000114B9A6942F001029A619A6902F0010223
:100650000092009ADA6942F08052DA61DB6903F0B5
:1006600080530193019B00220F216FF0010001F0E4
:1006700037F8064A536823F0E06343F00073536091
:1006800003B05DF804FB00BF001002400000014011
:1006900000B587B000230293039304930593026887
:1006A000114B9A4202D007B05DF804FB03F56C438E
:1006B0009A6942F400729A619A6902F40072009297
:1006C000009A9A6942F004029A619B6903F004035C
:1006D0000193019B022302930323039302A903487E
:1006E00000F074FEDFE700BF002401400008014075
:1006F00002680C4B9A4200D0704700B583B001F0FD
:100700002FF8094BDA6942F00062DA61DB6903F025
:1007100000630193019B0122044B1A6003B05DF852
:1007200004FB00BF00280040001002403C0442428D
:1007300010B586B0002302930393049305930268D7
:10074000164B9A4201D006B010BD03F560439A697A
:1007500042F480529A619A6902F480520092009A9F
:100760009A6942F004029A619B6903F004030193C1
:10077000019BA02302930223039303230593084CB8
:1007800002A9204600F022FE402302930023039397
:10079000049302A9204600F019FED4E7003001407E
:1007A0000008014008B50268064B9A4200D008BD17
:1007B000054A936923F480539361E021034800F0D4
:1007C000FDFEF4E700300140001002400008014047
:1007D00010B586B000230293039304930593026837
:1007E000174B9A4201D006B010BD03F558439A69E1
:1007F00042F480429A619A6902F480420092009A1F
:100800009A6942F004029A619B6903F00403019320
:10081000019B4FF400730293022303930323059378
:10082000084C02A9204600F0D1FD4FF480630293EA
:1008300000230393049302A9204600F0C7FDD2E7EA
:10084000003801400008014030B482B00023019319
:1008500090F82430012B00F08B800246012380F8B1
:1008600024304B68062B29D80568686B03EB83039B
:10087000053B1F249C4020EA04000C6804FA03F3A3
:1008800003436B630B68092B38D91568E86803EBE1
:1008900043031E3B07249C4020EA04008C6804FAB2
:1008A00003F30343EB600B68103B012B34D90020AA
:1008B000002382F8243002B030BC70470C2B0ED8D5
:1008C0000568286B03EB8303233B1F249C4020EA2D
:1008D00004000C6804FA03F303432B63D2E70568B2
:1008E000E86A03EB8303413B1F249C4020EA040099
:1008F0000C6804FA03F30343EB62C3E71568286945
:1009000003EB430307249C4020EA04008C6804FAAC
:1009100003F303432B61C6E713681648834205D0EF
:10092000936A43F0200393620120C1E7986810F4B2
:10093000000F1BD1986840F4000098600B68102BE2
:1009400001D00020B4E70C4B1B680C49A1FB03133A
:100950009B0C03EB83035900019102E0019B013BD7
:100960000193019B002BF9D10020A1E700209FE714
:100970000220A0E7002401400800002083DE1B4382
:1009800038B503689A6812F0010F01D1002038BD14
:1009900004469A6822F001029A6000F0BDF805460C
:1009A00023689B6813F0010F0ED000F0B5F8401BD0
:1009B0000228F5D9A36A43F01003A362E36A43F067
:1009C0000103E362012038BD002038BD00287FD03C
:1009D00038B50446836A002B4AD02046FFF7D0FF83
:1009E000A36A13F010036DD100286BD1A26A22F420
:1009F000885222F0020242F00202A2626268E169B9
:100A00000A43257B42EA4502A168B1F5807F38D0D0
:100A1000012933D0217D012936D02568696821F468
:100A200069410B436B6021688D682A4B2B4013434F
:100A30008B60A368B3F5807F37D0012B35D00023BE
:100A40002568E96A21F470010B43EB622368996819
:100A5000214B0B409A422CD0A36A23F0120343F09F
:100A60001003A362E36A43F00103E362012038BD8F
:100A7000C36280F82430FFF70BFEAEE74FF48073BB
:100A8000C8E74FF48073C5E735B9A169013943EA76
:100A9000413343F40063C0E7A16A41F02001A16241
:100AA000E16A41F00101E162B7E72369013B1B05FF
:100AB000C6E70023E362A36A23F0030343F00103C4
:100AC000A36238BDA36A43F01003A362012038BDBE
:100AD00001207047FDF7E1FFFE0E1FFF08B5074A32
:100AE000136843F010031360032000F0E7FD0020BB
:100AF00001F046FAFFF7A2FD002008BD00200240E9
:100B0000034A1168034B1B780B441360704700BF06
:100B1000C805002000000020014B1868704700BF86
:100B2000C805002082B0084B1B68084AA2FB0323BB
:100B30005B0A00FB03F0019000BF019B5A1E01926B
:100B4000002BF9D102B0704708000020D34D62108D
:100B5000002800F0F58170B582B00446036813F0F8
:100B6000010F3DD0AB4B5B6803F00C03042B2ED080
:100B7000A84B5B6803F00C03082B23D06368B3F524
:100B8000803F51D0002B55D103F1804303F504334E
:100B90001A6822F480321A601A6822F480221A60DD
:100BA0006368002B60D0FFF7B7FF0546994B1B68C1
:100BB00013F4003F14D1FFF7AFFF401B6428F5D9B1
:100BC0000320C2E1934B5B6813F4803FD6D0914B76
:100BD0001B6813F4003F03D06368002B00F0B28160
:100BE000236813F0020F65D08A4B5B6813F00C0F7B
:100BF0004ED0884B5B6803F00C03082B43D023696D
:100C0000002B79D00122844B1A60FFF785FF05463F
:100C1000804B1B6813F0020F65D1FFF77DFF401B6F
:100C20000228F5D9032090E17A4A136843F480330F
:100C30001360B5E7B3F5A02F09D0764B1A6822F4FC
:100C400080321A601A6822F480221A60A8E703F141
:100C50008043A3F53C331A6842F480221A601A6874
:100C600042F480321A609BE7FFF756FF0546694B56
:100C70001B6813F4003FB3D0FFF74EFF401B6428FE
:100C8000F5D9032061E1634B5B6813F4803FB6D173
:100C9000604B1B6813F0020F04D02369012B01D0B5
:100CA000012052E15B4A136823F0F803616943EACB
:100CB000C1031360236813F0080F32D0A369002B1F
:100CC0006ED00122554B1A60FFF726FF0546514BA7
:100CD0005B6A13F0020F21D1FFF71EFF401B0228B1
:100CE000F5D9032031E14B4A136823F0F803616919
:100CF00043EAC1031360DDE70022474B1A60FFF7A8
:100D00000BFF0546434B1B6813F0020FD2D0FFF7D1
:100D100003FF401B0228F5D9032016E10120FFF74D
:100D200001FF236813F0040F00F09880394BDB6952
:100D300013F0805F46D1374BDA6942F08052DA61B6
:100D4000DB6903F080530193019B0125344B1B6841
:100D500013F4807F38D0E368012B49D0002B4DD1AC
:100D600003F1804303F504331A6A22F001021A6288
:100D70001A6A22F004021A62E368002B5CD0FFF7C3
:100D8000CBFE0646234B1B6A13F0020F65D1FFF71B
:100D9000C3FE801B41F288339842F3D90320D4E08C
:100DA00000221E4B1A60FFF7B7FE0546194B5B6A1F
:100DB00013F0020FB5D0FFF7AFFE401B0228F5D9A4
:100DC0000320C2E00025C1E7154A136843F480738D
:100DD0001360FFF7A1FE0646114B1B6813F4807FDA
:100DE000B9D1FFF799FE801B6428F5D90320ACE048
:100DF000084A136A43F001031362BDE7052B11D0C3
:100E0000044B1A6A22F001021A621A6A22F00402E2
:100E10001A62B1E7001002400000424280044242E0
:100E2000007000404C4B1A6A42F004021A621A6ABF
:100E300042F001021A629FE7FFF76EFE0646464B3C
:100E40001B6A13F0020F08D0FFF766FE801B41F209
:100E500088339842F3D9032077E0E5B9E369002BA2
:100E600072D03D4A526802F00C02082A56D0022B7A
:100E700017D00022394B1A60FFF74EFE0446364B5E
:100E80001B6813F0007F47D0FFF746FE001B0228C7
:100E9000F5D9032059E0304AD36923F08053D36158
:100EA000DCE700222D4B1A60FFF736FE05462A4B81
:100EB0001B6813F0007F06D0FFF72EFE401B0228B0
:100EC000F5D9032041E0236AB3F5803F1AD02249C7
:100ED0004B6823F47413226A606A024313434B6025
:100EE00001221E4B1A60FFF717FE04461A4B1B68BF
:100EF00013F0007F0ED1FFF70FFE001B0228F5D97B
:100F0000032022E0144A536823F40033A1680B4302
:100F10005360DCE7002018E0002016E0012B16D01B
:100F20000D4B5B6803F48031226A914201D00120AD
:100F30000BE003F47013626A93420AD0012004E0CC
:100F400001207047012000E0002002B070BD0120A8
:100F5000FBE70020F9E700BF0010024060004242BA
:100F600010B586B0154C94E80F000DF1180E0EE97F
:100F70000F00238AADF80430114B5B6803F00C02BC
:100F8000082A18D1C3F38342724412F8102C13F4C8
:100F9000803F03D10B4800FB02F00DE0084B5B687B
:100FA000C3F34043734413F8143C074800FB02F0BA
:100FB000B0FBF3F000E0044806B010BDA430000818
:100FC0000010024000093D0000127A00002800F0E5
:100FD000A38070B50446524B1B6803F007038B4295
:100FE0000CD24F4A136823F007030B4313601368B6
:100FF00003F00703994201D0012070BD236813F06C
:10100000020F17D013F0040F04D0464A536843F47C
:10101000E0635360236813F0080F04D0414A53681B
:1010200043F4605353603F4A536823F0F003A068D1
:10103000034353600D46236813F0010F31D06368FA
:10104000012B20D0022B25D0364A126812F0020F55
:1010500064D034494A6822F0030213434B60FFF71F
:101060005BFD06462F4B5B6803F00C036268B3EB35
:10107000820F16D0FFF750FD801B41F28833984253
:10108000F0D9032070BD274A126812F4003FE0D166
:10109000012070BD234A126812F0007FD9D10120CF
:1010A00070BD1F4B1B6803F007039D420CD21C4A06
:1010B000136823F007032B431360136803F007033F
:1010C0009D4201D0012070BD236813F0040F06D0AB
:1010D000144A536823F4E063E1680B4353602368C8
:1010E00013F0080F07D00F4A536823F460532169A7
:1010F00043EAC1035360FFF733FF0A4B5B68C3F356
:101100000313094AD35CD840084B1860084B186891
:1011100000F036FF002070BD01207047012070BD37
:101120000020024000100240CC30000808000020DF
:1011300004000020014B1868704700BF0800002021
:1011400008B5FFF7F7FF044B5B68C3F30223034ABC
:10115000D35CD84008BD00BF00100240DC3000085E
:1011600008B5FFF7E7FF044B5B68C3F3C223034AEC
:10117000D35CD84008BD00BF00100240DC3000083E
:101180000F2303600B4B5A6802F0030242605A6857
:1011900002F0F00282605A6802F4E062C2605B68AA
:1011A000DB0803F4E0630361034B1B6803F00703F0
:1011B0000B607047001002400020024070B582B002
:1011C0000446036813F0010F34D03E4BDB6913F083
:1011D000805F48D13B4BDA6942F08052DA61DB69CB
:1011E00003F080530193019B0125374B1B6813F4D7
:1011F000807F3AD0334B1B6A13F4407311D062687E
:1012000002F4407293420CD02E4A136A23F44070C9
:101210002E4901260E6000260E60106213F0010FA9
:1012200037D1284A136A23F4407361680B43136271
:10123000002D3FD1236813F0020F06D0214A5368D6
:1012400023F44043A1680B435360236813F0100F4D
:1012500035D01C4A536823F48003E1680B43536084
:10126000002002B070BD0025BFE7174A136843F4A1
:1012700080731360FFF750FC0646134B1B6813F492
:10128000807FB7D1FFF748FC801B6428F5D9032085
:10129000E7E7FFF741FC06460A4B1B6A13F0020F13
:1012A000BFD1FFF739FC801B41F288339842F3D954
:1012B0000320D6E7D36923F08053D361BAE7002037
:1012C000CFE700BF001002400070004040044242DF
:1012D00030B587B00546384C94E80F000DF1180E74
:1012E0000EE90F00238AADF80430022D53D0102DE3
:1012F00003D0012D2BD0002057E0304B5A681B68DB
:1013000013F0807F53D0C2F3834306A90B4413F834
:10131000100C12F4803F16D0284B5B68C3F3404397
:101320000B4413F8142C264BB3FBF2F303FB00F031
:10133000224B5B6813F4800F37D14000214BA3FB95
:101340000030400831E0204B03FB00F0F0E71B4B7E
:101350001B6A40F202321A40B2F5817F29D003F4B1
:101360004073B3F5007F04D0B3F5407F09D000206F
:101370001BE0124A526A12F0020FF5D049F64040C3
:1013800013E00E4B1B6813F4003F02D04FF22440D1
:101390000BE0002009E0FFF7E3FE084B5B68C3F3B6
:1013A000813301335B00B0FBF3F007B030BD0020A8
:1013B000FBE74FF40040F8E7B830000800100240A7
:1013C00000127A00ABAAAAAA00093D00F0B583B0CA
:1013D0000026344671E0002D00F0A280012D00D1DE
:1013E000CE68FF2B00F2B0808646FF2B00F2AF8064
:1013F000A500DEF800200F27AF4022EA070206FA18
:1014000005F52A43CEF800204A6812F0805F53D0D9
:10141000644A956945F001059561926902F00102FF
:101420000192019AA508AF1C5F4A52F8272004F0E8
:101430000307BF004FF00F0E0EFA07FE22EA0E025E
:10144000DFF874E1704500F089800EF5806E70451C
:1014500000F087800EF5806E704500F085800EF5F7
:10146000806E704577D04FF0040E0EFA07F73A43BE
:1014700002354D4F47F825204A6812F4803F76D058
:101480004A4D2A681A432A604A6812F4003F74D011
:10149000464D6A681A436A604A6812F4801F72D027
:1014A000424DAA681A43AA604A6812F4001F70D01D
:1014B0003E4DEA681343EB6001340B6833FA04F2E3
:1014C0006DD00122A24013409A42F5D14D68122DF1
:1014D00030D00BD8022D2AD07FF67DAF032D2FD030
:1014E000112D7FF47EAFCE6804367AE7304FBD42CF
:1014F00016D00CD92F4FBD4212D007F58037BD4210
:101500000ED0A7F58017BD427FF46BAF08E0A7F5BA
:101510008017BD4204D007F58037BD427FF461AF2C
:101520008D687DB1012D08D04261082659E7CE684B
:10153000083656E7CE680C3653E70261082650E7B6
:1015400000264EE704264CE700F1040E4DE7A4F117
:101550000805AD004DE74FF0030E86E74FF0000E93
:1015600083E74FF0010E80E74FF0020E7DE70F4D4D
:101570002A6822EA03022A6086E70C4D6A6822EA9A
:1015800003026A6088E7094DAA6822EA0302AA609A
:101590008AE7064DEA6822EA0303EB608CE703B0B2
:1015A000F0BD00BF001002400000014000040140F7
:1015B000000021100000311000080140002267E007
:1015C000032658E0002656E0012654E0022652E0A9
:1015D000344D0EF1020455F8246026EA070645F85A
:1015E0002460314C2668DD432E40266066682E401C
:1015F0006660A6682E40A660E6683540E5603EE07D
:1016000000F1040E3EE0A2F10805AF00DEF8004054
:101610000F26BE4024EA06040425BD402C43CEF824
:101620000040C46824EA0303C360013231FA02F3C4
:101630002CD0012393400B40F7D04FEA920E0EF1CD
:101640000205184C54F8255002F00304A4000F269C
:1016500006FA04F73D40154EB042B3D006F5806659
:10166000B042B1D006F58066B042AFD006F58066D4
:10167000B042A5D0042606FA04F4A542A8D0FF2B58
:10168000BED88646FF2BBED89700BFE7F0BD01321B
:1016900031FA02F305D0012393400B40F7D0F0B5A7
:1016A000CBE7704700000140000401400008014002
:1016B00012B909040161704701617047074AD36894
:1016C00023F4E0631B041B0C000200F4E0601843E9
:1016D00040F0BF6040F40030D060704700ED00E0A3
:1016E00030B4164BDB68C3F30223C3F10704042CA8
:1016F00028BF04241D1D062D17D9033B012505FA1B
:1017000004F4013C2140994005FA03F3013B1340E6
:10171000194300280BDB0901C9B200F1604000F554
:10172000614080F8001330BC70470023E6E700F00A
:101730000F000901C9B2024B1954F4E700ED00E0B3
:1017400014ED00E0002808DB420900F01F0001232F
:1017500003FA00F0014B43F82200704700E100E07B
:101760000122014B1A60704720000E427047026848
:10177000D36843F00103D3600268936803F0070362
:10178000062B03D0136843F0010313600020704759
:10179000704770477047704710B5044603681A6970
:1017A00012F0020F11D0DA6812F0020F0DD06FF0B4
:1017B00002021A610123037703689B6913F0030F88
:1017C00070D0FFF7E6FF0023237723681A6912F031
:1017D000040F12D0DA6812F0040F0ED06FF004027A
:1017E0001A610223237723689B6913F4407F5FD03B
:1017F0002046FFF7CEFF0023237723681A6912F0F3
:10180000080F12D0DA6812F0080F0ED06FF008023D
:101810001A61042323772368DB6913F0030F4ED08A
:101820002046FFF7B6FF0023237723681A6912F0DA
:10183000100F12D0DA6812F0100F0ED06FF01002F5
:101840001A61082323772368DB6913F4407F3DD0B6
:101850002046FFF79EFF0023237723681A6912F0C2
:10186000010F03D0DA6812F0010F36D123681A692C
:1018700012F0800F03D0DA6812F0800F34D12368A1
:101880001A6912F0400F03D0DA6812F0400F32D11B
:1018900023681A6912F0200F03D0DA6812F0200FC3
:1018A00030D110BDFFF774FF2046FFF773FF8AE7C2
:1018B0002046FFF76DFF2046FFF76CFF9BE72046B1
:1018C000FFF766FF2046FFF765FFACE72046FFF70E
:1018D0005FFF2046FFF75EFFBDE76FF001021A6170
:1018E0002046FEF759FDC1E76FF080021A612046DD
:1018F00000F066F8C3E76FF040021A612046FFF778
:101900004AFFC5E76FF020021A61204600F057F841
:10191000C7E7000003681C4A904227D0B0F1804F0F
:1019200024D0A2F59432904220D002F580629042F9
:101930001CD0154A90421ED0B0F1804F1BD0A2F5AA
:101940009432904217D002F58062904213D023F077
:1019500080034A69134303608B68C3620B68836228
:10196000094B98420CD001234361704723F0700368
:101970004A681343DDE723F44073CA681343E6E77C
:101980000B690363EFE700BF002C0140A8B110B55D
:10199000044690F83D305BB1022384F83D30211DB0
:1019A0002068FFF7B7FF012384F83D30002010BD09
:1019B00080F83C30FFF7DAFEEEE701207047704711
:1019C0007047000038B504460268136923F4405399
:1019D000C1680B431361836802691343426913436F
:1019E0000168CA6822F4B05222F00C021343CB60A3
:1019F0000268536923F4407381690B4353610268A1
:101A0000214B9A421FD0FFF79BFB216800EB80001F
:101A100000EB800063689B00B0FBF3F01B4DA5FB5F
:101A200000325409642202FB140213013233A5FB75
:101A300003235B0903F0F00202EB041203F00F032F
:101A400013448B6038BDFFF78BFB216800EB8000EF
:101A500000EB800063689B00B0FBF3F00B4DA5FB2F
:101A600000325409642202FB140213013233A5FB35
:101A700003235B0903F0F00202EB041203F00F03EF
:101A800013448B6038BD00BF003801401F85EB5107
:101A90002DE9F04105460F4616469846069C2B68F0
:101AA0001B6837EA03030CBF01230023B3421ED196
:101AB000B4F1FF3FF3D02CB1FFF72EF8A0EB0800F4
:101AC0008442ECD22A68D36823F4D073D3602A68A6
:101AD000536923F001035361202385F8393085F8D9
:101AE0003A30002385F838300320BDE8F08100202B
:101AF000BDE8F08158B310B5044690F839300BB307
:101B0000242384F839302268D36823F40053D36047
:101B10002046FFF757FF2268136923F490431361AF
:101B20002268536923F02A0353612268D36843F47F
:101B30000053D3600020E063202384F8393084F818
:101B40003A3010BD80F83830FEF742FED8E7012069
:101B500070472DE9F04182B01E4690F83930DBB273
:101B6000202B04D00223184602B0BDE8F0810446C1
:101B70000D469046002955D0002A55D090F83830AF
:101B8000012B01D10223EEE7012380F83830002336
:101B9000C363212380F83930FEF7BEFF0746A4F85F
:101BA0002480A4F8268010E000963B460022802185
:101BB0002046FFF76DFF002838D122682B88C3F339
:101BC000080353602369CBB90235E38C9BB2BBB1E8
:101BD000E38C9BB2013B9BB2E384A368B3F5805FC7
:101BE000E2D000963B46002280212046FFF750FFBE
:101BF000F0B923682A785A600135E6E70135E4E751
:101C000000963B46002240212046FFF741FF034655
:101C100008B10323A7E7202284F83920002284F8A2
:101C20003820A0E701239EE701239CE703239AE7DE
:101C3000032398E70F4B1A6842F001021A605968B3
:101C40000D4A0A405A601A6822F0847222F48032E7
:101C50001A601A6822F480221A605A6822F4FE027E
:101C60005A604FF41F029A604FF00062034B9A6073
:101C7000704700BF001002400000FFF800ED00E0D8
:101C800043684B609A688A609A68516099600861FD
:101C9000036801330360704703694268816891609B
:101CA0008268416851605A68904206D00022026101
:101CB0001A68013A1A601868704782685A60F5E736
:101CC0000A4B1B681B684BB901234BB9074B1B68B8
:101CD000DB68DB685A68064B1A6070470023F4E73C
:101CE0004FF0FF32024B1A60704700BF44000020E3
:101CF000B8040020F8B53C4B1B68002B68D13B4B67
:101D00001D6801351D60C5B9394B1B681B6843B19F
:101D10004FF0500383F31188BFF36F8FBFF34F8FE2
:101D2000FEE7334A1168334B186810601960324A75
:101D3000136801331360FFF7C3FF304B1B689D42EC
:101D40003AD200242E4B1B68DB6A03EB83039A0014
:101D50002C4B9B58012B40D901243EE00124244BFD
:101D60001B681B6853B3002353BB214B1B68DB6804
:101D7000DE6873689D4228D3371D3846FFF78CFF15
:101D8000B36A1BB106F11800FFF786FFF36A1E4A1B
:101D90001268934201D91C4A136003EB83039A0033
:101DA000394618481044FFF76BFFF26A144B1B6862
:101DB000DB6A9A42D2D2D2E70024D0E70123D3E7EC
:101DC0004FF0FF320D4B1A60BCE70C4A1360B9E7C5
:101DD0000E4A13680133136000240D4B1B6803B1D6
:101DE00001242046F8BD00BFB0040020C00400203C
:101DF0004400002048000020BC040020B80400205B
:101E0000400000204C000020B4040020AC0400205E
:101E1000C40400202D4B1B68FBB910B500222C4BCD
:101E20001A602C4B1B681B6B1A68B2F1A53F03D1DB
:101E30005A68B2F1A53F14D0264B1868196834319E
:101E4000FEF7ECFB244B1B6803EB83018A0023495C
:101E50008A58C2B973B1013BF6E701221C4B1A60E4
:101E600070479A68B2F1A53FE6D1DB68B3F1A53FB0
:101E7000E2D1E7E74FF0500383F31188BFF36F8F90
:101E8000BFF34F8FFEE708469A00D418A100014423
:101E90004C6864684C601A449100083108448442DC
:101EA0000BD003EB830291000C4A0A445268D168BC
:101EB000084A1160084A136010BD606803EB830292
:101EC0009100064A0A445060EBE700BFB0040020CE
:101ED000C404002040000020B40400204C00002076
:101EE000074B19680868B0E8F00F80F30988BFF362
:101EF0006F8F4FF0000080F311884EF00D0E704789
:101F00004000002000000000000000000000000071
:101F1000EFF30980BFF36F8F0D4B1A6820E9F00FC4
:101F200010602DE908404FF0500080F31188FFF752
:101F300071FF4FF0000080F31188BDE80840196878
:101F40000868B0E8F00F80F30988BFF36F8F70471F
:101F50004000002008B54FF0500383F31188BFF311
:101F60006F8FBFF34F8FFFF7C5FE18B14FF0805250
:101F7000024B1A60002383F3118808BD04ED00E0D2
:101F800000B589B0002201461920FFF7A9FB1920EE
:101F9000FFF7D8FB144B9A6942F400629A619B697F
:101FA00003F400630193019B02A903A8FFF7E8F87B
:101FB000FFF7D6F80D4BA3FB00239B0C013B0C480D
:101FC0000C4A026040F2E732C260436000230361C2
:101FD0008360FFF7DBFC18B1012009B05DF804FB5A
:101FE0000348FFF7C4FBF8E70010024083DE1B4301
:101FF000CC050020002C01400120704708B50122CB
:10200000064B1A70064800F097FB20B9034A137874
:1020100003F0FE031370014B187808BD0C0000207C
:102020000C06002008B50122064B1A70064800F085
:10203000B2FC20B9034A137803F0FE031370014B7E
:10204000187808BD0C0000200C06002000B583B0F5
:102050009BB200930023054800F03EFC18B9002015
:1020600003B05DF804FB0120FAE700BF0C06002076
:10207000F8B516460C46002702E004F500742B461E
:102080005D1E43B132462146044800F06FFC002833
:10209000F3D00127F1E73846F8BD00BF0C06002059
:1020A00008B50349034800F04BFA034B187008BD0C
:1020B00014060020100000201806002030B402682A
:1020C0009469A5B2D369916988B2854205D0D06977
:1020D00080B240EA014030BC704798B240EA044008
:1020E000F9E70368186A5B6A9BB243EA00407047ED
:1020F000030903EB83035A0000F00F001044C0B241
:102100007047000010B400F5FA64022920D901EBF1
:102110004103C1EBC3011F4BA3FB011302EB5303AC
:10212000234403EB94031C4AA2FB0424A3EB5413A3
:1021300003EBD41302331948A0FB03201A1A00EB57
:1021400052008008C0EBC000181AC0B210BC704723
:1021500001EB4103C1EBC3010E4BA3FB013102EBC9
:102160005102A31800F2CF7003EB90030A4AA2FBBE
:102170000020A3EB501303EBD01304330748A0FB5C
:1021800003201A1A00EB52008008C0EBC000181A96
:10219000DBE700BF398EE3381F85EB5125499224D8
:1021A00038B50446FEF7B8FC054623685A6812F0B5
:1021B000200F07D1FEF7B0FC401BB0F57A7FF4D9B1
:1021C000032038BD5A6842F010025A60002038BD22
:1021D00038B504460268536823F010035360FEF7D5
:1021E0009BFC054623685B6813F0200F07D1FEF7C0
:1021F00093FC401BB0F57A7FF4D9032038BD002052
:1022000038BD38B505460C46FFF7CAFF10B10123AB
:10221000184638BD2B68220C9A612B68A4B2DC6189
:102220002846FFF7D5FF03460028F1D00123EFE74A
:1022300038B505460C46FFF7B3FF10B10123184629
:1022400038BD2B68220C1A622B68A4B25C62284647
:10225000FFF7BEFF03460028F1D00123EFE770B57A
:10226000002856D00446002955D0037C012B54D0B9
:102270000E460123037402234374B2B90D784B78E0
:10228000C3EB03139A004FF4616303FB05258B78BE
:102290001D4429462046FFF7B4FF0646C0B104237B
:1022A000637400232374012638E00878FFF720FFC9
:1022B0004FF4616505FB00F57078FFF719FFC0EB7F
:1022C000001083001D44B078FFF712FF0544E0E7DB
:1022D0002268536823F0050353602046FFF701FF8F
:1022E000B0F1FF3F01D0854204D80123637400237D
:1022F000237413E000F5A83101F5C0712046FFF703
:1023000097FF0028F1D0042363740023237401266F
:1023100004E0012602E0012600E00226304670BDFE
:1023200000285DD038B5044600295BD0037C012B22
:102330005AD00D460123037402234374D2B9CB78DB
:10234000C3734B7843738B788373A27B617BE07B91
:10235000FFF7D8FE207328702046FFF7AFFE234B0F
:10236000A3FB0023B3F5484F11D20123637400206F
:10237000207438BDC878FFF7BBFEE0736878FFF7BC
:10238000B7FE6073A878FFF7B3FEA073DDE7184DC2
:10239000A5FB00352D0C174B03FB150529462046E0
:1023A000FFF72FFF28B10423637400232374012057
:1023B00038BD2046FFF795FEB0F1FF3FD5D08542EE
:1023C000D3D900F5A83101F5C0712046FFF730FFE1
:1023D0000028CAD00423637400232374012038BD6D
:1023E00001207047012038BD022038BDC5B3A2913D
:1023F00007452EC280510100C0B138B504460268BD
:10240000536823F008035360FEF786FB05462368F4
:102410005B6813F0080F07D1FEF77EFB401BB0F599
:102420007A7FF4D9032038BD002038BD01207047E1
:1024300000285AD010B50446437C53B1022363747C
:102440002046FFF7D9FF40B10423637401231846E7
:1024500010BD0374FEF74CF9F0E72046FFF7A0FE2D
:10246000002830D12268536823F007035360A36823
:1024700023B11F4A136B23F0010313631C4AD36A71
:1024800023F46073A1680B43D3626068B0F1FF3F2F
:102490001DD02268936823F00F0343EA1043936032
:1024A0002268D3681B0C1B0480B20343D360204610
:1024B000FFF78EFE0346A0B90022E2730122627389
:1024C000A2736274C3E7042363740123BFE701208E
:1024D000FEF7FEFE08B10138DBE704236374012335
:1024E000B5E7042363740123B1E70123184670475D
:1024F000006C0040114B5B7ADBB2012B01D901204B
:10250000704730B40D4C657AEDB200236355657A9F
:1025100004EB85056860607A20440272627AD2B268
:10252000501CC0B2607230320A703A224A702F22B8
:102530008A70CB70184630BC704700BFC8040020BA
:1025400008B50022FFF7D6FF08BD0023012202E0F4
:1025500052000133DBB28342FAD11046704708B50E
:10256000012802D000F06EFA08BD00F059FA08BD4B
:1025700070B505460E4610F0800F33D100F046FAD4
:10258000FF2000F013FA00F037FAFF2000F00EFAF7
:10259000284600F00BFA300E00F008FAC6F30740A8
:1025A00000F004FAC6F3072000F000FAF0B200F0E1
:1025B000FDF9402D20D00120482D1FD000F0F6F964
:1025C000052000F051FAFF2000F0F0F9044610F069
:1025D000800F03D000F056FA0128F4D000F064FA1E
:1025E000204670BD00F07F0500217720FFF7C0FF77
:1025F00004460128F4D8C1E79520DDE78720DDE710
:1026000038B50D461446104600F0D0F9FD2C18D010
:10261000002404E0285D00F0C9F90134A4B2B4F547
:10262000007FF7D1FF2000F0C1F9FF2000F0BEF9D4
:10263000FF2000F0BBF900F01F00052801D00520A5
:1026400038BDFA2000F010FAFF2000F0AFF9044680
:1026500018B900F017FA0128F6D000F025FA0CB9E5
:10266000042038BD002038BD70B584B00646002176
:102670004920FFF77DFF054600285BD1FF2000F0D1
:1026800095F9FF28FAD02C4608E0FF2000F08EF9DB
:1026900004AB234403F8100C0134E4B2102CF4D141
:1026A000FF2000F083F9FF2000F080F900F096F998
:1026B000737813F0020F28D09DF8056006F00F061E
:1026C0009DF8063003F003039DF8074044EA032316
:1026D0009DF80840A40944EA83049DF809506D0060
:1026E00005F006059DF80A0045EAD0150134A81C3E
:1026F000C0B2FFF72AFF00FB04F43046FFF725FFC6
:1027000000FB04F0400A04B070BD13F0040F0ED0BB
:102710009DF8073003F03F039DF8084044EA032486
:102720002402A4B29DF809301C432E46DEE72E4653
:102730000024DBE70020E6E72DE9F04182B0074600
:1027400000252E462BE0FF2000F030F90134E4B2E2
:102750000A2CF8D14FF4FA7000F086F900F092F9E3
:102760000128FBD000F0A0F900233B704FF4FA7071
:1027700000F07AF900214020FFF7FAFE012803D08B
:1027800000F080F90128F5D000F08EF900214020FA
:10279000FFF7EEFE044601280FD00135EDB2FF2D04
:1027A00000F08580002E40F0828000F0FEF800F0FE
:1027B0002DF900F047F93446CAE74FF4D5714820A7
:1027C000FFF7D6FE012858D00021E920FFF7D0FE00
:1027D000012866D94FF04108FA2000F045F900F0D1
:1027E00051F9012805D100214046FFF7C1FE00281C
:1027F000F5D100F059F900F045F900B9344600214F
:102800007B20FFF7B5FE00B134464FF40071502035
:10281000FFF7AEFE0028C0D12646BEE7FF2000F03D
:10282000C5F802AB234403F8040C0134E4B2032CD2
:10283000F4D99DF80630012BAFD19DF80730AA2BB3
:10284000ABD14FF47A7000F00FF900F01BF90128BA
:1028500006D14FF08041E920FFF78AFE0028F4D12D
:1028600000F022F900F00EF9012896D100217A201B
:10287000FFF77EFE044658B18FE73446D7E7FF20C6
:1028800000F094F802AB234403F8040C0134E4B2E2
:10289000032CF4D99DF8043013F0400F05D00C261A
:1028A0007BE702244FF0E90896E7042675E73EB976
:1028B00000F094F8B6FA86F0400902B0BDE8F08165
:1028C0007E7001243C703846FFF7CEFE01387860F8
:1028D0002046FFF744FEEBE7F8B51D46BDF818406B
:1028E0004368934202D203242046F8BD0E460CB939
:1028F0000324F9E751025120FFF73AFE18B10224F0
:1029000000F06CF8F0E7642000F0AEF8FF2000F073
:102910004DF80746FF2803D100F0B4F80128F5D0A0
:1029200000F0C2F8FE2F01D00224E9E76F423F1BFE
:10293000BFB207F20227BFB235B1FF2000F036F870
:10294000013DADB2002DF8D1FF2000F02FF806F8C0
:10295000010B013CA4B2002CF6D1FF2000F026F8B8
:10296000013FBFB2002FF8D10024C9E738B5436852
:10297000934201D2032038BD0D460446510258202F
:10298000FFF7F6FD08B1022038BDFE222946204699
:10299000FFF736FE38BD08B500214020FFF7E8FDFF
:1029A00008B9062008BD002008BD704700B585B0F5
:1029B00000238DF80F308DF80E00009301230DF1E8
:1029C0000F020DF10E01044800F01EF99DF80F00F2
:1029D00005B05DF804FB00BF6805002010B54FF49A
:1029E000007401E0013CA4B224B1FF20FFF7DEFF38
:1029F000FF28F7D110BD000008B5002210210248C1
:102A0000FEF756FE08BD00BF0008014008B50122D0
:102A100010210248FEF74CFE08BD00BF000801402F
:102A200010B5074C204600F0D9F80023E36120469A
:102A300000F096F800B910BDFDF7BAFCFBE700BF47
:102A40006805002010B5074C204600F0C7F8202389
:102A5000E361204600F084F800B910BDFDF7A8FC42
:102A6000FBE700BF6805002010B50446FEF754F8E8
:102A7000024B1860024B1C6010BD00BF7C08002098
:102A80008008002008B5FEF747F8054B1B68C01A00
:102A9000044B1B6898422CBF0020012008BD00BFDA
:102AA0007C080020800800207047F8B505460F46D6
:102AB00016461C462B689B6837EA03030CBF0123AC
:102AC0000023B34237D0B4F1FF3FF3D0FEF724F830
:102AD000069BC01A844201D9002CEBD12A685368A6
:102AE00023F0E00353606B68B3F5827F0BD0AB6AD1
:102AF000B3F5005F14D0012385F85130002385F829
:102B000050300320F8BDAB68B3F5004F02D0B3F5E9
:102B1000806FECD12A68136823F040031360E6E766
:102B20002A68136823F4005313602A68136843F477
:102B300000531360DFE70020F8BD10B582B00446F3
:102B400000920B4600228021FFF7AFFF034620B121
:102B5000636D43F0200363650323184602B010BD84
:102B6000002839D010B504460023836290F8513014
:102B7000002B2CD0022384F851302268136823F0F4
:102B80004003136022686368A1680B43E1680B434C
:102B900021690B4361690B43A16901F400710B4387
:102BA000E1690B43216A0B43A16A0B43136022685E
:102BB000638B03F0040353602268D36923F400633A
:102BC000D36100206065012384F8513010BD80F886
:102BD0005030FDF7ADFDCDE70120704790B110B545
:102BE0000446022380F851300268136823F0400342
:102BF0001360FDF7D7FD0020606584F8510084F86C
:102C0000500010BD012070472DE9F04383B00A9DAC
:102C100090F85040012C04D10223184603B0BDE8BF
:102C2000F0831E4690460F460446012380F850303C
:102C3000FDF772FF814694F85130DBB26268012BD8
:102C400012D0B2F5827F07D00223012284F85120EE
:102C5000002284F85020E0E7A268002A40F0E280D9
:102C6000042B01D00223F0E7002F00F0DD80B8F143
:102C7000000F00F0DB80002E00F0DA8094F8513075
:102C8000DBB2042B02D0052384F8513000236365A6
:102C9000C4F83880E687A6872763E686A68623647D
:102CA000636423681A6812F0400F03D11A6842F077
:102CB00040021A60E368B3F5006F11D063680BB18E
:102CC000012E0BD12368226B12781A73236B013308
:102CD0002363E38E9BB2013B9BB2E38601266CE04B
:102CE00063680BB1012E0BD12368226B1288DA6066
:102CF000236B02332363E38E9BB2013B9BB2E386DB
:102D000001261CE023689A6812F0010F0ED0E28FB2
:102D100092B25AB1A26BDB681380A36B0233A36338
:102D2000E38F9BB2013B9BB2E3870126FDF7F4FEE4
:102D3000A0EB0900A84202D3B5F1FF3F7AD1E38EA0
:102D40009BB21BB9E38F9BB2002B54D023689A68C7
:102D500012F0020FD6D0E28E92B2002AD2D0002E0C
:102D6000D0D0226B1288DA60236B02332363E38EA8
:102D70009BB2013B9BB2E3860026C3E723689A68B7
:102D800012F0010F0ED0E28F92B25AB1A26BDB6843
:102D90001370A36B0133A363E38F9BB2013B9BB220
:102DA000E3870126FDF7B8FEA0EB0900854202D8B3
:102DB000B5F1FF3F40D1002D40D0E38E9BB213B957
:102DC000E38F9BB2BBB123689A6812F0020FD5D093
:102DD000E28E92B2002AD1D0002ECFD0226B127890
:102DE0001A73236B01332363E38E9BB2013B9BB2C7
:102DF000E3860026C2E74A4629462046FFF79DFEA5
:102E0000034618B12023636501231EE7A268002A48
:102E10007FF41BAF01922268D16801919268019200
:102E2000019A12E7022310E701230EE701230CE7C2
:102E300001230AE7032308E7032306E7032304E744
:102E4000002103E00B4B5B58435004310A480B4B05
:102E500042189A42F6D30A4A02E0002342F8043BA1
:102E6000084B9A42F9D3FEF7E5FEFDF7A3F9FDF70B
:102E700081FB7047EC300008000000202400002097
:102E80002400002084080020FEE70000F8B500BF01
:102E9000F8BC08BC9E467047F8B500BFF8BC08BC3B
:042EA0009E46704793
:102EA40054657374206D6573736167652E0A000041
:102EB400000000000000000000000000000000000E
:102EC40000000000000000000000000000000000FE
:102ED40000000000000000000000000000000000EE
:102EE40000000000000000000000000000000000DE
:102EF40000000000000000000000000000000000CE
:102F040000000000000000000000000000000000BD
:102F140000000000000000000000000000000000AD
:102F2400000000000000000000000000000000009D
:102F3400000000000000000000000000000000008D
:102F4400000000000000000000000000000000007D
:102F5400000000000000000000000000000000006D
:102F6400000000000000000000000000000000005D
:102F7400000000000000000000000000000000004D
:102F8400000000000000000000000000000000003D
:102F9400000000000000000000000000000000002D
:102FA400000000000000000000000000000000001D
:102FB400000000000000000000000000000000000D
:102FC40000000000000000000000000000000000FD
:102FD40000000000000000000000000000000000ED
:102FE40000000000000000000000000000000000DD
:102FF40000000000000000000000000000000000CD
:1030040000000000000000000000000000000000BC
:1030140000000000000000000000000000000000AC
:10302400000000000000000000000000000000009C
:10303400000000000000000000000000000000008C
:10304400000000000000000000000000000000007C
:10305400000000000000000000000000000000006C
:10306400000000000000000000000000000000005C
:10307400000000000000000000000000000000004C
:10308400000000000000000000000000000000003C
:10309400000000000000000000000000000000002C
:1030A40002030405060708090A0B0C0D0E0F101085
:1030B4000102000002030405060708090A0B0C0DAF
:1030C4000E0F1010010200000000000000000000BC
:1030D40001020304060708090000000001020304BA
:0430E4007D01000862
:0430E8005501000886
:1030EC0001000000100000000024F40001000000AA
:1030FC00FD1F0008252000084D2000087120000845
:04310C00F91F00089F
:0400000508002E4180
:00000001FF
