:020000040800F2
:10000000005000209D0F0008A5030008A70300086A
:10001000A9030008AB030008AD03000800000000BE
:10002000000000000000000000000000AF03000816
:10003000B103000800000000B3030008B503000886
:10004000E50F0008E50F0008E50F0008E50F0008C0
:10005000E50F0008E50F0008E50F0008E50F0008B0
:10006000E50F0008E50F0008E50F0008E50F0008A0
:10007000E50F0008E50F0008E50F0008E50F000890
:10008000E50F0008E50F0008E50F0008E50F000880
:10009000E50F0008E50F0008E50F0008E50F000870
:1000A000E50F0008E50F0008E50F0008E50F000860
:1000B000E50F0008E50F0008E50F0008E50F000850
:1000C000E50F0008E50F0008E50F0008E50F000840
:1000D000E50F0008E50F0008E50F0008E50F000830
:1000E000E50F0008E50F0008E50F0008000000001C
:1000F0000000000000000000000000000000000000
:0C01000000000000000000005FF808F1A3
:10010C00044B05481B1A062B02D9044B03B11847A4
:10011C00704700BF0F0000200C0000200000000002
:10012C0005490648091A891001EBD171491002D012
:10013C00034B03B1184770470C0000200C00002043
:10014C000000000010B5064C237843B9FFF7D8FF28
:10015C00044B13B10448AFF300800123237010BD8E
:10016C000C00002000000000E80F000808B5084B48
:10017C001BB108490848AFF300800848036813B95D
:10018C00BDE80840CCE7064B002BF9D09847F7E7C1
:10019C000000000010000020E80F00080C000020F8
:1001AC000000000070B50F4E0F4D761BB61018BF37
:1001BC00002405D0013455F8043B9847A642F9D1E8
:1001CC000A4E0B4D00F00AFF761BB61018BF002428
:1001DC0006D0013455F8043B9847A642F9D170BDBE
:1001EC0070BD00BF2410000824100008281000085F
:1001FC002410000870B4860746D0541E002A41D043
:10020C00CAB2034602E014F1FF343BD303F8012BCE
:10021C009D07F8D1032C2ED9CDB245EA05250F2C1C
:10022C0045EA054519D9264603F11002103E0F2E5A
:10023C0042F8105C42F80C5C42F8085C42F8045C32
:10024C0002F11002F2D8A4F1100222F00F0204F015
:10025C000F041032032C13440DD91E462246043AC7
:10026C00032A46F8045BFAD8221F22F00302043258
:10027C00134404F003042CB1C9B21C4403F8011B51
:10028C009C42FBD170BC704714460346C2E700BFCA
:10029C0030B587B000240294039404940594144B55
:1002AC009A6942F010029A619A6902F01002009267
:1002BC00009A9A6942F004029A619B6903F0040364
:1002CC000193019B0B4D22464FF40051284600F040
:1002DC00D1FD4FF4005302930123039304940223A2
:1002EC00059302A9284600F0CDFC07B030BD00BF35
:1002FC00001002400010014008B50948094B03608A
:10030C001023436000238360C36003614361037661
:10031C0043768376C3760377437700F0A7F808BD5E
:10032C00280000200064004010B590B02822002165
:10033C0006A8FFF75FFF0024019402940394049431
:10034C0005940223069301230A9310230B9306A80A
:10035C0000F0A6F90F2301930294039404940594DE
:10036C00214601A800F0DAFB10B010BD08B500F072
:10037C0049F9FFF7D9FFFFF78BFFFFF7BDFF4FF4EC
:10038C000051044800F07CFD4FF4FA7000F05EF967
:10039C00F5E700BF001001407047FEE7FEE7FEE7FF
:1003AC00FEE770477047704708B500F03DF908BD8F
:1003BC0082B00E4B9A6942F001029A619A6902F07E
:1003CC0001020092009ADA6942F08052DA61DB692C
:1003DC0003F080530193019B054A536823F0E063BB
:1003EC0043F00073536002B0704700BF001002402E
:1003FC000000014030B587B00023029303930493AF
:10040C0005930268174B9A4201D007B030BD03F533
:10041C00D633DA6942F00072DA61DA6902F00072FE
:10042C000092009A9A6942F004029A619B6903F067
:10043C0004030193019B06AC4FF4006344F8103D98
:10044C00094D2146284600F01DFC4FF480530293C1
:10045C0002230393032305932146284600F012FC44
:10046C00D3E700BF0064004000080140002800F002
:10047C00A18038B5044690F82030D3B122681368B7
:10048C0023F00203136000F0DBF8054623685A687A
:10049C0012F0020F10D000F0D3F8401B0A28F5D947
:1004AC00636A43F400336362052384F8203001202F
:1004BC0038BDFFF79FFFE1E71A6842F001021A60AE
:1004CC0000F0BEF8054623685A6812F0010F0DD1F2
:1004DC0000F0B6F8401B0A28F5D9636A43F40033E0
:1004EC006362052384F82030012038BD227E012A66
:1004FC003DD01A6822F080021A60637E012B3BD03B
:10050C002268136823F040031360A37E012B39D0BB
:10051C002268136823F020031360E37E012B37D08D
:10052C002268136843F010031360237F012B35D02E
:10053C002268136823F008031360637F012B33D008
:10054C002268136823F0040313602168A368E2682F
:10055C00134322691343626913436268013A1343DC
:10056C00CB6100206062012384F8203038BD1A680A
:10057C0042F080021A60C0E72268136843F040031F
:10058C001360C2E72268136843F020031360C4E7CA
:10059C002268136823F010031360C6E722681368FF
:1005AC0043F008031360C8E72268136843F00403A0
:1005BC001360CAE70120704710B504460E4B18783B
:1005CC004FF47A73B3FBF0F30C4A1068B0FBF3F002
:1005DC0000F0A2FC68B90F2C01D9012010BD00223B
:1005EC0021464FF0FF3000F065FC054B1C600020ED
:1005FC0010BD012010BD00BF00000020080000202D
:10060C000400002008B5074A136843F01003136078
:10061C00032000F03DFC0020FFF7CEFFFFF7C8FEE3
:10062C00002008BD00200240034A1168034B1B78D0
:10063C000B441360704700BF5000002000000020E6
:10064C00014B1868704700BF5000002038B50446B5
:10065C00FFF7F6FF0546B4F1FF3F02D0044B1B78C1
:10066C001C44FFF7EDFF401B8442FAD838BD00BF95
:10067C000000002082B0084B1B68084AA2FB032331
:10068C005B0A00FB03F0019000BF019B5A1E019214
:10069C00002BF9D102B0704708000020D34D621036
:1006AC00002800F0F58170B582B00446036813F0A1
:1006BC00010F3DD0AB4B5B6803F00C03042B2ED029
:1006CC00A84B5B6803F00C03082B23D06368B3F5CD
:1006DC00803F51D0002B55D103F1804303F50433F7
:1006EC001A6822F480321A601A6822F480221A6086
:1006FC006368002B60D0FFF7A3FF0546994B1B687E
:10070C0013F4003F14D1FFF79BFF401B6428F5D96D
:10071C000320C2E1934B5B6813F4803FD6D0914B1E
:10072C001B6813F4003F03D06368002B00F0B28108
:10073C00236813F0020F65D08A4B5B6813F00C0F23
:10074C004ED0884B5B6803F00C03082B43D0236915
:10075C00002B79D00122844B1A60FFF771FF0546FC
:10076C00804B1B6813F0020F65D1FFF769FF401B2C
:10077C000228F5D9032090E17A4A136843F48033B8
:10078C001360B5E7B3F5A02F09D0764B1A6822F4A5
:10079C0080321A601A6822F480221A60A8E703F1EA
:1007AC008043A3F53C331A6842F480221A601A681D
:1007BC0042F480321A609BE7FFF742FF0546694B13
:1007CC001B6813F4003FB3D0FFF73AFF401B6428BB
:1007DC00F5D9032061E1634B5B6813F4803FB6D11C
:1007EC00604B1B6813F0020F04D02369012B01D05E
:1007FC00012052E15B4A136823F0F803616943EA74
:10080C00C1031360236813F0080F32D0A369002BC7
:10081C006ED00122554B1A60FFF712FF0546514B63
:10082C005B6A13F0020F21D1FFF70AFF401B02286D
:10083C00F5D9032031E14B4A136823F0F8036169C1
:10084C0043EAC1031360DDE70022474B1A60FFF750
:10085C00F7FE0546434B1B6813F0020FD2D0FFF78F
:10086C00EFFE401B0228F5D9032016E10120FFF70B
:10087C0001FF236813F0040F00F09880394BDB69FB
:10088C0013F0805F46D1374BDA6942F08052DA615F
:10089C00DB6903F080530193019B0125344B1B68EA
:1008AC0013F4807F38D0E368012B49D0002B4DD155
:1008BC0003F1804303F504331A6A22F001021A6231
:1008CC001A6A22F004021A62E368002B5CD0FFF76C
:1008DC00B7FE0646234B1B6A13F0020F65D1FFF7D8
:1008EC00AFFE801B41F288339842F3D90320D4E049
:1008FC0000221E4B1A60FFF7A3FE0546194B5B6ADC
:10090C0013F0020FB5D0FFF79BFE401B0228F5D960
:10091C000320C2E00025C1E7154A136843F4807335
:10092C001360FFF78DFE0646114B1B6813F4807F96
:10093C00B9D1FFF785FE801B6428F5D90320ACE004
:10094C00084A136A43F001031362BDE7052B11D06B
:10095C00044B1A6A22F001021A621A6A22F004028B
:10096C001A62B1E700100240000042428004424289
:10097C00007000404C4B1A6A42F004021A621A6A68
:10098C0042F001021A629FE7FFF75AFE0646464BF9
:10099C001B6A13F0020F08D0FFF752FE801B41F2C6
:1009AC0088339842F3D9032077E0E5B9E369002B4B
:1009BC0072D03D4A526802F00C02082A56D0022B23
:1009CC0017D00022394B1A60FFF73AFE0446364B1B
:1009DC001B6813F0007F47D0FFF732FE001B022884
:1009EC00F5D9032059E0304AD36923F08053D36101
:1009FC00DCE700222D4B1A60FFF722FE05462A4B3E
:100A0C001B6813F0007F06D0FFF71AFE401B02286C
:100A1C00F5D9032041E0236AB3F5803F1AD022496F
:100A2C004B6823F47413226A606A024313434B60CD
:100A3C0001221E4B1A60FFF703FE04461A4B1B687B
:100A4C0013F0007F0ED1FFF7FBFD001B0228F5D938
:100A5C00032022E0144A536823F40033A1680B43AB
:100A6C005360DCE7002018E0002016E0012B16D0C4
:100A7C000D4B5B6803F48031226A914201D0012056
:100A8C000BE003F47013626A93420AD0012004E075
:100A9C0001207047012000E0002002B070BD012051
:100AAC00FBE70020F9E700BF001002406000424263
:100ABC0010B586B0154C94E80F000DF1180E0EE928
:100ACC000F00238AADF80430114B5B6803F00C0265
:100ADC00082A18D1C3F38342724412F8102C13F471
:100AEC00803F03D10B4800FB02F00DE0084B5B6824
:100AFC00C3F34043734413F8143C074800FB02F063
:100B0C00B0FBF3F000E0044806B010BD0010000884
:100B1C000010024000093D0000127A00002800F08D
:100B2C00A38070B50446524B1B6803F007038B423D
:100B3C000CD24F4A136823F007030B43136013685E
:100B4C0003F00703994201D0012070BD236813F014
:100B5C00020F17D013F0040F04D0464A536843F425
:100B6C00E0635360236813F0080F04D0414A5368C4
:100B7C0043F4605353603F4A536823F0F003A0687A
:100B8C00034353600D46236813F0010F31D06368A3
:100B9C00012B20D0022B25D0364A126812F0020FFE
:100BAC0064D034494A6822F0030213434B60FFF7C8
:100BBC0047FD06462F4B5B6803F00C036268B3EBF2
:100BCC00820F16D0FFF73CFD801B41F28833984210
:100BDC00F0D9032070BD274A126812F4003FE0D10F
:100BEC00012070BD234A126812F0007FD9D1012078
:100BFC0070BD1F4B1B6803F007039D420CD21C4AAF
:100C0C00136823F007032B431360136803F00703E7
:100C1C009D4201D0012070BD236813F0040F06D053
:100C2C00144A536823F4E063E1680B435360236870
:100C3C0013F0080F07D00F4A536823F4605321694F
:100C4C0043EAC1035360FFF733FF0A4B5B68C3F3FE
:100C5C000313094AD35CD840084B1860084B18683A
:100C6C00FFF7AAFC002070BD01207047012070BD69
:100C7C000020024000100240141000080800002060
:100C8C0004000020F0B583B00026344671E0002D3E
:100C9C0000F0A280012D00D1CE68FF2B00F2B080B5
:100CAC008646FF2B00F2AF80A500DEF800200F2750
:100CBC00AF4022EA070206FA05F52A43CEF80020D7
:100CCC004A6812F0805F53D0644A956945F001057B
:100CDC009561926902F001020192019AA508AF1C7C
:100CEC005F4A52F8272004F00307BF004FF00F0EA5
:100CFC000EFA07FE22EA0E02DFF874E1704500F0EE
:100D0C0089800EF5806E704500F087800EF5806E40
:100D1C00704500F085800EF5806E704577D04FF0F1
:100D2C00040E0EFA07F73A4302354D4F47F82520CB
:100D3C004A6812F4803F76D04A4D2A681A432A60DA
:100D4C004A6812F4003F74D0464D6A681A436A60D0
:100D5C004A6812F4801F72D0424DAA681A43AA60E6
:100D6C004A6812F4001F70D03E4DEA681343EB60E2
:100D7C0001340B6833FA04F26DD00122A240134007
:100D8C009A42F5D14D68122D30D00BD8022D2AD0B5
:100D9C007FF67DAF032D2FD0112D7FF47EAFCE6863
:100DAC0004367AE7304FBD4216D00CD92F4FBD42D6
:100DBC0012D007F58037BD420ED0A7F58017BD4283
:100DCC007FF46BAF08E0A7F58017BD4204D007F5A0
:100DDC008037BD427FF461AF8D687DB1012D08D0A5
:100DEC004261082659E7CE68083656E7CE680C36BD
:100DFC0053E70261082650E700264EE704264CE72D
:100E0C0000F1040E4DE7A4F10805AD004DE74FF0DD
:100E1C00030E86E74FF0000E83E74FF0010E80E7DC
:100E2C004FF0020E7DE70F4D2A6822EA03022A607A
:100E3C0086E70C4D6A6822EA03026A6088E7094D6E
:100E4C00AA6822EA0302AA608AE7064DEA6822EA47
:100E5C000303EB608CE703B0F0BD00BF0010024051
:100E6C00000001400004014000002110000031107E
:100E7C000008014012B90904016170470161704713
:100E8C00C3680B4201D1016170474161704700009A
:100E9C00074AD36823F4E0631B041B0C000200F424
:100EAC00E060184340F0BF6040F40030D060704701
:100EBC0000ED00E030B4164BDB68C3F30223C3F142
:100ECC000704042C28BF04241D1D062D17D9033B31
:100EDC00012505FA04F4013C2140994005FA03F37D
:100EEC00013B1340194300280BDB0901C9B200F187
:100EFC00604000F5614080F8001330BC704700235F
:100F0C00E6E700F00F000901C9B2024B1954F4E7EF
:100F1C0000ED00E014ED00E00138B0F1807F0AD262
:100F2C00064B5860F021064A82F823100020986086
:100F3C0007221A6070470120704700BF10E000E0E4
:100F4C0000ED00E00F4B1A6842F001021A6059687C
:100F5C000D4A0A405A601A6822F0847222F48032D8
:100F6C001A601A6822F480221A605A6822F4FE026F
:100F7C005A604FF41F029A604FF00062034B9A6064
:100F8C00704700BF001002400000FFF800ED00E0C9
:100F9C00002103E00B4B5B58435004310A480B4BC8
:100FAC0042189A42F6D30A4A02E0002342F8043B64
:100FBC00084B9A42F9D3FFF7C5FFFFF7F3F8FFF799
:100FCC00D5F970472C100008000000200C00002000
:100FDC000C00002054000020FEE70000F8B500BF14
:100FEC00F8BC08BC9E467047F8B500BFF8BC08BCFE
:040FFC009E46704756
:1010000002030405060708090A0B0C0D0E0F101049
:1010100001020000000000000000000001020304C3
:0410200006070809AE
:041024007901000846
:04102800510100086A
:0C102C0001000000100000000024F4008F
:0400000508000F9D43
:00000001FF
