:020000040800F2
:1000000000500020311E0008BD100008BF1000087D
:10001000C1100008C3100008C5100008000000004F
:10002000000000000000000000000000C7100008F1
:10003000C910000800000000CB100008CD10000817
:10004000791E0008791E0008791E0008791E000834
:10005000791E0008791E0008791E0008791E000824
:10006000791E0008791E0008791E0008791E000814
:10007000791E0008791E0008791E0008791E000804
:10008000791E0008791E0008791E0008791E0008F4
:10009000791E0008791E0008791E0008791E0008E4
:1000A000791E0008791E0008791E0008791E0008D4
:1000B000791E0008791E0008791E0008791E0008C4
:1000C000791E0008791E0008791E0008791E0008B4
:1000D000791E0008791E0008791E0008791E0008A4
:1000E000791E0008791E0008791E00080000000033
:1000F0000000000000000000000000000000000000
:0C01000000000000000000005FF808F1A3
:10010C00044B05481B1A062B02D9044B03B11847A4
:10011C00704700BF7300002070000020000000003A
:10012C0005490648091A891001EBD171491002D012
:10013C00034B03B11847704770000020700000207B
:10014C000000000010B5064C237843B9FFF7D8FF28
:10015C00044B13B10448AFF300800123237010BD8E
:10016C0070000020000000007C1E000808B5084B41
:10017C001BB108490848AFF300800848036813B95D
:10018C00BDE80840CCE7064B002BF9D09847F7E7C1
:10019C0000000000740000207C1E0008700000208D
:1001AC000000000070B50F4E0F4D761BB61018BF37
:1001BC00002405D0013455F8043B9847A642F9D1E8
:1001CC000A4E0B4D01F054FE761BB61018BF0024DE
:1001DC0006D0013455F8043B9847A642F9D170BDBE
:1001EC0070BD00BF041F0008041F0008081F000892
:1001FC00041F000870B4860746D0541E002A41D054
:10020C00CAB2034602E014F1FF343BD303F8012BCE
:10021C009D07F8D1032C2ED9CDB245EA05250F2C1C
:10022C0045EA054519D9264603F11002103E0F2E5A
:10023C0042F8105C42F80C5C42F8085C42F8045C32
:10024C0002F11002F2D8A4F1100222F00F0204F015
:10025C000F041032032C13440DD91E462246043AC7
:10026C00032A46F8045BFAD8221F22F00302043258
:10027C00134404F003042CB1C9B21C4403F8011B51
:10028C009C42FBD170BC704714460346C2E700BFCA
:10029C000CB40B46F0B56FF000454FF402774FF6F7
:1002AC00FF769DB022AC54F8042B0293069302A95E
:1002BC0023460194ADF8147004950795ADF81660BB
:1002CC0000F00EF90022029B1A701DB0BDE8F04040
:1002DC0002B070470EB40146F0B56FF000454FF414
:1002EC0002774FF6FF769CB021AC54F8042B0B4BE5
:1002FC0002910691186802A923460194ADF8147076
:10030C0004950795ADF8166000F0EAF80022029B00
:10031C001A701CB0BDE8F04003B07047000000201C
:10032C002DE9F0478E680C469E421D46174628D88C
:10033C008046888910F4906F32D04E692368096921
:10034C0006EB4606A3EB010906EBD6766B1C761082
:10035C004B44B342324684BF1E463246430522D537
:10036C001146404600F02EFD824680B34A46216974
:10037C0000F006FCA38923F4906343F08003A3816F
:10038C0016E01E4608682A46394600F06FFCA26843
:10039C002368961B2B44A66023600020BDE8F087E1
:1003AC0008683546EFE7404600F06AFD824650B1DA
:1003BC00A6EB09030AEB09006661C4F810A02060E3
:1003CC00A3602E46DFE72169404600F0B3FC0C2306
:1003DC00C8F80030A3894FF0FF3043F04003A381ED
:1003EC00BDE8F0872DE9F04F936883B09046002B61
:1003FC0070D082460C4617688D68086842E0A38965
:10040C0013F4906F2ED06569216905EB4505A0EBBF
:10041C00010B05EBD5750BF101006D103044A842B2
:10042C002A4684BF05462A465B0538D511465046F8
:10043C0000F0C8FC00283CD05A462169019000F01D
:10044C009FFBA289019B22F4906242F08002A28160
:10045C00A5EB0B0203EB0B006561B346354623613C
:10046C002060A2605A46494600F000FCD8F80830DB
:10047C00A2682068551B58449E1BA5602060C8F8D4
:10048C0008603EB37E683B460837002EFAD0AE4279
:10049C00D3F80090AB46B2D23546B346E2E75046AD
:1004AC0000F0EEFC03460028D2D12169504600F042
:1004BC0041FC0C2300224FF0FF30CAF80030A38916
:1004CC0043F04003A381C8F80820C8F8042003B007
:1004DC00BDE8F08F0020C8F8040003B0BDE8F08F31
:1004EC002DE9F04F0F4689899DB00C069146039378
:1004FC00804603D53B69002B00F0FC8030230020A4
:10050C0020218DF82A3099F800300125814C099072
:10051C008DF82910002B00F09180252BCA4603D1B1
:10052C0019E0252B00F093801AF8013F002BF8D12D
:10053C00BAEB090B00F082804A465B4639464046CE
:10054C00FFF7EEFE013079D0099B9AF800205B444E
:10055C000993002A72D000234FF0FF320AF1010AEE
:10056C000493079306938DF853301A93059205E084
:10057C00049B001B05FA00F0184304909AF8001035
:10058C000522204600F0B6FAD1460AF1010A0028ED
:10059C00EED1049BD80644BF20228DF853201907B6
:1005AC0048BF2B2299F8001048BF8DF853202A29F8
:1005BC0071D0A1F13002092A0BD8079B19F8011F41
:1005CC0003EB830302EB4303A1F13002092AF5D9B3
:1005DC0007932E2946D0DFF84CA10322504600F099
:1005EC0089FA48B14022049BA0EB0A0002FA00F001
:1005FC00034309F10109049399F8003006221946C6
:10060C0045488DF8283009F1010900F073FA0028EB
:10061C004DD0424BFBB103AB00933A46404B04A97F
:10062C004046AFF300800646721C07D0099B33444A
:10063C00099399F80030002B7FF46FAFBB895B06F0
:10064C004CBF4FF0FF3009981DB0BDE8F08FBAEBEE
:10065C00090B80D070E7039B073323F007030833A3
:10066C000393E3E799F8011009F101002A2928D036
:10067C000023A1F13002092A05938146ABD819F861
:10068C00011F03EB830302EB4303A1F13002092AA0
:10069C00F5D905939FE7039A116804320029039258
:1006AC0022DB079199F8011009F1010991E703ABDD
:1006BC0000933A461A4B04A9404600F0CDF8064682
:1006CC00B2E7039B09F102001A680433002A039372
:1006DC00B8BF4FF0FF330592AEBF99F8021099F8EE
:1006EC0002100593814676E7494243F002030791D5
:1006FC000493D7E7402100F065FB3860386110B1F6
:10070C0040237B61FAE60C234FF0FF30C8F8003031
:10071C009AE700BFC81E0008D41E000800000000A5
:10072C002D030008D01E00082DE9F0470C4609697E
:10073C00A56891468D42B8BF0D46156094F84310DC
:10074C0006461F46DDF8208011B16A1CC9F800204E
:10075C00236899065DD5D9F800200232C9F800202B
:10076C00236813F0060F19461DD1E1688A1A002A76
:10077C00D8BF194617DD002504F1190A05E0E36816
:10078C00D9F800209B1AAB420CDD012352463946A6
:10079C003046C047013005F10105F0D14FF0FF3074
:1007AC00BDE8F087216894F84330003318BF01236B
:1007BC008A060AD53021E21882F8431094F84510C5
:1007CC005A1C224482F84310023304F14302394686
:1007DC003046C0470130E1D0236803F00603042BF8
:1007EC0029D0A36822699342C8BF4FF0000930DDBD
:1007FC009B1A994400251A3401E04D4529D0012358
:10080C00224639463046C047013005F10105F4D186
:10081C00C4E713F0060F08D1E168D9F800208A1A52
:10082C00002AD8BF1946A6DCBDE794F84330003344
:10083C0018BF0123C9E7D9F80010E068A368226942
:10084C00A0EB0109934229EAE979D1DCB9F1000F57
:10085C00D0D10020BDE8F0872DE9F0430C46097E8D
:10086C0085B06E2906461746984604F1430C0C9841
:10087C0055D00FD8632900F0198100F2D4800029DB
:10088C005CD0582940F0E68084F845102268DFF8E7
:10089C005CE213E0732900F0FB8000F289806F2981
:1008AC0000F0E280702940F0D580226842F02002EE
:1008BC0022607823DFF838E284F8453003681506A7
:1008CC0003F1040100F1FD8055064BBF1B881B682A
:1008DC0001600160D00744BF42F020022260002B6F
:1008EC0040F093801021226822F020022260002226
:1008FC0084F8432060680028A060C0F28B802268D6
:10090C0022F004022260002B66D1002840F0848083
:10091C00654608296ED0ACEB0503236111E0236812
:10092C001A0600F1D18013F0400F0368626903F1DD
:10093C00040101601B6814BF1A801A60002365460D
:10094C002361CDF800803B4603AA21463046FFF7D1
:10095C00EBFE013021D02A46236939463046C04788
:10096C0001301AD02368E06813F0020F039B19D0F2
:10097C00C21A002A16DD002504F1190904E0E0680A
:10098C00039BC21AAA420DDD01234A463946304662
:10099C00C047013005F10105F1D14FF0FF3005B032
:1009AC00BDE8F0839842B8BF184605B0BDE8F083A7
:1009BC00752959D078294DD122687AE72D206168A4
:1009CC005B42002984F84300A16020DB0A2122F05D
:1009DC000402DFF818E122606546B3FBF1F201FB7B
:1009EC0012331EF80300134605F8010D002AF4D14A
:1009FC00082990D12368D9078DD5626823699A425A
:100A0C0089DC3023013D2B7085E710216FE70A212B
:100A1C00DFF8D8E0002BDFD19EF8003004F142055E
:100A2C0084F8423075E7642901D0692912D1226813
:100A3C000368150603F1040152D455064BBFB3F9F4
:100A4C0000301B6801600160002BB7DB0A21DFF866
:100A5C009CE04FE7012384F84210236104F1420526
:100A6C00002384F843306CE723681A0633D413F060
:100A7C00400F036803F1040215BF1B881B6802605A
:100A8C0002606F2914BF0A210821DFF860E02EE70D
:100A9C0003686268191D01601D680021284600F07A
:100AAC0029F800B3401B60602061D9E7012203687C
:100ABC0004F14205191D1B68016084F84230226163
:100ACC00CEE701601B6805E703686269191D0160C8
:100ADC001B681A6032E703681A1D02601B68D0E7B6
:100AEC0001601B68B0E76068DEE700BFDC1E000831
:100AFC00F01E0008830770B4CDB23DD0541E0AB36B
:100B0C000378AB421FD0431C05E014F1FF3419D31A
:100B1C000278AA4217D013F0030F184603F1010311
:100B2C00F3D1032C11D84CB30378AB420BD0044453
:100B3C00431C02E00278AA4205D09C42184603F1FD
:100B4C000103F7D1002070BC7047090289B2294318
:100B5C0041EA0141036806464B40A3F1013222EA07
:100B6C00030313F0803F00F1040003D1043C032C79
:100B7C00F0D8D8E73046D7E71446D2E72046E2E76C
:100B8C00844641EA000313F0030349D1403A23D3CE
:100B9C000B6803604B6843608B688360CB68C360F1
:100BAC000B6903614B6943618B698361CB69C361D9
:100BBC000B6A03624B6A43628B6A8362CB6AC362C1
:100BCC000B6B03634B6B43638B6B8363CB6BC363A9
:100BDC0040304031403ADBD230320BD30B680360EB
:100BEC004B6843608B688360CB68C36010301031F6
:100BFC00103AF3D20C3205D351F8043B40F8043BC5
:100C0C00043AF9D2043208D0D2071CBF11F8013BC8
:100C1C0000F8013B01D30B8803806046704700BF8E
:100C2C00082A13D38B07B1D010F00303AED0C3F155
:100C3C000403D21ADB071CBF11F8013B00F8013B7F
:100C4C00A4D331F8023B20F8023B9FE7043AD9D3F6
:100C5C00013A11F8013B00F8013BF9D20B78037013
:100C6C004B7843708B788370604670478842F0B540
:100C7C000DD98B1898420AD28418002A51D02246DA
:100C8C0013F8014D994202F8014DF9D1F0BD0F2A2C
:100C9C0048D941EA00039B0746D1154600F11004E0
:100CAC0001F1100353F8106C103D44F8106C53F81C
:100CBC000C6C0F2D44F80C6C53F8086C04F11004F8
:100CCC0044F8186C53F8046C03F1100344F8146CDA
:100CDC00E8D8A2F1100323F00F0302F00F0E10332B
:100CEC00BEF1030F1944034421D90E4674461D1F4F
:100CFC0056F8047B043C032C45F8047FF8D8AEF17D
:100D0C00040424F0030404342144234402F00302B9
:100D1C0062B1013B0A4411F8014B8A4203F8014FBE
:100D2C00F9D1F0BD0346F3E70346F2E7F0BD724696
:100D3C00EEE700BF91B151F8043C0439002BB8BF69
:100D4C00C9181F4B1A68FAB18A4230B40AD908681C
:100D5C000C18A24226D04A60196030BC70478B42F6
:100D6C0003D81A465368002BF9D1146815198D4213
:100D7C000DD006D808680C189C4219D04B605160F5
:100D8C00EBE70C230360E8E74A60196070470968D9
:100D9C000C44111999421460DFD10ACB0C44146035
:100DAC005360DAE714685268204481E80500D3E701
:100DBC001C685B68204481E809005160CDE700BFE6
:100DCC008C00002070B5CC1C24F0030408340C2CCF
:100DDC0038BF0C24002C06463BDBA14239D8274DEA
:100DEC00296851B10B681B1B04D436E013681B1B1C
:100DFC001AD511464A68002AF8D16968002937D0FB
:100E0C002146304600F064F8431C22D0C51C25F066
:100E1C000305A84205D0291A304600F059F80130D4
:100E2C0017D02A462C6004E00B2B0DD913601A4402
:100E3C00146002F10B0020F00700131DC31A02D03E
:100E4C005942D15070BD70BD8A420ED053684B6070
:100E5C00EFE70C230020336070BD0B2B03D80A4640
:100E6C004B682B60E5E70A46E0E70B460A46F8E7D5
:100E7C00304600F02DF86860C2E700BF8C000020FF
:100E8C00F8B51446F9B1C2B106460D4600F032F879
:100E9C00844201D82846F8BD21463046FFF792FF20
:100EAC00074670B122462946FFF76AFE29463D46A1
:100EBC003046FFF73FFF2846F8BDFFF73BFF2546BE
:100ECC00E8E70546E6E71146BDE8F840FFF77ABFCC
:100EDC0038B50023064C05460846236000F014F88C
:100EEC00431C00D038BD2368002BFBD02B6038BDD1
:100EFC00C400002051F8040C0028A0F10400BCBF71
:100F0C000B58C018704700BF044A05491368002BE2
:100F1C0008BF0B4618441060184670479400002018
:100F2C00C800002030B587B00024029403940494C8
:100F3C000594144B9A6942F010029A619A6902F076
:100F4C0010020092009A9A6942F004029A619B691D
:100F5C0003F004030193019B0B4D22464FF4005107
:100F6C00284600F0D1FE4FF4005302930123039363
:100F7C0004940223059302A9284600F0CDFD07B086
:100F8C0030BD00BF0010024000100140FEE7000021
:100F9C0008B50B480B4B03601023436000238360A0
:100FAC00C36003614361037643768376C37603772C
:100FBC00437700F0E7F800B908BDFFF7E7FF00BF83
:100FCC00980000200064004000B591B02822002158
:100FDC0006A8FFF70FF900230193029303930493E0
:100FEC0005930223069301230A9310230B9306A85F
:100FFC0000F0A0FA68B90F2301930021029103912C
:10100C000491059101A800F0D3FC20B911B05DF852
:10101C0004FBFFF7BBFFFFF7B9FF000070B598B0FA
:10102C0000F03AFAFFF7D0FFFFF77CFFFFF7B0FFB5
:10103C001C4800F04DF908B1FFF7A8FF00242AE086
:10104C0000BF184800F0E7F90028F9D040252A46DF
:10105C00002108A8FFF7CEF8661C2246124908A802
:10106C00FFF738F9642302930123039300220492BF
:10107C00059206958DF81C2018AB43F85C2D08AA38
:10108C0002A9084800F052F900B100BF4FF4FA7001
:10109C0000F026FA34464FF40051044800F03AFEB2
:1010AC00CFE700BF98000020A81E000800100140E8
:1010BC007047FEE7FEE7FEE7FEE7704770477047B4
:1010CC0008B500F0FBF908BD82B00E4B9A6942F0EE
:1010DC0001029A619A6902F001020092009ADA699F
:1010EC0042F08052DA61DB6903F080530193019B7B
:1010FC00054A536823F0E06343F00073536002B079
:10110C00704700BF001002400000014030B587B0AE
:10111C00002302930393049305930268174B9A429E
:10112C0001D007B030BD03F5D633DA6942F0007256
:10113C00DA61DA6902F000720092009A9A6942F060
:10114C0004029A619B6903F004030193019B06ACB2
:10115C004FF4006344F8103D094D2146284600F039
:10116C00DBFC4FF480530293022303930323059378
:10117C002146284600F0D0FCD3E700BF00640040B5
:10118C0000080140002800F0A18038B5044690F812
:10119C002030D3B12268136823F00203136000F0EF
:1011AC0099F9054623685A6812F0020F10D000F026
:1011BC0091F9401B0A28F5D9636A43F40033636242
:1011CC00052384F82030012038BDFFF79FFFE1E7AD
:1011DC001A6842F001021A6000F07CF90546236897
:1011EC005A6812F0010F0DD100F074F9401B0A2857
:1011FC00F5D9636A43F400336362052384F8203025
:10120C00012038BD227E012A3DD01A6822F08002CE
:10121C001A60637E012B3BD02268136823F04003D5
:10122C001360A37E012B39D02268136823F02003AE
:10123C001360E37E012B37D02268136843F0100350
:10124C001360237F012B35D02268136823F0080329
:10125C001360637F012B33D02268136823F00403DF
:10126C0013602168A368E26813432269134362691F
:10127C0013436268013A1343CB610020606201237F
:10128C0084F8203038BD1A6842F080021A60C0E73A
:10129C002268136843F040031360C2E722681368A6
:1012AC0043F020031360C4E72268136823F0100393
:1012BC001360C6E72268136843F008031360C8E79D
:1012CC002268136843F004031360CAE701207047D7
:1012DC0038B590F82030DBB2012B05D0436A43F4CB
:1012EC0000234362012038BD0446022380F82030DD
:1012FC000268136823F00103136000F0EBF8054655
:10130C0023685B6813F0010F0DD000F0E3F8401B6D
:10131C000A28F5D9636A43F400336362052384F821
:10132C002030012038BD0020606238BD70B490F8C8
:10133C0020400568AD68013CE4B2012C06D9436A33
:10134C0043F480234362012070BC704715F0E05FCA
:10135C005BD0C5F30165022D3ED80124AC401C6066
:10136C008B68002B3ED104680E68CB6843EA465666
:10137C0005F118031B01E65003680C6905F118060A
:10138C0003EB06135C600B7D012B36D00468D1791E
:10139C0093791B0443EA0163517943EA01231179E0
:1013AC000B432E013444C4F88C310168D478937803
:1013BC001B0443EA0463547843EA0423127813436E
:1013CC003144C1F88831026818352D01535943F066
:1013DC00010353510020B7E7436A43F4000343620F
:1013EC000120B1E704684E6843EAC603CE68334374
:1013FC0005F118063601A351BEE7036803EB06138B
:10140C00596841F480715960C0E7436A43F4001392
:10141C004362012098E790F82030013BDBB2012BAE
:10142C0001D90020704703689A6812F0806F0BD1C5
:10143C0000209A6812F0006F00D001309B6813F006
:10144C00805FEFD0013070470120F2E710B5044601
:10145C000E4B18784FF47A73B3FBF0F30C4A106808
:10146C00B0FBF3F000F0A2FC68B90F2C01D90120FD
:10147C0010BD002221464FF0FF3000F065FC054BFB
:10148C001C60002010BD012010BD00BF64000020B6
:10149C006C0000206800002008B5074A136843F070
:1014AC0010031360032000F03DFC0020FFF7CEFF7B
:1014BC00FFF70AFE002008BD00200240034A116815
:1014CC00034B1B780B441360704700BFC000002017
:1014DC0064000020014B1868704700BFC00000205A
:1014EC0038B50446FFF7F6FF0546B4F1FF3F02D0CE
:1014FC00044B1B781C44FFF7EDFF401B8442FAD8C9
:10150C0038BD00BF6400002082B0084B1B68084A3D
:10151C00A2FB03235B0A00FB03F0019000BF019BBD
:10152C005A1E0192002BF9D102B070476C000020BA
:10153C00D34D6210002800F0F58170B582B00446DE
:10154C00036813F0010F3DD0AB4B5B6803F00C0349
:10155C00042B2ED0A84B5B6803F00C03082B23D074
:10156C006368B3F5803F51D0002B55D103F1804314
:10157C0003F504331A6822F480321A601A6822F4D4
:10158C0080221A606368002B60D0FFF7A3FF05462A
:10159C00994B1B6813F4003F14D1FFF79BFF401BC2
:1015AC006428F5D90320C2E1934B5B6813F4803FA8
:1015BC00D6D0914B1B6813F4003F03D06368002B0B
:1015CC0000F0B281236813F0020F65D08A4B5B6880
:1015DC0013F00C0F4ED0884B5B6803F00C03082BF8
:1015EC0043D02369002B79D00122844B1A60FFF77A
:1015FC0071FF0546804B1B6813F0020F65D1FFF796
:10160C0069FF401B0228F5D9032090E17A4A136840
:10161C0043F480331360B5E7B3F5A02F09D0764BB4
:10162C001A6822F480321A601A6822F480221A6036
:10163C00A8E703F18043A3F53C331A6842F48022F7
:10164C001A601A6842F480321A609BE7FFF742FF77
:10165C000546694B1B6813F4003FB3D0FFF73AFF04
:10166C00401B6428F5D9032061E1634B5B6813F4DC
:10167C00803FB6D1604B1B6813F0020F04D0236976
:10168C00012B01D0012052E15B4A136823F0F803CF
:10169C00616943EAC1031360236813F0080F32D069
:1016AC00A369002B6ED00122554B1A60FFF712FF75
:1016BC000546514B5B6A13F0020F21D1FFF70AFF6D
:1016CC00401B0228F5D9032031E14B4A136823F063
:1016DC00F803616943EAC1031360DDE70022474B5D
:1016EC001A60FFF7F7FE0546434B1B6813F0020F19
:1016FC00D2D0FFF7EFFE401B0228F5D9032016E1EC
:10170C000120FFF701FF236813F0040F00F098800D
:10171C00394BDB6913F0805F46D1374BDA6942F005
:10172C008052DA61DB6903F080530193019B012540
:10173C00344B1B6813F4807F38D0E368012B49D0FD
:10174C00002B4DD103F1804303F504331A6A22F0C8
:10175C0001021A621A6A22F004021A62E368002B70
:10176C005CD0FFF7B7FE0646234B1B6A13F0020F43
:10177C0065D1FFF7AFFE801B41F288339842F3D955
:10178C000320D4E000221E4B1A60FFF7A3FE05468F
:10179C00194B5B6A13F0020FB5D0FFF79BFE401B91
:1017AC000228F5D90320C2E00025C1E7154A1368C9
:1017BC0043F480731360FFF78DFE0646114B1B68D4
:1017CC0013F4807FB9D1FFF785FE801B6428F5D90F
:1017DC000320ACE0084A136A43F001031362BDE72F
:1017EC00052B11D0044B1A6A22F001021A621A6AF4
:1017FC0022F004021A62B1E70010024000004242DB
:10180C0080044242007000404C4B1A6A42F00402C1
:10181C001A621A6A42F001021A629FE7FFF75AFE37
:10182C000646464B1B6A13F0020F08D0FFF752FE18
:10183C00801B41F288339842F3D9032077E0E5B955
:10184C00E369002B72D03D4A526802F00C02082A60
:10185C0056D0022B17D00022394B1A60FFF73AFEF4
:10186C000446364B1B6813F0007F47D0FFF732FE5F
:10187C00001B0228F5D9032059E0304AD36923F024
:10188C008053D361DCE700222D4B1A60FFF722FE58
:10189C0005462A4B1B6813F0007F06D0FFF71AFE93
:1018AC00401B0228F5D9032041E0236AB3F5803FA1
:1018BC001AD022494B6823F47413226A606A0243DB
:1018CC0013434B6001221E4B1A60FFF703FE0446C4
:1018DC001A4B1B6813F0007F0ED1FFF7FBFD001BAA
:1018EC000228F5D9032022E0144A536823F400336C
:1018FC00A1680B435360DCE7002018E0002016E0E1
:10190C00012B16D00D4B5B6803F48031226A914297
:10191C0001D001200BE003F47013626A93420AD0E9
:10192C00012004E001207047012000E0002002B0FB
:10193C0070BD0120FBE70020F9E700BF001002405A
:10194C006000424210B586B0154C94E80F000DF1C2
:10195C00180E0EE90F00238AADF80430114B5B68AA
:10196C0003F00C02082A18D1C3F38342724412F814
:10197C00102C13F4803F03D10B4800FB02F00DE058
:10198C00084B5B68C3F34043734413F8143C07489B
:10199C0000FB02F0B0FBF3F000E0044806B010BD11
:1019AC00941E00080010024000093D0000127A004D
:1019BC00002800F0A38070B50446524B1B6803F05E
:1019CC0007038B420CD24F4A136823F007030B43D7
:1019DC001360136803F00703994201D0012070BD16
:1019EC00236813F0020F17D013F0040F04D0464AEB
:1019FC00536843F4E0635360236813F0080F04D07A
:101A0C00414A536843F4605353603F4A536823F090
:101A1C00F003A068034353600D46236813F0010FD5
:101A2C0031D06368012B20D0022B25D0364A1268A6
:101A3C0012F0020F64D034494A6822F003021343B7
:101A4C004B60FFF747FD06462F4B5B6803F00C031A
:101A5C006268B3EB820F16D0FFF73CFD801B41F29E
:101A6C0088339842F0D9032070BD274A126812F4CB
:101A7C00003FE0D1012070BD234A126812F0007FB4
:101A8C00D9D1012070BD1F4B1B6803F007039D4289
:101A9C000CD21C4A136823F007032B431360136802
:101AAC0003F007039D4201D0012070BD236813F0A1
:101ABC00040F06D0144A536823F4E063E1680B4327
:101ACC005360236813F0080F07D00F4A536823F4B0
:101ADC006053216943EAC1035360FFF733FF0A4B9C
:101AEC005B68C3F30313094AD35CD840084B1860F6
:101AFC00084B1868FFF7AAFC002070BD0120704746
:101B0C00012070BD0020024000100240B41E0008ED
:101B1C006C00002068000020F0B583B0002634462D
:101B2C0071E0002D00F0A280012D00D1CE68FF2BBA
:101B3C0000F2B0808646FF2B00F2AF80A500DEF8E5
:101B4C0000200F27AF4022EA070206FA05F52A43C8
:101B5C00CEF800204A6812F0805F53D0644A956931
:101B6C0045F001059561926902F001020192019A1A
:101B7C00A508AF1C5F4A52F8272004F00307BF00EA
:101B8C004FF00F0E0EFA07FE22EA0E02DFF874E198
:101B9C00704500F089800EF5806E704500F08780EE
:101BAC000EF5806E704500F085800EF5806E7045E8
:101BBC0077D04FF0040E0EFA07F73A4302354D4F2B
:101BCC0047F825204A6812F4803F76D04A4D2A689F
:101BDC001A432A604A6812F4003F74D0464D6A6872
:101BEC001A436A604A6812F4801F72D0424DAA6888
:101BFC001A43AA604A6812F4001F70D03E4DEA687E
:101C0C001343EB6001340B6833FA04F26DD00122FC
:101C1C00A24013409A42F5D14D68122D30D00BD80A
:101C2C00022D2AD07FF67DAF032D2FD0112D7FF4FE
:101C3C007EAFCE6804367AE7304FBD4216D00CD951
:101C4C002F4FBD4212D007F58037BD420ED0A7F5FD
:101C5C008017BD427FF46BAF08E0A7F58017BD423B
:101C6C0004D007F58037BD427FF461AF8D687DB13C
:101C7C00012D08D04261082659E7CE68083656E790
:101C8C00CE680C3653E70261082650E700264EE773
:101C9C0004264CE700F1040E4DE7A4F10805AD0055
:101CAC004DE74FF0030E86E74FF0000E83E74FF041
:101CBC00010E80E74FF0020E7DE70F4D2A6822EAF5
:101CCC0003022A6086E70C4D6A6822EA03026A6006
:101CDC0088E7094DAA6822EA0302AA608AE7064D42
:101CEC00EA6822EA0303EB608CE703B0F0BD00BFA7
:101CFC0000100240000001400004014000002110CF
:101D0C00000031100008014012B90904016170474C
:101D1C0001617047C3680B4201D101617047416199
:101D2C0070470000074AD36823F4E0631B041B0CC4
:101D3C00000200F4E060184340F0BF6040F4003053
:101D4C00D060704700ED00E030B4164BDB68C3F395
:101D5C000223C3F10704042C28BF04241D1D062DE7
:101D6C0017D9033B012505FA04F4013C21409940A5
:101D7C0005FA03F3013B1340194300280BDB09015F
:101D8C00C9B200F1604000F5614080F8001330BC2E
:101D9C0070470023E6E700F00F000901C9B2024BBF
:101DAC001954F4E700ED00E014ED00E00138B0F157
:101DBC00807F0AD2064B5860F021064A82F8231025
:101DCC000020986007221A6070470120704700BFFE
:101DDC0010E000E000ED00E00F4B1A6842F0010249
:101DEC001A6059680D4A0A405A601A6822F08472C7
:101DFC0022F480321A601A6822F480221A605A681F
:101E0C0022F4FE025A604FF41F029A604FF00062F7
:101E1C00034B9A60704700BF001002400000FFF8AF
:101E2C0000ED00E0002103E00B4B5B584350043104
:101E3C000A480B4B42189A42F6D30A4A02E0002396
:101E4C0042F8043B084B9A42F9D3FFF7C5FFFEF763
:101E5C00A9F9FFF7E3F870470C1F000800000020F9
:101E6C007000002070000020C8000020FEE7000079
:101E7C00F8B500BFF8BC08BC9E467047F8B500BF6B
:081E8C00F8BC08BC9E4670473B
:101E940002030405060708090A0B0C0D0E0F1010A7
:101EA4000102000053706565643A20256C750000DA
:101EB40000000000000000000102030406070809F6
:101EC40043000000232D302B20000000686C4C00E0
:101ED400656667454647000030313233343536375E
:101EE4003839414243444546000000003031323322
:101EF4003435363738396162636465660000000042
:041F04007901000857
:041F0800510100087B
:101F0C0004000020000000000000000000000000A1
:101F1C0000000000000000000000000000000000B5
:101F2C0000000000C41E00080000000000000000BB
:101F3C000000000000000000000000000000000095
:101F4C000000000000000000000000000000000085
:101F5C000000000000000000000000000000000075
:101F6C000000000001000000100000000024F4003C
:0400000508001E31A0
:00000001FF
